:020000021000EC
:10000000E03F082093010100FB000100E100010036
:10001000090101001901010029010100000000008F
:10002000000000000000000000000000E1AE010040
:10003000390101000000000051AF01005901010029
:100040003DB501003DB501003DB501003DB50100E4
:100050003DB501003DB501003DB501003DB50100D4
:100060003DB501003DB501003DB501003DB50100C4
:100070003DB501003DB501003DB501003DB50100B4
:100080003DB501003DB501003DB501003DB50100A4
:100090003DB501003DB501003DB501003DB5010094
:1000A0003DB501003DB501003DB501003DB5010084
:1000B0003DB501003DB501003DB501003DB5010074
:1000C0003DB501003DB501003DB50100E065020010
:1000D00000C00720B8010000B8C10720BC04000020
:1000E00004207146084203D0EFF309800BF044BAB4
:1000F000EFF308800BF040BA704708B5014807F0ED
:10010000D5FDFEE7765F020008B5024807F0CEFD98
:10011000FEE700BF815F020008B5024807F0C6FD98
:10012000FEE700BF8C5F020008B5024807F0BEFD85
:10013000FEE700BF975F020008B5024807F0B6FD72
:10014000FEE700BFA45F020008B5024807F0AEFD5D
:10015000FEE700BFB25F020008B50AF077FE0AF0C2
:100160001FFFBDE808400AF085BE0B4610B55C1ABB
:10017000944204D2441AE45843F8044BF7E710BD04
:1001800003461A1A8A4203D2002243F8042BF8E7E6
:10019000704716480AF0A6FF14480AF0A6FF144C50
:1001A000144B9C4207D294E803000C3454F8042CFE
:1001B000FFF7DBFFF4E7104B9C4206D254F8080B24
:1001C00054F8041CFFF7DCFFF5E70CF0D7FF0AF04A
:1001D000A3FF01F0CDFD02F09DFE4FF416400BF0A1
:1001E000E9FA064807F062FDFEE700BFE03F08209D
:1001F000CC000100D8000100E0000100C65F020051
:10020000144A70B51368014613B94FF08053136058
:100210001068114B4518114E2B44B34298BF104B38
:100220000C4C96BFC81825602060126898BF18460D
:100230000C4B9A4281BF0C4A064B00201A6039B120
:100240000A4A136801331360094B1860094B19609F
:1002500070BD00BFBCC10720FF7FFFEFFE3F07104E
:1002600074C60720FF3F082000400820C4C10720B3
:10027000B8C10720C0C107200DF09CB80DF0A2B88E
:100280000DF0A0B810B504468AB068460DF03EFBEC
:10029000204A214B2260089A2049A260079A626096
:1002A00052B90A681E4882428ABF02F1604202F1D6
:1002B0007042A2F5E82262606268B2F5803F82BFB8
:1002C00002F17042A2F5E82262600022E2600A6850
:1002D00013498A4205D8C3F1405303F50C239B1AF6
:1002E00009E010498A4207D8C3F1804303F580131F
:1002F0009B1A002B00DDE36020460B4BE2611B687C
:10030000A3610A4B1B686361094B1B6823610AB038
:1003100010BD00BF7406000074C60720BCC10720D2
:1003200000800010FF3F0820B8C10720C0C107208F
:10033000C4C1072000207047FEE70000014B186091
:10034000704700BFD0C10720014B1860704700BF45
:10035000C8C1072008B502480EF06AFAFEE700BFE0
:10036000F836020008B502480EF062FAFEE700BF58
:10037000123702000020704701207047F8B5084B83
:1003800016461A680F461C4642B10D46EB1BB34297
:1003900004DA236815F8010B9847F7E73046F8BDF3
:1003A000D0C10720F8B5094B0F46186816461C4601
:1003B00058B10D46EB1BB34205DA2368002098477D
:1003C00005F8010BF6E726EAE670F8BDC8C107207C
:1003D0007047002070470000074B1B689A688242F4
:1003E00007D05A68824204D0DB681B1A5842584131
:1003F00070470120704700BF3CC1072000207047B4
:100400000020704730B504468DB0A8B3684608F0A8
:1004100025FE9DF80030002503F03F0303939DF86F
:10042000013003A803F03F0304939DF802300B95BD
:1004300003F01F0305939DF8043003F01F03069398
:100440009DF8053003F00F03013B0793BDF806301C
:10045000C3F30B03A3F26C7308939DF8033003F00E
:1004600007030993BDF80830C3F30B03013B0A935C
:100470000DF0D2F884E8210000200DB030BD00005E
:1004800070B50F4D0F4E2C6814F0010415D128469D
:100490000BF056FA88B14FF40E70FFF7EDFE3023E3
:1004A00080F835323A2380F8344280F8363280F8CA
:1004B0003742306028460BF04FFA306870BD00BFFD
:1004C000F0C10720D8C1072070B50F4D0F4E2B6823
:1004D00013F0010416D128460BF032FA90B14FF414
:1004E0000E70FFF7C9FE012380F83432312380F803
:1004F00035323A2380F8363280F837423060284669
:100500000BF02AFA306870BDECC10720D4C1072077
:100510002DE9F047ADF51A7D0F4608F028F8041EC6
:1005200004DD0AF05BFC20460AF09EF90DF1140888
:1005300044462B4D0FCD0FC42B68102123600DEBCB
:10054000010200240AA804940AF050FB25498146C0
:10055000254A384608F0F2FF26460AAD4FF0000A59
:10056000CA451ED06B69A34217D1AA69049B1644E1
:1005700023B16421B3FBF1F3B2FBF3F395F80CE084
:100580000094298C029389000191039238461749FF
:100590006A6858F82E3008F0D1FF0AF1010A2435B4
:1005A000DEE701340A2CD8D1049B64229E1BB3FBE6
:1005B000F2F30F490F4AB6FBF3F30096384608F002
:1005C000BDFF0AF037F8102804D938460A4910222E
:1005D00008F0B4FF01200DF51A7DBDE8F08700BFDB
:1005E0002C3702004B3702007237020077370200C7
:1005F00094370200B3370200BE37020010B50C4634
:10060000ADF5007D68460AF01FFF204669464FF0B1
:10061000FF3208F05DFF01200DF5007D10BD0000E8
:1006200030B50C4691B02C49054607F0ACFE0028C9
:1006300047D008AB009309AB01930AAB02930BAB15
:1006400003930CAB04932846244906AA07AB07F092
:1006500002FE072801D000203BE09DF83930069AC1
:100660000DA862F303038DF83930079A9DF83830EE
:1006700062F304038DF83830089ABDF83A3062F31B
:100680000B03ADF83A30099A9DF8363062F3040353
:100690008DF836300A9A9DF8353062F305038DF8EF
:1006A00035300B9A9DF8343062F305038DF8343001
:1006B0000C9A9DF8373062F302038DF8373008F05A
:1006C000F5FC08F08FFD06490246204608F036FF8B
:1006D000012011B030BD00BFE8370200EC37020046
:1006E000AA570200F7B50D464E49044607F03BFFF6
:1006F000064640B107F070F928464B494FF0FF32EB
:1007000008F0E6FE8BE02046484907F02CFF60B376
:1007100007F086F946490246284608F00FFF07F021
:100720008BF944490246284608F008FF07F07EF995
:1007300041490246284608F001FF304607F066F9B5
:100740000646012007F062F90446022007F05EF930
:100750000746032007F05AF90097019037492846C9
:100760003246234608F0EAFE59E02046344907F0B5
:100770000AFE50B101212022204607F0A2FE2046A9
:1007800007F0F3FE07F072FA49E020462D4907F022
:10079000FAFD064620B920462B4907F0F4FD60B368
:1007A00020462A4907F0DDFD60B92046284907F0B8
:1007B000D8FD28B92046274907F0D3FD044602E0BA
:1007C000032400E002242046314607F0A5F9224A1E
:1007D000224B002E18BF1A463CB1012C07D01C49F1
:1007E0001A4B022C18BF0B4602E01D4B00E0194BC0
:1007F00028461C4908F0A2FE11E0204607F0B5FE8D
:1008000019491A4A0090F323012007F093F9204672
:1008100007F0ABFE16490246284608F08FFE01207D
:1008200003B0F0BD273802002D3802004638020020
:100830004D38020062380200773802009638020014
:10084000C6380200CA380200D2380200223802003C
:100850001C380200224A02000D380200053802004E
:1008600016380200DB380200F4380200403702007C
:100870002739020030B589B004AB002400930D463F
:100880000222194903AB0394049407F0F2FC0228F6
:1008900027D107AB009305AA0398049906AB0594EA
:1008A0000694079403F0CEFD024638B1049B284617
:1008B00000930E49039B08F041FE10E0059A069B49
:1008C000002A079C08BF0122002B08BF01232846ED
:1008D0000749B4FBF2F2B4FBF3F308F02FFE01205A
:1008E00000E0204609B030BDBA49020035390200A7
:1008F000543902002DE9F0470D46ADF5856D3B49B1
:10090000064607F0CAFD3A498146304607F0EEFD3B
:100910003749304607F00AFE304607F026FE01222E
:10092000014681A805F0AEFD044640B1304607F00F
:100930001CFE30490246284608F000FE50E00DF14A
:10094000040A21464FF4007250460CF087FD0094D3
:100950000AF066FDA04606460F4681A851464FF4B0
:1009600000726B4605F027FE08B9009B33BB81A8D7
:1009700005F0F9FFB9F1000F19D00AF051FD4FF45D
:100980007A7200230CF02EF8002304464FF47A729A
:10099000304639460CF026F8201A14BF03460123CE
:1009A000284615494246B8FBF3F308F0C7FD284630
:1009B00012494FF0FF3208F08BFD11E09844B9F175
:1009C000000FCAD14C46009B9C42C6D22B681AF835
:1009D00004105B6828464FF0FF3298470134F2E775
:1009E00001200DF5856DBDE8F08700BF823902005A
:1009F000BA4902008B3902009F3902002D3F0200E4
:100A00002DE9F0470023BEB00C46554905460C932E
:100A100007F0A9FD20B9284607F0A7FD064600E02B
:100A2000504E15A8314606F056F8054620462DB121
:100A30004D4932462B4608F081FD8CE04B49324649
:100A400008F07CFDA8461EAF802315A80DA91397BA
:100A5000149306F084F8002865D19DF83D30002BF2
:100A600061D09DF83C10DDF834C011F0100F09BFC3
:100A70000C9B442263440C930ABF2D22013508F1DC
:100A8000010811F0010F14BF52232D2311F0020FA2
:100A900014BF4FF0480A4FF02D0A11F0040F14BF95
:100AA0004FF053094FF02D0911F0200FBDF8381009
:100AB00014BF4FF0410E4FF02D0ECDF808E04FEA75
:100AC000612EBDF83A000EF2BC7ECDF80CE0C1F309
:100AD000431E01F01F010591C1120691C0F345109C
:100AE0000DF13D01CDF810E0CDF820C0079009913F
:100AF000CDF800A0CDF8049020461D4908F01EFD59
:100B000020461C494FF0FF3208F0CEFC3946204603
:100B10004FF0FF3208F0C8FC204611494FF0FF3279
:100B200008F0D6FC8FE700953EAD55F8C83D124958
:100B30004246204608F002FD304629460BAA06F040
:100B40003DF840B90B9B20469A780C9B0B495A43C1
:100B5000520808F0F3FC01203EB0BDE8F08700BF6A
:100B60002D3F0200BA390200BD390200E13902000E
:100B7000FC390200293A02002D3A0200573A0200DD
:100B800070B50D46064607F0F0FC0446304607F007
:100B9000ECFC06F0D5F8064A064B0749002818BFBA
:100BA00013462846224608F0C9FC012070BD00BF4C
:100BB000173C02000D3C02006B3A020070B50D4676
:100BC000064607F0D2FC0446304607F0CEFC06F09D
:100BD0005AF8064A064B0749002818BF134628460C
:100BE000224608F0ABFC012070BD00BF173C02009C
:100BF0000D3C0200873A02007FB503AB002400934E
:100C00000E4602220F4902AB0294039407F031FB17
:100C1000022814D1029D039C2846214606F03AF989
:100C2000094B0A492A4600280CBF084618460849BD
:100C300000902346304608F081FC012000E0204669
:100C400004B070BDBA490200173C02000D3C02001E
:100C5000993A020030B5ADF50D7D0C46054607F01A
:100C600084FC0A22014603A805F00CFC40B128468A
:100C700007F07BFC1F490246204608F05FFC35E088
:100C80008DF8070002901C4920467E2242F2107324
:100C900008F054FC2046194908F050FC236820460F
:100CA0001B680DF1070142F21072984718B19DF8C8
:100CB00007307E2B03D103A805F055FE16E003A8EC
:100CC0000DF10701012202AB05F033FD10B9029BC3
:100CD000012B02D020460A49DEE7236820465B68E4
:100CE0009DF807104FF0FF329847D7E701200DF528
:100CF0000D7D30BDB13A0200D83A0200103B02002F
:100D0000303B02002DE9F047ADF5407D002304ACF7
:100D1000236003930D4600944249022203AB07F07F
:100D2000A8FA022806D028463F494FF0FF3208F0C3
:100D3000CFFB71E017A8216805F0CDFE18B1284659
:100D40003A49226807E017A8039905F0C4FE28B1C4
:100D500028463749039A08F0F1FB5DE040A94FF4BB
:100D6000807205A807F046FA0AA880A94FF480729D
:100D700007F040FA20AB159317A880230FA916930C
:100D800005F0EDFE002841D19DF84530002B3DD007
:100D90009DF8443003F0100303F0FF06002BE9D167
:100DA000039A0DF1450305A8224907F028FC2268A3
:100DB0000DF145031F490AA807F021FC05A807F01B
:100DC000D4FB80460AA807F0D0FB074605A8DDF84B
:100DD0003C9007F0CAFB82460AA807F0C6FB3246E1
:100DE000014633460096504603F02CFB124A134B43
:100DF000CDF8009000280CBF18461046104901900D
:100E0000424628463B4608F099FBB3E70AA807F09C
:100E100007FA05A807F004FA01200DF5407DBDE8AA
:100E2000F08700BFBA490200573B02009C3B02001A
:100E3000C13B0200E13B0200173C02000D3C0200F6
:100E4000E73B0200F8B50D462349064607F08BFB49
:100E50000446074628B1FFF737FB002100F2352092
:100E60000AE030461D4907F07EFB044650B1FFF70B
:100E700007FB394600F235200A4606F09BF8184970
:100E8000184B1EE03046184907F06DFB044648B188
:100E9000FFF71AFB012200F2352105F0B5FA1349DC
:100EA000134B0EE03046134907F05DFB044680B15A
:100EB000FFF7E6FA012200F2352105F0A5FA0E4906
:100EC0000E4B002808BF19464FF0FF32284608F0A5
:100ED000FFFA2046F8BD00BF6E3C0200783C0200DD
:100EE000103C0200063C0200853C02002D3C020042
:100EF0001D3C02008E3C0200523C0200443C0200B9
:100F000008B508464FF0FF32084908F0E1FA06F04C
:100F100063FD4FF4FA6009F0A7FC4FF08043AA226A
:100F20001A7200221A70012008BD00BF9A3C02000C
:100F300010B501200C4607F051F938B100210A46DE
:100F40000B4608F0BFFF2046044901E02046044953
:100F50004FF0FF3208F0BCFA012010BDAB3C02009C
:100F6000C13C020038B5064C236833B91C20FFF79A
:100F700083F9054607F0E0FE2560206838BD00BF14
:100F8000E4C107202DE9F04F0D46C7B05549814611
:100F900007F010FA54498246484607F00BFA5349C5
:100FA0008346484607F006FA00270DF1100805AE03
:100FB000044602970397C8F800703760BAF1000F33
:100FC00045D0009648464A4902AA03AB07F043F9C8
:100FD000012807DC284647494FF0FF3208F078FA2D
:100FE00038467CE00DF118084FF4807440463946CD
:100FF00022460CF033FA336813B90123336003E05F
:10100000B3F5807F88BF3460FFF7ACFF33689DF88D
:1010100008109DF80C200093434608F054FB364A14
:10102000364B3749002808BF13462846029A08F075
:1010300085FA002433689C424ED2039A18F8043093
:10104000224428462F4908F079FA0134F2E7BBF12F
:10105000000F2CD0CDF8008048462B4902AA03ABE4
:1010600007F0F9F8032807D0284628494FF0FF3247
:1010700008F02EFA504632E0FFF774FF9DF8081092
:101080009DF80C2098F8003008F032FB48B1039B23
:10109000284600931E49D8F80020029B08F04EFA1B
:1010A0001AE028461B49029A08F048FA14E0A8B151
:1010B00002230293029BFE2B10DCFFF753FF9DF8E7
:1010C000081008F020FB20B128461349029A08F0C6
:1010D00035FA029B0233ECE7012000E0204647B0DE
:1010E000BDE8F08FDD4A0200FA3C0200003D02003C
:1010F000093D0200183D0200173C02000D3C0200B1
:10110000393D02005D3D02006D3D02007D3D020063
:10111000A43D0200BE3D0200DB3D02002DE9F04F80
:101120005F4C91B023680E4633B92C20FFF7A4F82A
:10113000054608F02FF925602768FFF7A1F90DF1A2
:10114000400B00244BF80C4D00F2352059460CAAF8
:1011500005F034FD48B90C9A0D9C95699378023DD1
:101160005C435D4364086D0800E025464D4B1A68FA
:1011700098467AB90C20FFF77FF88146FFF7F2FE18
:10118000902389F804300023C9F80000C9F808301A
:10119000C8F80090D8F8000003F042F980460BF040
:1011A000DBFB82460BF0BEF9014640460BF004F92A
:1011B0003D490BF00BFA0BF0CFFB8146584609F086
:1011C000A1FF04F07BF850B308F086F804F060F853
:1011D0000023024698469B4693420DD018460B9238
:1011E0000A9304F0B9F80A9B584588BF98460B9AB1
:1011F00088BF83460133EFE708F086F8642303FBDA
:101200000BF32A4A3046B3FBF2F3C3F164038DE8D3
:101210000809274922462B4608F090F905E0304698
:10122000244922462B4608F089F9234C23681BB930
:101230000120FFF721F82060206803F0B6F804468B
:1012400007F0D0FF9DF83930019003F00F030293AF
:101250009DF83830009403F01F030393BDF83A3033
:101260003046C3F30B0304939DF83630134903F063
:101270001F0305939DF83530524603F03F03069354
:101280009DF8343003F03F030793BB8C0893FB8C2D
:1012900009934B4608F052F9012011B0BDE8F08FD8
:1012A000E8C10720DCC1072000002041A086010022
:1012B000013E0200353E0200E0C10720433E02002D
:1012C00070B5ADF50A7D05460C4606F0BBFF0B2850
:1012D00003DD204623490C223DE0284607F045F96E
:1012E0000122014601A805F0CDF8064668BB01A819
:1012F00005F039FB284607F038F91B490246049BE4
:10130000204608F01BF9236820469B6898470A206E
:1013100009F0AAFA4FF0100383F31188BFF36F8F1F
:10132000BFF34F8F284607F020F902460F4B0068A5
:10133000516803C390680E4A186043F80C2C4FF0B4
:101340008043AA221A721E7007E0284607F00DF9A2
:1013500002462046074908F0F1F801200DF50A7D04
:1013600070BD00BFC03E0200E73E020048400240A0
:101370000DD0ADDE2E3F0200F0B5404CA5B0236885
:101380000646DB070D460CD420460AF0D9FA40B1D8
:101390004FF480600CF00EF8394B186020460AF0CC
:1013A000DBFA3046374907F005F80746044610B324
:1013B0000021802204A80CF051F80023029303932B
:1013C00003AB0093304904AA02AB304606F043FF5A
:1013D0002B4A029B116804A8039A13B903F0D2F8B0
:1013E00001E003F0F2F80346284A29492846002B79
:1013F00018BF114637E03046264906F0DBFF0746A6
:10140000002838D0304604AB234903AA039404943F
:101410008DF8084006F01FFF039E049B3344B3F58C
:10142000806F0DDD28461D494FF4806221E0144B8A
:101430009DF808201B689A559DF8083001361C4419
:10144000039B049AF31A934210DAB6F5806F0DDA13
:101450002B6828461B6802A94FF4FA6298470028B7
:10146000E5D128460E4908F069F804E028462246EE
:101470000C4908F063F8384625B0F0BDF8C10720E4
:10148000F4C10720593F0200603F0200473F0200BD
:10149000433F0200703F0200773F0200813F02009D
:1014A000A53F0200B53F020030B50C46054687B0A7
:1014B0000A4908F043F8A17A62880091E17A23880A
:1014C0000191E1882846029121890391A188049124
:1014D000034908F033F807B030BD00BFC63F020033
:1014E000FC3F02001FB501A80C4602F057FA01F0BC
:1014F00041FF01A902462046FFF7D6FF012004B0B4
:1015000010BD00002DE9F0418CB003AB0024009326
:101510000E4615463A49022202AB0294039406F0A5
:10152000A8FEA04239DD02980BF039FD5FFA80F881
:10153000039818B10DF057FCC4B200E0044604A8AB
:10154000002102F0B3FD30B130462E494FF0FF329A
:1015500007F0BEFFF3E7003518BF01250223009313
:1015600040462946039A234602F03AF8074638B91E
:10157000304625494FF0FF3207F0AAFF01273BE034
:10158000002D39D004A84FF47A7102F099FD70B3A0
:101590009DF8103043452AD101E027462CE09DF804
:1015A00017300C2B04D1304606A94246FFF77CFFCA
:1015B0003046B4B9154907F0C1FF9DF817309C4279
:1015C0000ADA336804AA2244117A5B6830464FF085
:1015D000FF3298470134F0E730460D4907F0AEFF7F
:1015E0000AE00C494FF0FF3207F072FF04E030468A
:1015F0000949029A07F0A2FF38460CB0BDE8F08115
:10160000BA4902001A4002003C4002006440020055
:10161000AF460200784002009540020038B50D4602
:1016200006F0A5FF0446C0B201F098FE054A064B3D
:101630000649002808BF13462846224607F07EFFC9
:10164000012038BDBB4002000D3C0200C240020038
:1016500037B50C4602F006F805461649204607F055
:101660006DFF154920462A4607F068FF20461149BC
:1016700007F064FFD5B11149204607F05FFF20460F
:101680000C4907F05BFF0025E8B201F0D5FF0135FA
:1016900040B181780278437800912046084907F0EC
:1016A0004DFFF1E72046034907F048FF012003B052
:1016B00030BD00BFD9400200F44002000E410200DC
:1016C0002941020030B58BB00AAA4FF47A730C4658
:1016D00042F8243D174906F0BEFD002502A80199F5
:1016E00002F0E4FCD8B1204613499DF8082007F029
:1016F00025FF00259DF80F309D420ADA236802AAD3
:101700002A44117A5B6820464FF0FF329847013532
:10171000F0E72046094907F011FF0125DEE72DB962
:10172000204607494FF0FF3207F0D2FE01200BB0F0
:1017300030BD00BF7E3F0200444102002C3F02004A
:101740005B4102002DE9F3473C4C07462668894679
:10175000002E62D12420FEF78FFD0423054680E889
:1017600048008660C660202130460DF0CBF8AE6898
:10177000E8604FEA8608072E0ED81020FEF77CFDA1
:101780008246002110220BF069FEEB68013643F817
:1017900008A008F10408EEE7002608234FF001082E
:1017A0006B6085F8208028462549264A264B0096FE
:1017B000256005F08DFE20682449254A254B0096BA
:1017C00005F086FE20682449244A254B009605F042
:1017D0007FFE20682349244A244B009605F078FEBA
:1017E00020682349234A244B009605F071FE2068A7
:1017F0002249234A234BCDF8008005F069FE20687A
:101800001E49214A214B009605F062FE0096206891
:101810001F49204A204B05F05BFE38461F4906F061
:10182000A2FE18B138461E4906F057FF39464A460F
:10183000206802B0BDE8F04705F02CBF00C20720C9
:10184000F11A01006C41020073410200C518010049
:10185000AD410200B6410200C51601000A42020075
:101860000D4202001D1601008F47020030420200A7
:1018700051160100764202005A420200051501008D
:10188000BF4202007D420200BE420200C34202008B
:10189000E514010003430200E84202002D3F02006C
:1018A0000943020038B5064C236833B95820FEF7C7
:1018B000E3FC054607F0B2FB2560206838BD00BF99
:1018C000FCC107202DE9F04F0446ADF2DC5D80221B
:1018D0000DF1B40988460DA800210BF0BFFD0021D1
:1018E000802248460BF0BAFD06AE00233360204646
:1018F000009675490DAA4B4606F0ADFC032801D0B1
:101900000020DDE0EDA80DA9012204F0BBFD054695
:101910000028F5D1FFF7C6FF33684DA980F8533092
:101920008022044608A88DF81750079506F062FC3F
:10193000CDF80090404665490DAA336807F0FEFDDA
:101940002F46EDA86DA94FF4007207AB04F033FEEB
:1019500038B1EDA805F007F808A806F061FC0120F1
:10196000AEE0079B002BF4D06E1C5949079A204625
:1019700007F0E4FD236820469B6898476DAB9B46C3
:10198000751E4FF0000A0799C3EB0B028A422268CA
:101990000FD20393CDF808B0D2F804C020464FF020
:1019A000FF321BF8011BE047029B1A78039B92440D
:1019B000E9E793682046984708A806F0D6FD8346D5
:1019C00008A806F042FC4FF47A73024659462046B6
:1019D00007F08CFD0121202208A806F072FD08A85E
:1019E00006F0C5FD504520D008A806F0C0FD3949D5
:1019F00003465246404607F0A1FD2046364907F00F
:101A00009DFD236820469B689847236820461B68F5
:101A10000DF117014FF47A7298470028F5D1022E84
:101A200006F1010395D81E469FE7079B2B494A46BE
:101A3000009320463B4607F081FD236820469B68C3
:101A4000984708A806F091FD824608A806F0FDFB1D
:101A5000514602464FF47A73204607F047FD08A826
:101A60001F4906F07EFCD0B908A806F07EFD1D498E
:101A70000246404607F062FD2046174907F05EFD2A
:101A8000236820469B689847236820461B680DF111
:101A900017014FF47A7298470028F5D1BFE708A8DC
:101AA000114906F01AFE079B40461F440F493A466B
:101AB000F09B07F043FD002D3FF443AF013D40E7AD
:101AC0000DF2DC5DBDE8F08F0E4302001D43020005
:101AD00034430200464302002C3F02006D430200E3
:101AE00083430200864302002D3F0200BE430200F2
:101AF0002DE9F041074686B006AA002442F80C4DB5
:101B00000E463C4906F0A7FB38460121202206F08C
:101B1000D8FC039B002B63D0384606F093FB0028CB
:101B20005ED0FFF7BFFE05468DF80B402B682846B8
:101B30001B680DF10B010522984704460028F5D1DA
:101B4000039B384685F8533006F00FFD27460146C3
:101B50004FF0FF32284607F0BBFC2B6828469B68F5
:101B60009847254B0594186804902B6828461B68F5
:101B70000DF10B014FF47A72984778B10DF1150110
:101B8000032205A80BF04FFC9DF80B8005A804A9C3
:101B900004228DF817800BF02BFC38B91822B7FB04
:101BA000F2F302FB137262B101330AE0336830468C
:101BB0005B6841460122013798470028D5D101349E
:101BC000D3E730460D493A4607F0B8FC74B16123BB
:101BD000009330460A4922460A4B07F0AFFC05E065
:101BE000304609494FF0FF3207F072FC012006B081
:101BF000BDE8F0817E3F0200C23F0200CA430200FE
:101C0000F1430200AA440200E644020001480CF03D
:101C10000FBE00BF1245020038B504460D4609F05C
:101C200077FD074BB0FBF3F00223B0FBF3F29542D4
:101C300001D3236138BDB3F5807FFAD00233F4E7D6
:101C400040420F007FB500F235260C460122314696
:101C500004F0DAFB054650BB04A941F8040D02AAC2
:101C6000304604F0ABFF00BB029A039B9078926968
:101C700003FB00F1023A42435208B2F5004F10480C
:101C800034BF01254FF480654FEA51010D4BB1FB84
:101C9000F5F128BF0346B2FBF5F28DE80A000A48C9
:101CA00021460CF04FFD012008E0084B00E0084BF6
:101CB000084821462A460CF045FD002004B070BDBE
:101CC000504502004D4502005A45020053450200AE
:101CD000574502008845020038B5074C23684BB9C8
:101CE0000820FEF7C9FA0546FFF73CF940232860B3
:101CF0002B712560206838BD0CC2072038B5054C13
:101D0000256825B90120FEF7B7FA05702060206824
:101D100038BD00BF08C2072038B5084C23685BB93E
:101D20000C20FEF7A9FA0546FFF71CF990232B714A
:101D300000232860AB602560206838BDDCC1072027
:101D400010B5044C23681BB90120FEF795FA2060FA
:101D5000206810BDE0C1072010B5044C23681BB9F2
:101D60000120FEF789FA2060206810BD04C2072018
:101D7000AD49AE4A4023F0B58B614FF000739361DB
:101D80004FF480338B61AA4BADF5057D18680725AC
:101D900020F0F00018601868022440F0500018602D
:101DA000186820F440501860086840F0400008604F
:101DB000186820F47C201860186840F42820186007
:101DC000186820F470001860186840F4200018604B
:101DD000186820F040401860186840F00040186013
:101DE000586820F03C005860586840F0280058605F
:101DF000586820F003005860086840F4803008609C
:101E0000586820F440505860086820F4800008604A
:101E1000D96821F44031D960116841F080711160B6
:101E2000596821F440215960596841F48021596072
:101E30009868804901409960116841F4897141F0C6
:101E400001011160996821F470119960996821F07D
:101E500070419960116821F446411160D96821F000
:101E60003001D960D96841F03001D960D96821F4D6
:101E70007011D960136843F000731360136823F086
:101E80008063136006F086FC0A20012109F060FAE5
:101E90000A20012109F074FA6748012105604460B5
:101EA000FFF7BAFE07F0A8F91520012109F050FA52
:101EB0001520012109F064FA6048012105604460A1
:101EC000FFF7AAFEFFF74EF8642106F0FFFE10B9F7
:101ED0005B480CF0ADFC09F079FA02F0C1F810B9DA
:101EE00058480CF0A5FC4FF4FA6006F00DFCFFF723
:101EF0008DFE09F00DFC0AF011FB53490AF01AFCA3
:101F00000AF092F902460B4650480CF01BFC09F00F
:101F1000F3F8052804AC14D1002363604C4B1B6814
:101F20002360FFF773FE4B4B4B48D96C1A6D5B6D0A
:101F300000940CF007FCFFF769FE41F2883006F0D0
:101F4000E3FBFEF79DFA4549FFF77CFE054668BBBB
:101F500043480CF0F7FB03F029FAFEF791FA294603
:101F60002A4600F2352005F025F83E4B3E4A00286F
:101F70000CBF104618460CF05BFCFEF781FA37499F
:101F8000FFF760FE90B939480CF052FC03F090F96D
:101F9000014637480CF0D6FB03F07AF9054603F00A
:101FA00087F905FB00F133480CF0CCFB324E334F80
:101FB000336813F0010516D1304609F0C1FC90B129
:101FC0004FF40E70FEF758F9012380F834323123B4
:101FD00080F835323A2380F8363280F8375238604C
:101FE000304609F0B9FC26493868264DFFF72AFE2D
:101FF00011481821FFF710FEFFF708FE2B684BB9B8
:102000000820FEF739F90646FEF7ACFF38233060AA
:1020100033712E60286802F0A2F80546B0BB1A485A
:102020000CF006FC33E000BF00C0092020C00920EE
:1020300000C00240F0FCFCFF0000034000800840AC
:10204000CC450200FD4502000024744922460200EE
:1020500044400240004002403A460200B2460200BC
:10206000BA460200C0450200BB450200F746020026
:102070001647020025470200ECC10720D4C1072003
:102080003C3C020014C20720404702000125FFF734
:1020900043FE02F09BF9064618B972480CF0C8FBE3
:1020A0003546FFF719FE02F0DBF8064618B96E4810
:1020B0000CF0BEFB35466D4E33681BB90120FEF7B0
:1020C000DBF83060306802F099F8FFF739FE02F073
:1020D0006AF9FFF713FE02F0FDF8FFF73DFE02F08C
:1020E00067F9FFF70BFE002102F0F6F88DB9FFF754
:1020F0008DFDFFF7F1FD2D2102F09AF8FFF7ECFDC1
:102100002D2102F0A1F8FFF7F9FDFF2102F0E4F81C
:102110000CE0FFF7E1FD0546FFF7FEFD02F080F958
:102120000AF040FCC1B2284602F0B6F800211022A5
:1021300020460BF093F94E4821460F22002302F06F
:10214000FEF980B920460AF02AFFC5B2284601F000
:1021500005F9484A484B2946002808BF1346474816
:10216000434A0CF0EFFAFFF7EBFD02F01EF90546CB
:1021700000200DF0DDFD28440CF062FB4FF40072EE
:10218000002120460BF06AF9204609F05DF921464E
:102190003B480CF0D7FAFFF739FD8022002120469A
:1021A0000BF05CF9204603F05FF82278FF2A04D098
:1021B000214634480CF0C6FA29E0FFF7CDFD02F0C5
:1021C000F9F809281DD130480CF032FB21462F4880
:1021D0000CF06AFC21462E480CF0B4FA2D480CF0A5
:1021E00027FB00232C4803A903930CF05DFC9DF80A
:1021F0000C30592B03D1204603F014F807E0274890
:1022000003E027480CF014FB26480CF011FB4FF2BA
:1022100008031C684FF20C031D684FF210031E6880
:102220004FF2040319684FF470431A68A40AAD0A08
:102230001D480CF087FA224629461C480CF082FA09
:1022400031461B480CF07EFAFFF7E0FC012005F058
:10225000F9FB18480CF0ECFAFFF7D8FC0DF5057DFA
:10226000F0BD00BF5B4702007547020010C20720A7
:102270008E470200BB400200C645020094470200A0
:10228000AA570200C8470200E447020006480200BD
:102290000B48020026480200694802006D4802000F
:1022A00085480200B3480200E548020011490200D7
:1022B0003E4902005B49020001207047012070473F
:1022C0000120704710B5044C23681BB90120FDF7AD
:1022D000D3FF2060206810BD10C207200120704786
:1022E000F8B504460E46C06889000CF00BFBA568E3
:1022F000E060AF00B5420BD20C20FDF7BDFF00231C
:10230000036043600372E3680135D8510437F1E795
:102310006660F8BD38B504460F4B00250360636D59
:10232000E06D9D4205D250F82500FDF7A7FF01356D
:10233000F5E708B1FDF7A4FF0025A36B206C9D42D3
:1023400005D250F82500FDF799FF0135F5E708B1F2
:10235000FDF796FF204638BD9849020010B50446A7
:10236000FFF7D8FF2046FDF789FF204610BD00008B
:10237000F7B5044600250B464FF4805200952549D9
:1023800005F012FF244B042623606663A563E56312
:10239000256404F134000221FFF7A2FF266565657C
:1023A000A565E565284660210CF0ACFAA56DE065F1
:1023B000AE00172D0CD81020FDF75EFF0746002158
:1023C00010220BF04BF8E36D01359F510436F0E716
:1023D00018236365012384F87030104E0023A4F89D
:1023E0007430A4F87630A367002200230027C4E9E4
:1023F0002023C4E9226709F013F84FF47A7200230E
:102400000AF0F0FA80197941C4E92001204603B0AE
:10241000F0BD00BFB049020098490200C0D40100DD
:102420002DE9F04191E860000F7A14468FB1082A37
:1024300023D1304605F006FF00281CDD284614494C
:102440004FF0FF3207F030F83046012105F0F9FF78
:1024500008E00A2A19D00D2A12D03046214606F08B
:1024600011F997B12B6828462146BDE8F0415B6819
:102470004FF0FF3218470724F4E70A2A02D1F1E7A8
:10248000BDE8F0810D2AE8D1ECE7BDE8F08100BF9E
:10249000B9490200F8B50446142015460F46FDF769
:1024A000EBFE8021064606F09DF8A36BE26B9A4294
:1024B00006D3616B591803D204F13400FFF710FF03
:1024C000E36B226C591C52F82330E1631F605E609D
:1024D0001D72F8BD2DE9F043CF6B85B006460D4661
:1024E00001AC4FB94FF47A7008F0BEF92046394676
:1024F0000C220AF0B3FF47E00B6C1B6893E807005F
:1025000084E8070000238DF8033008F087F8804640
:102510000027EB6B9F4263D22B6C4FEA870953F87D
:1025200027301868037C33B103680DF103011B6881
:102530000022984708B90137EBE7EB6B9F422BD29B
:102540002B6C53F8093093E8070084E807009DF8E6
:10255000032028462146FFF763FF08F061FF4FF490
:102560007A7200230AF03EFAD5E9222380185941F5
:10257000C5E92001029805F065FE0746029805F0BE
:1025800064FE013887420ADB94E8070086E807000A
:10259000304605B0BDE8F08305F14403D3E7D5E943
:1025A0002223134324D008F03BFF4FF47A72002318
:1025B0000AF018FAD5E92023994208BF904217D3B0
:1025C00008F02EFF4FF47A7200230AF00BFAD5E9D7
:1025D0002223801859410023C5E920010193D3E744
:1025E00008F01CF84045C5D1022008F03DF9C1E7CC
:1025F0009DF803300A2B88D1C6E70000F0B50646E7
:1026000085B020480CF09EF801A83146FFF762FF24
:10261000019C1CB91C480CF00BF930E0029F3846B5
:1026200005F010FE00282ADD08F0FAFE0546F8B194
:10263000B6F8743006F150000133A6F8743039460C
:10264000224605F027F8114B0026186800902368F1
:102650001DF806105B6820464FF0FF3201369847A0
:10266000042EF4D108F0DCFE411B09480CF06AF896
:10267000384605F0ECFD236820469B68984701200A
:1026800005B0F0BDBC4902002D3F0200894902009F
:10269000C249020038B5064C236833B92C20FDF737
:1026A000EBFD054606F076FE2560206838BD00BFCC
:1026B000E8C1072010B50446FFF7ECFF0368214688
:1026C000BDE810405B684FF0FF32184713B5002398
:1026D00002AC04F8013DFFF7DDFF036821461B68EB
:1026E0004FF0FF3298479DF8070002B010BD000080
:1026F0002DE9F04100F150048AB00025074600950D
:1027000020465B495B4A5C4B04F0E2FE00952046A4
:102710005A495B4A5B4B04F0DBFE009520465A4960
:102720005A4A5B4B04F0D4FE0095204659495A4A58
:102730005A4B04F0CDFE009520465949594A5A4B50
:1027400004F0C6FE009520465849594A594B04F0FA
:10275000BFFE009520465849584A594B04F0B8FE30
:10276000009520465749584A584B04F0B1FE009551
:1027700020465749574A584B04F0AAFE0095204678
:102780005649574A574B04F0A3FE00952046564938
:10279000564A574B04F09CFE009520465549564A30
:1027A000564B04F095FE009520465549554A564B28
:1027B00004F08EFE009520465449554A554B04F0CE
:1027C00087FE009520465449544A554B04F080FE3C
:1027D000009520465349544A544B04F079FE009525
:1027E00020465349534A544B04F072FE009520464C
:1027F0005249534A534B04F06BFE00952046524910
:10280000524A534B04F064FE009520465149524A07
:10281000524B04F05DFEFFF73DFF4FF480734FF421
:1028200016412022054606F095FD804601262E74AD
:102830004B48FDF789FD4B48FDF780FD384629469A
:102840003246FFF727FE03A9082205A805F0D2FCAF
:1028500005A8454905F041FF05A92A46204604F090
:1028600019FF05A805F0DCFC40460AB0BDE8F08180
:1028700011050100224A0200D8490200FD050100AD
:102880000F4A0200174A02001D110100354A0200DA
:10289000274A0200210601007D4A02003C4A02004C
:1028A000F5080100824A0200864A0200750801000C
:1028B000254B0200E24A0200050D0100244B0200F4
:1028C000284B0200010A0100734B0200764B020004
:1028D000810B0100A44B0200AA4B0200F90B01007E
:1028E000CF4B0200D24B0200550C0100996302004D
:1028F000FF4B0200BD0B0100244C0200274C0200DC
:10290000850F01004A4C02004E4C0200450E0100AA
:10291000214D0200294D0200010F01006C4D020003
:10292000734D0200E5060100864D02008A4D02004B
:10293000310F0100894E02008F4E02004517010041
:1029400019460200B74E020079130100D54F02006C
:10295000E14E0200C11201007F3C02009E4F0200C6
:10296000CD260100B5260100094302000120704771
:102970007047704713B51422002413466421009455
:102980000194204605F0FCFF06F010F9204606F001
:1029900001F9FFF7A1F9214601F07EFC012002B008
:1029A00010BD00002DE9F0419F4D296811F0010490
:1029B00010D1284608F0C4FF60B1214664229B482C
:1029C00006F0D6F9284608F0C7FF98489849994A72
:1029D000FDF7B0FC984C2368DE0736D4204608F09B
:1029E000AFFF002831D001216422944806F0C0F9DD
:1029F000204608F0B1FF8E498E4A9048FDF79AFCB8
:102A000023E0A678D2F8048006F00F06012E09D143
:102A1000B8F1640F01BF227A1A705A686FF35F022F
:102A200008BF5A601D78864FD5B98649834806F09D
:102A3000F9F985497D4806F0F5F93D70FFF75EF933
:102A4000012101F077FC3B7873BB804C00200246EB
:102A5000214606F05BF87E4B22460028D1D18AE061
:102A6000012D18D1FFF74AF9294601F076FC032E13
:102A70003D70E8D1B8F1970FE5D1227A754B02F09D
:102A80007F021A70627A5A70A27A9A705A686FF34B
:102A90005F025A60D7E76B49684806F0C3F96A4994
:102AA000624806F0BFF9CEE76A4E6B4DB4789CB130
:102AB000012C25D1FFF722F9032101F03BFCFFF7A0
:102AC0000BF9002101F0E8FB5F4958482C7006F033
:102AD000A9F95A48614915E0FFF710F9032101F0FF
:102AE0003CFC584955482C7006F09CF956494F4813
:102AF00006F098F9FFF7F0F8082101F0CDFB03E0AC
:102B00004E48504906F08EF92B78002B9DD07378F3
:102B1000042B27D8DFE803F0030B131B2300FFF778
:102B2000EDF8022101F006FC40484D4920E0FFF796
:102B3000E5F8022101F0FEFB3C484A4918E0FFF7A6
:102B4000DDF8022101F009FC3848474910E0FFF7A1
:102B5000D5F8022101F001FC3448444908E0374827
:102B60003E4905E03849314806F05CF933483549BB
:102B700006F058F969E75C681979C4F35E02B2F5AA
:102B80007A7F34BF0020012060F30001CD07197166
:102B900005D459680A3262F35F0159601AE014F0F3
:102BA000010417D122464FF47A7161F35F025A6033
:102BB0002F4D02F0D10242F001021C601A71FFF7A2
:102BC0008BF8297801F068FB2B680133632B18BF61
:102BD0001C462C601F4A53681079C3F35E01B1F59F
:102BE0007A7F34BF0024012464F300001071C00711
:102BF00006D453680A3161F35F035360BDE8F08186
:102C000013F001030ED14FF47A71136061F35F0387
:102C1000536003F0D10343F001031371144A1368A6
:102C200001331360BDE8F08118C207201CC20720E1
:102C3000F58D0100CCC1072034C207204AC207200D
:102C400039C2072000007041EC5160413AC20720B0
:102C50002CC2072024C2072038C207209A99794144
:102C6000000020411F8543410000A041B81E7D4166
:102C700020C2072008B5FFF741F8BDE8084004214D
:102C800001F07EBB7047000010B50024074B002107
:102C900018684FF0FF320B4607F018FA20B10134E4
:102CA0002046FFF765FEF1E710BD00BF50C20720C8
:102CB00010B50024074B002158684FF0FF320B4637
:102CC00007F004FA20B101342046FFF76BFEF1E76C
:102CD00010BD00BF50C2072010B50024074B0021D3
:102CE00098684FF0FF320B4607F0F0F920B101343D
:102CF0002046FFF73EFEF1E710BD00BF50C207209F
:102D000010B50024074B0021D8684FF0FF320B4666
:102D100007F0DCF920B101342046FFF7ABFFF1E703
:102D200010BD00BF50C20720FFF724BEFFF71EBE34
:102D300010B50446FDF7A2FA204610BD73B50E4645
:102D400005462E4B00241A682D490D23009405F0EA
:102D50002BFA2C4BA6422B6014BF01230A23EB61F4
:102D600085F83160214603222C62012007F084F8A7
:102D7000254E214630600322012007F07DF82146D0
:102D800070600322012007F077F895F83130B060C9
:102D90002BB101202146032207F06EF8F0601B4B97
:102DA00000241E680523C6F38F068DE81800184915
:102DB00032462346174807F0EBFA06238DE8180041
:102DC000154932462346154807F0E2FA07238DE8F5
:102DD0001800134823461349324607F0D9FA95F8EC
:102DE000313043B108238DE818000F480F493246AF
:102DF000234607F0CDFA284602B070BDF84F020016
:102E000010500200B850020050C20720FC4F0200D0
:102E10001B500200892C01001F500200B12C010040
:102E2000D92C010024500200012D01002A5002007B
:102E300070B50D461A4B002453F8216019494B5DBB
:102E40000133DBB2934202D04B55204670BD4C5546
:102E5000304621462246234607F038F90146B8B1EC
:102E6000114B53F8255028460BF0E2FC28460BF096
:102E7000BAFF2346024629460C4801F0A6FB0C4A3D
:102E80000C4B9A644FF08043AA221A721C7004E023
:102E900030460A460B4607F015F8012070BD00BF0A
:102EA00050C207204BC207200050020031500200E0
:102EB000EFBEADDE0040024010B590F83130044660
:102EC000B3B103210122FFF7B3FFA0B120460221D5
:102ED0000A22FFF7ADFF70B1204601210A22FFF759
:102EE000A7FF40B1204600210A22FFF7A1FF02E020
:102EF00002210122EDE7012010BD704708B501F065
:102F0000E9F8012008BD10B50446FDF7B7F92046E1
:102F100010BD000037B59020FDF7AEF9044603213F
:102F2000FFF726FA204605F011F93420FDF7A4F941
:102F3000054600244FF400720D490094042305F067
:102F400033F90C4B28462B6005F000F93420FDF7CF
:102F500093F905462146FFF7F1FE284605F0F6F8FD
:102F60002046214605F000F94FF0FF3003B030BD98
:102F700019460200F8500200242310B503FB01019A
:102F800088420BD043783BB1038CD4184FF6FF73C3
:102F9000A34228BF234603842430F1E710BD00007C
:102FA00037B5002302A840F8043D0C4B04215B68B0
:102FB00098470B4B019A1C680546141B1A60094878
:102FC00022460421FFF7D8FF074802212246FFF7D7
:102FD000D3FF281C18BF012003B030BD60C20720FA
:102FE0002CC3072074C207204FC3072008B50B4B22
:102FF000197803788B420A4B0BBF1A889A880132E2
:10300000013214BF9A801A80064B8170DB68202140
:103010009847003018BF012008BD00BF05C0072039
:103020001CC3072060C207200A4B02781B789A4213
:10303000094B0BBFDA881A89013201320CBFDA80E2
:103040001A810379C3F3C202073262F3C503037125
:10305000FFF7CCBF05C007201CC3072010B5002315
:1030600006499A0011F82340844201D1881810BD06
:103070000133042BF4D1002010BD00BF3DC3072055
:1030800070B1C3780133DBB2FF2BC37008D10023CA
:10309000044A1A44D17804334908102BD170F7D16F
:1030A000704700BF3DC30720242202FB01010346F5
:1030B000024630B58A4206D01446243212F8235C08
:1030C000002DF7D10FE0044600258B420BD01A7972
:1030D000C2F3C2001A8C42EA004295423CBF1C4631
:1030E00015462433F1E7204630BD000038B50546CB
:1030F000C90001F10804FFF753FF1C4B1A782B7825
:103100009A4204D102211A48FFF7CEFF0CE0194879
:103110000421FFF7C9FFEB7833B990F8233004247A
:1031200043F0800380F82330002380F8203080F8BB
:10313000213002462B4690F8231080F8224021F0DF
:103140007F01C4F306240C4380F8234005F12001DD
:1031500053F8044B8B4242F8044BF9D1064A0379E9
:10316000127862F3C503037138BD00BF05C00720A4
:103170004FC3072074C2072004C0072010B5FFF713
:103180006DFF0446F8B9FFF769FF0446D8B90F4B45
:10319000DA79D9788A4228BF0A46D97A34BF1C1D09
:1031A0001C4691422CBF1146094CDA7B094B8A42DE
:1031B00038BF1C460422204600210AF04FF9064A77
:1031C000D37A0133D372204610BD00BF3DC3072020
:1031D00045C3072049C307201CC307202DE9F04140
:1031E00005460C464FF0240808FB02188E1D444586
:1031F00000F09E8094F823301A0625D5BDB12A78B8
:1032000061788A4205D16F7816F8060C874200F083
:103210009180E87858B16878884208D116F8061C81
:10322000914204D1A979A279914200F0838094F867
:103230002220218C03F07F0342EA0323994274DBAE
:103240002046FFF7D3FE75E06278002A6DD06DB39B
:10325000297901F0C001C02917D116F8060C697848
:10326000884202D12878904264D0E778A8788742D3
:103270000CD191420AD116F8060C2978884205D162
:10328000A079A979884201D154E079B1A878E17890
:1032900088420BD16978914208D116F8060C29783A
:1032A000884203D1A079A979884249D094F82210A4
:1032B000208C03F07F0341EA0323984235DB00238F
:1032C00084F8203084F821302379C3F3C201CFB2CF
:1032D0001FB12046FFF7A8FE27E003F0C003C02B74
:1032E00019D01C4B16F8060C1B78984213D1E378C2
:1032F000934210D07BB16379032262F307136371A9
:10330000E1702046FFF790FE134A2379127862F3AA
:10331000C503237100E001276078FFF79FFE18B115
:10332000002104220AF09AF827B9243424365EE7F3
:10333000BDE8F0812046002124220AF08FF8F4E74E
:103340002279002363F3C50284F8203084F8213009
:103350002271EAE705C0072004C00720431EDBB244
:10336000FD2B9DBF024B187001200020704700BF4D
:1033700005C00720014B1878704700BF05C0072023
:1033800007289CBF014B1870704700BF04C007207E
:103390002DE9F743044691461E469DF828500F46F6
:1033A000002963D0354B93F80080414560D00F2E43
:1033B0005ED800285ED0202200210AF04FF8FF2FAF
:1033C000237914BF09F00302002262F3871303225A
:1033D00062F302032A4A6770127884F8008062F36D
:1033E000C503284A2371137884F802800133DBB2C5
:1033F0001370A3710BAB019315B94FF0010818E0DE
:10340000019AE0791346526853F8081B00EB020852
:103410005FFA88F8013DB8F1180F0193EDB206D8B4
:103420000830204409F0F4FF84F80780E4E74FF007
:103430000008DFF854900123384689F80030FFF780
:103440000DFE0546FFF71CFE002389F80030637966
:1034500025B966F307136371E57005E0AA7862F396
:10346000071363716B78E370404603E0084601E0A0
:103470000020FFE703B0BDE8F08300BF05C00720D0
:1034800004C007204DC3072028C30720124B012288
:1034900070B51A7004461E4608B9002518E0FFF7FB
:1034A000A5FD05460028F8D0237903F0C003402B82
:1034B00006D0C02B0AD1E37853B162789A4207D084
:1034C000617920460909FFF711FE01E0802BF7D052
:1034D00000233370284670BD28C3072082B0F0B5A2
:1034E0001746421ED2B28DB0FD2A04460D461393F4
:1034F00001D900205AE0002BFBD0159B002BF8D0FF
:10350000179B002BF5D0169B002BF2D0149B002BA1
:10351000EFD000214822284809F0A0FF0021902286
:10352000264809F09BFF00211022254809F096FF4C
:1035300000210C22234809F091FF00210C2222488F
:1035400009F08CFF214E224B1C703446214B1D701C
:1035500013AD0FCD0FC42B68002118221E48236025
:1035600009F07CFF39461C4817220BF080FC002034
:10357000B368014698470028BBD09DF8603013B966
:10358000FFF70EFD12E0154A012301920622029276
:10359000009304A8FF210022FFF7FAFE0028A8D01C
:1035A00004A8FFF773FF0028A3D0E9E70DB0BDE83A
:1035B000F04002B0704700BF4FC3072074C207201D
:1035C0003DC3072031C307201CC3072060C207206A
:1035D00005C0072030C3072004C307201051020094
:1035E00030B5182B8DB005460C4615D8B2FA82F1CD
:1035F000181C18BF0120490981420DD08DE80D002B
:10360000294604A822469DF84030FFF7C1FE18B1B4
:1036100004A8FFF73BFF00E000200DB030BD13B55C
:103620000446107852790B46120900920321224673
:10363000FFF7D6FF02B010BD00231A4630B5084C84
:10364000990014F823502DB1904201D1601830BD7B
:103650000132D2B20133042BF1D1002030BD00BFC2
:103660003DC3072000231846044A12F823200AB15C
:103670000130C0B20133042BF6D170473DC307209F
:103680002DE9F04188B068460021202209F0E6FECD
:10369000A14B1B7803F0FF04002B40F03A819F4EB2
:1036A0006846336920219847002800F083809C4DAC
:1036B0006B8801336B80FFF7D5FF9DF80420A8725B
:1036C00002F00703032B04D0964A137843F001035A
:1036D00009E0954B1D789DF80230AB4205D1914A27
:1036E000137843F002031370E3E0C2F3C2029DF8C3
:1036F00000E09DF80600D7B28C4904EB440313F8B0
:1037000001C0F4450AD10B445978814206D1997819
:103710000124CF1B18BF01279A7018E00134042C34
:10372000EAD183490B689A70804A587002F1090007
:10373000834283F800E040F0C9800A609DF80000F1
:103740009DF80230834240F0C480002427469DF853
:103750000200FFF713FD9DF8022002709DF8022081
:10376000427000228270FFF78BFC04B117B39DF802
:103770000030AB4200F09C809DF80170FF2F1BD100
:10378000336868462021984720B9664A137843F089
:10379000040313709DF8053003F00F02511C61F310
:1037A00003038DF80530C3F303139A4202DA684627
:1037B000FFF71CFC00247CE0BD422BD164B99DF8CE
:1037C00007304BB1336868462021984720B9554AE5
:1037D000137843F0040313709DF8043003F0C00322
:1037E000402B12D19DF8073013B95248182108E038
:1037F0004B480C216A46FFF712FF002858D10020E1
:1038000001466A46FFF70BFF52E09DF80330002B9C
:103810004ED1F4E7484B1B78002BCBD09DF80540E8
:1038200004F00F064FEA14184645C3DA013666F372
:1038300003043846FFF712FC8DF805409DF803405D
:10384000A5421ED19DF8041001F0C001402906D008
:10385000A1F180035A425A41144618B91BE00122D3
:10386000002854D0C029437805D19F4203D00033AB
:1038700018BF012300E00023134303F0010428B91B
:103880000BE0ACB910B9684641460FE043788DF8BB
:103890000330857804E0C02939D000258DF8035025
:1038A0006846FFF7A3FB1CB168462946FFF71EFCDC
:1038B0006C46FFF775FB204620490422FFF78EFC7B
:1038C00020461F490222FFF789FC22E003330B60E8
:1038D00034E785423FF439AFFFF750FC0446FFF769
:1038E000CFFB23783BB19DF80530A27803F00F039E
:1038F00093423FF72AAF9DF8003023709DF80230C5
:1039000063709DF80530C3F30303A3701DE70346FE
:10391000B2E708B0BDE8F08128C3072060C20720E5
:103920001CC307204EC3072005C0072031C3072052
:1039300000C0072004C3072030C3072074C207203B
:103940004FC3072000231846094A1A4452780AB187
:103950000130C0B22433902BF6D1064B5A780AB10D
:103960000130C0B293F825300BB10130C0B27047BE
:1039700074C207204FC3072008B5FFF76FFB064B43
:1039800028B18278187802FB0000C00008BD1878C2
:103990001823584308BD00BF04C0072003490B6823
:1039A00003604B6843608B68836070471CC30720CB
:1039B00030B5414C4FF48035E561404CA060E06883
:1039C000C506FCD43D488068C0B20BB90C4665E022
:1039D0000B46002A6AD0072A384C0D782FDDA560E7
:1039E0004D78083AA5608D78A560CD78A5600D79F1
:1039F000A5604D79A5608D79A56001F10805C979AB
:103A0000A1602E498C696407FBD58C681C708C689A
:103A10005C708C689C708968D9702849CC68E40611
:103A2000FBD48C68083303F8044C8C6803F8034C0F
:103A30008C6803F8024C896803F8011C1BE0032A18
:103A40001BDDA5604D78043AA5608D78A5600D1D3D
:103A5000C978A1601949CC68E406FBD48C680433AA
:103A600003F8044C8C6803F8034C8C6803F8024C90
:103A7000896803F8011C2946ABE70131A560013ACA
:103A8000E568ED06FCD40D4C0133A46803F8014C45
:103A90009FE7DD68ED06FCD4084B9B68631A9342F0
:103AA00004DA14F8015B054B9D60F2E7024B4FF41A
:103AB00080329A6130BD00BF00C0092000800840FC
:103AC00007B5002302A9012201F8013D00F01F0003
:103AD0001346FFF76DFF9DF8070003B05DF804FB88
:103AE00007B502AB03F8011D00F01F0019460122C3
:103AF000002340F02000FFF75BFF03B05DF804FBFC
:103B000008B51720FFF7DCFFC0F3001008BD072041
:103B10007021FFF7E5BF03460A46A020194600239F
:103B2000FFF746BF08B50020FFF7CAFFBDE8084011
:103B300000F0FE010020FFF7D3BF0000024B4FF062
:103B40008072DA61704700BF20C0092008B50020EC
:103B5000FFF7B6FF40F00101C9B20020FFF7C0FF38
:103B6000024B4FF080729A6108BD00BF20C009204F
:103B700007202021FFF7B4BF0021E1200A460B46B1
:103B8000FFF716BF37B50C460546FFF7F5FF214690
:103B90002846FFF7C0FF0D4B4FF080721C469A611C
:103BA0000022ADF80620BDF8063001339BB2ADF817
:103BB000063033B94FF08073E361FFF7DDFF03B0E8
:103BC00030BDFFF79DFF0028EDD0F3E720C00920AE
:103BD00008B51720FFF774FF00F0010080F0010026
:103BE00008BD07204021FFF77BBF08B503460A4602
:103BF000612019460123FFF7DBFEC0F3420008BD38
:103C00000021E2200A460B46FFF7D2BE70B50646F9
:103C100000200D461446FFF753FF16B100F0BF0019
:103C200002E040F04000C0B215B100F0DF0101E059
:103C300040F0200114B101F0EF0101E041F010016A
:103C40000020BDE87040FFF74BBF10B504460020D0
:103C5000FFF736FF14B900F0F7010DE0012C04D195
:103C600000F0FB0141F0080106E0022C14BF40F017
:103C7000080140F00C01C9B20020BDE81040FFF778
:103C80002FBF08B50020FFF71BFFBDE8084040F03C
:103C90000201C9B20020FFF723BF08B50020FFF7DB
:103CA0000FFFBDE8084000F0FD010020FFF718BF3E
:103CB00040F6DD13984206D840F66213B0F5166F51
:103CC00038BF184600E01846A0F51661C9B20520B5
:103CD000FFF706BF10B504460620FFF7F1FEFA2CE9
:103CE00000F0D70102D141F0200104E0B4F5FA6FF1
:103CF00008BF41F008010620BDE81040FFF7F0BE04
:103D000010B504460620FFF7DBFE032C20F006006A
:103D100028BF032440EA4401C9B20620BDE8104090
:103D2000FFF7DEBEF9284FF0FA0305D9B0F57A6F38
:103D300088BF4FF47A6000E01846B0FBF3F00F291B
:103D400000F1FF30C0B228BF0F2141EA0011C9B213
:103D50000420FFF7C5BE1130C0B2162804D82029B0
:103D600028BF2021FFF7BCBE7047032804D00428D9
:103D700014BF0321022100E001210320FFF7B0BEA0
:103D800003460A46302019460023FFF711BE0346BA
:103D90000A462A2019460023FFF70ABE73B50E46CD
:103DA00015460446FFF72CFFFFF7E6FE2B4B4FF0BE
:103DB0008072DA61FFF771FF00210A460120FFF7E8
:103DC00025FFFFF7A4FE0220FFF73FFF3046FFF775
:103DD0006FFF2846FFF77EFF0320FFF791FF0220C9
:103DE0000321FFF77DFE01200021FFF779FE4FF44C
:103DF000FA700321FFF796FF21460020FFF7ABFF83
:103E000012200021FFF76CFE13200021FFF768FE4F
:103E100014200021FFF764FE15200021FFF760FE4B
:103E200000211620FFF75CFE0D4B18681B790090EF
:103E300005208DF80430FFF798FF68460521FFF74D
:103E40009FFF68460521FFF7A2FFFFF71AFF4FF417
:103E5000FA6004F044FC02B070BD00BF20C009202D
:103E60001751020070B5174E326822B90320202185
:103E700006F002F83060144D2A6822B90120202192
:103E800005F0FAFF2860114C216821B901200322B6
:103E900005F0F2FF2060202040F6C3114FF4FA62D3
:103EA000FFF77CFFFFF752FE16200121084A04F0BD
:103EB000F5FE306828B1286818B12068003018BFB6
:103EC000012070BD9CC3072098C30720A0C3072012
:103ED0007D3F010070B506460379002203F0C00360
:103EE000C02B0CBF0D4B0E4B88B01D6831462846C9
:103EF000134605F0E7FF044660B9224623466946AB
:103F0000284606F0E3F8224623462846314605F0C7
:103F1000D9FF0446204608B070BD00BF98C30720F3
:103F20009CC3072038B504460D46FFF723FA2378D3
:103F300083420AD0E37843B90AF0AAFCBD2300F01B
:103F4000030000FB033004F0CAFBFFF7F7FDFFF7A7
:103F5000E9FD2046A9B2FFF715FEFFF709FEFFF7BE
:103F6000F5FD06F09DFE022804D1034B00211868E0
:103F700006F07AF8012038BDA0C3072007B500235A
:103F800002A941F8043D084B186806F06DF8019B42
:103F90003BB1064B4FF080521A60BFF34F8FBFF317
:103FA0006F8F03B05DF804FBA0C3072004ED00E0B1
:103FB00038B505460C46FFF70BFE48B1A1B22846BE
:103FC000FFF713FEFFF704FE08B9FFF70AFE012012
:103FD00038BD2DE9704306460D46144606F060FED6
:103FE000022807D1224630462946002306F06EF803
:103FF000C4B21DE007F014FA4FF47A72002308F0FF
:10400000F1FC10EB040841F100090022304629467A
:10401000134606F05BF8C4B254B907F001FA4FF446
:104020007A72002308F0DEFC894508BF8045ECD297
:104030002046BDE87083042938B5054603D1041C29
:1040400018BF012400E0002407F0EAF92CB14FF476
:104050007A72002308F0C6FC2860204638BD0000B4
:1040600000B50C4B8DB009930B4B0C4A0B930C4BCA
:104070000A930CAB43F8102D002204920FCB8DE86D
:104080000F00084B0121084A6A20FFF727FA0DB0FC
:104090005DF804FB653E0100B13F010037400100BF
:1040A000253F0100D53E01001C51020003460A468F
:1040B000024908681946FFF78CBF00BF9CC3072060
:1040C00003460A46024908681946FFF782BF00BF47
:1040D00098C3072008B506F0E3FD0F4B02285B6983
:1040E00013D15A020DD5FFF72DFC0C4B00284FF0D1
:1040F0000001186814BF01224FF0FF320B4605F093
:10410000E5FFBDE80840FFF7BBBA5B02F9D5FFF752
:1041100019FC0028F5D108BD00C00920A0C3072064
:1041200030B504460D46134621792A46BDE8304095
:10413000006805F0DDBA1FB50A4604AB0021022471
:1041400023F8041D01790094006805F0BCFA9DF87D
:104150000C009DF80D3043EA002004B010BD10B5EE
:1041600004462A211922FFF7DBFF206821790D225E
:1041700005F0ADFAA0F12A035842584110BD0000E5
:10418000044A13881F2B9FBF581C1080024A42F814
:1041900023107047A8C30720ACC30720144AF0B50A
:1041A0001488012C20D9134B00211F46661EB142F2
:1041B00006DA58681D680131401B43F8040BF5E727
:1041C0007B6803EB5301002318469CB2B44209DA22
:1041D00057F8245001338D4282BF012505FA04F4BB
:1041E0002043F2E7044B186000231380F0BD00BFAA
:1041F000A8C30720ACC30720A4C3072008B502202A
:10420000012107F0A5F8084B01209A6A22F0070265
:104210009A629A6A42F006029A62044AD36843F0AC
:104220003003D36008BD00BF0080004000C00240E2
:1042300008B5044A01F07F034171D25C0321FFF706
:104240006FFF08BD2151020008B5044A01F07F0349
:104250008171D25C0221FFF763FF08BD215102008A
:1042600038B504460068217905F04DFA054688B155
:10427000204606210022FFF753FF20460721002297
:10428000FFF74EFF20462E21FFF7D2FF20462E21BA
:10429000FFF7DAFF284638BD642370B5B1FBF3F4AD
:1042A00004FB1311CCB20A21B4FBF1F501FB15415B
:1042B0003031C9B20646FFF7C7FF092C8ABF05F1A6
:1042C000300130463046BDE8704094BF2021C9B26D
:1042D000FFF7AEBF0120704738B50D46044606F023
:1042E00019FE05F00F032370114B15F0010F4FF06D
:1042F000010214BFDA619A61227812F0020F4FF0C6
:10430000020214BFDA619A61227812F0040F4FF0B2
:10431000100214BFDA619A61227812F0080F4FF48C
:10432000807214BFDA619A61BDE8384006F002BEBF
:1043300020C0092038B504460D4606F0EBFD013DCE
:1043400023780121A9401943C9B221702046FFF703
:10435000C3FFBDE8384006F0EDBD38B504460D4654
:1043600006F0D8FD013D23780121A94023EA01018F
:1043700021702046FFF7B0FFBDE8384006F0DABDF7
:1043800038B504460D4606F0C5FD013D23780121F0
:10439000A9405940C9B221702046FFF79DFFBDE8F2
:1043A000384006F0C7BD01207047022004F02CBA47
:1043B00001207047044B5B69C3F38130C3F3412391
:1043C00043EA8000704700BF20C0092010B50446B2
:1043D00001218122FFF7A4FE20682179012205F046
:1043E00076F910F0600F14BF0120002010BD38B521
:1043F00000210546FFF79FFE8122012184B2284655
:10440000FFF78EFE24B2102094FBF0F008F08AF83B
:104410004FF0765108F0DAF8A96807F0CFFF38BD01
:1044200008B5FFF7E4FF054908F0D0F8044908F0A3
:1044300081F94FF0844107F0C1FF08BD0000104131
:104440000000A0402DE9F04F0546ADF2546D0C463A
:10445000904682A8294601229946DDF878A602F006
:1044600011F8002867D121460DF22C400A2202F0F3
:1044700009F8044620B182A802F075FA20465AE0F5
:10448000834606460090019006F0CAFF4FF47A7208
:10449000002308F0A7FA02A907464FF4007282A889
:1044A0006B4602F088F80546D8B9009BCBB106F000
:1044B000B7FF4FF47A720023F61B08F093FA064414
:1044C00006F0AEFF4FF47A72002308F08BFA02A9CF
:1044D0000746009A0DF22C4001AB02F02AF905467E
:1044E000B8B1B8F1000F01D0C8F80060B9F1000F01
:1044F00001D0C9F800B0BAF1000F01D0CAF80040ED
:1045000082A802F030FA0DF22C4002F02CFA284674
:1045100011E0019A009B9A42E3D106F081FF4FF42B
:104520007A72002308F05EFA009BBBEB070200EBF7
:10453000020B1C44A8E70DF2546DBDE8F08FF0B5F6
:104540000446ADF50B7D0F46164621461D4601A8D3
:1045500000230122009301F095FF044670B91DB1BC
:1045600001A8294602F011FA01A8394632466B46E5
:1045700002F021F8044601A802F0F5F920460DF5F5
:104580000B7DF0BDF0B50446ADF50B7D0F4616462C
:1045900021461D4601A800230A22009301F072FF64
:1045A000044670B91DB101A8294602F0EEF901A830
:1045B000394632466B4602F0BCF8044601A802F0C8
:1045C000D2F920460DF50B7DF0BDF0B50446ADF5F2
:1045D0000B7D0F46164621461D4601A800231222D8
:1045E000009301F04FFF044680B901A80DB12946A0
:1045F00000E0049902F0C9F901A8394632466B4639
:1046000002F097F8044601A802F0ADF920460DF536
:104610000B7DF0BD7F2816D931B1FF2812D80A4B87
:10462000803833F810007047074A8BB232F81120F7
:10463000824203D001318029F6D10B4603F180007C
:10464000C0B2704700207047A25102000023064A02
:1046500032F8132032B1904201D00133F7E7034A18
:1046600032F81300704700BF82540200A2520200C9
:1046700010B501200C4605F0A7FC2060003018BFE3
:10468000012010BD0120704710B5044606F008FB5C
:1046900002280AD100210B4620464FF0FF3205F0D8
:1046A00015FD431E5842584110BD012010BD10B5E4
:1046B000044606F0F5FA022807D100212046BDE89D
:1046C00010400A460B4605F0FDBB10BD10B5044670
:1046D00004F002FE24B1012C06D100F07BF901E0C8
:1046E00000F0EEFC044600E0042404F00DFE204639
:1046F00010BD28B1012801D00420704700F018BA7D
:104700007047F8B507460E4615461C4604F0E4FD12
:104710003FB1012F0CD130462946224600F010FA55
:1047200004E030462946224600F016FD044600E02B
:10473000042404F0E9FD2046F8BDF8B507460E460E
:1047400015461C4604F0C8FD3FB1012F0CD1304680
:104750002946224600F042FA04E030462946224625
:1047600000F020FD044600E0042404F0CDFD2046C6
:10477000F8BD70B506460D46144604F0ADFD36B1E1
:10478000012E0AD12846214600F082FA03E028468D
:10479000214600F02BFD044600E0042404F0B4FDA3
:1047A000204670BD08B506F03BFE4FF47A72002338
:1047B00008F018F908BD000010B5044606F0A8FF7F
:1047C000074BB0FBF3F00223B0FBF3F2944202D3A9
:1047D000044A136110BDB3F5807FF9D00233F3E7CB
:1047E00040420F0000000340044B9860DA68D20694
:1047F000FCD4024B9868C0B2704700BF0000034071
:1048000038B5FFF7CFFF00F5FA75FF20FFF7ECFF93
:10481000FF20FFF7E9FFFF28044606D0FFF7C2FF9D
:104820000023994208BFA842F2D3204638BD0000B9
:1048300038B5064C4FF00075E561FFF7E1FF044A1B
:10484000A561137843F00103137038BD20C009201F
:1048500006C0072070B505460E46FFF7A3FF00F11E
:104860006404FF20FFF7C0FFFF2808D1FFF79AFF7D
:104870000023994208BFA042F3D3002070BDFE2858
:10488000FBD1102E06D928464FF40071002204F007
:10489000C1FC19E02C1DFF20FFF7A6FF04F8040C53
:1048A000FF20FFF7A1FF04F8030CFF20FFF79CFF98
:1048B00004F8020CFF20FFF797FF043404F8050CFE
:1048C000331D1B1BDD42E6D1FF20FFF78DFFFF20CC
:1048D000FFF78AFF012070BD70B506460D46FFF751
:1048E0008FFFFF28044619D12846FFF77DFFFD2DD5
:1048F00016D04FF400712246304604F08BFC20465F
:10490000FFF772FF2046FFF76FFF2046FFF76CFFAF
:1049100000F01F00431F5842584170BD002070BD79
:10492000012070BD020638B504460D4607D5772034
:104930000021FFF7F7FF012836D804F07F041B4B56
:104940004FF000729A61DA61FFF75AFFFF282AD10F
:104950002046FFF749FF280EFFF746FFC5F3074043
:10496000FFF742FFC5F30720FFF73EFFE8B2FFF76E
:104970003BFF402C04D0482C0CBF8720012000E0D6
:104980009520FFF731FF4C2C02D1FF20FFF72CFFC1
:104990000A24FF20FFF728FF030605D5013C14F089
:1049A000FF04F6D138BDFF2038BD00BF20C009206C
:1049B000064A074913784969DBB2490154BF03F03D
:1049C000FD0343F003031370704700BF06C00720C8
:1049D00020C009202DE9F347FFF7EAFF514B1A7871
:1049E0001E4612F0020F01D0187896E00120FFF762
:1049F000E3FE0A24FF20013CFFF7F6FE14F0FF045B
:104A0000F8D1494D4FF00073EB6140202146FFF78C
:104A100089FF012801D000246EE0FFF7C3FE4FF4A8
:104A2000D57100F57A7A4820FFF77CFF01283DD147
:104A3000FF20FFF7D9FE01AF38550134042CF7D120
:104A40009DF80630012BE6D19DF80730AA2BE2D164
:104A5000FFF7A8FE4FF00009494508BF5045D04672
:104A600006D3FFF79FFE494508BF4045D3D207E074
:104A7000E9204FF08041FFF755FF0028E8D1F0E72B
:104A80007A200021FFF74EFF0028C4D10446FF2002
:104A9000FFF7AAFE38550134042CF8D19DF80430F4
:104AA00013F0400F14BF0C24042425E02146E92014
:104AB000FFF738FF022835BF02240124E9274127E8
:104AC000FFF770FE4FF00009494508BF5045D0463A
:104AD0000BD3FFF767FE494508BF40450CD34FF4A1
:104AE00000715020FFF71EFF06E038460021FFF757
:104AF00019FF0028E4D1ECE70C4B1C704FF0007359
:104B0000AB613CB13378182003F0FE033370FFF73C
:104B100053FE01E0FFF78CFE3078C0B202B0BDE872
:104B2000F08700BF06C0072020C009202CC4072042
:104B300008B5FFF73DFF014B187808BD06C00720F8
:104B4000F8B5144607460E46FFF732FF002C3AD060
:104B50001F4B1B78DB0738D41E4B4FF00072DA6115
:104B60001D4A1D46127812F0080F08BF7602012C6C
:104B70000DD151203146FFF7D5FEE8B938464FF444
:104B80000071FFF767FEB0FA80F4640914E0522068
:104B90003146FFF7C7FE78B938464FF40071FFF78A
:104BA00059FE28B1013C14F0FF0407F50077F3D15A
:104BB0004C200021FFF7B6FE4FF00073201CAB61C4
:104BC00018BF0120F8BD0420F8BD0320F8BD00BFC8
:104BD00006C0072020C009202CC40720F8B51446C1
:104BE00007460E46FFF7E4FE002C45D0254B1A7809
:104BF000D20743D41B785B0742D4234B4FF000729B
:104C0000DA61224A1D46127812F0080F08BF7602B8
:104C1000012C0CD158203146FFF784FE28BB3846C2
:104C2000FE21FFF759FEB0FA80F464091DE012F08E
:104C3000060F03D0D7202146FFF774FE59203146D6
:104C4000FFF770FE88B93846FC21FFF745FE28B112
:104C5000013C14F0FF0407F50077F4D10020FD219A
:104C6000FFF73AFE002808BF01244FF00073201C14
:104C7000AB6118BF0120F8BD0420F8BD0320F8BDCA
:104C80000220F8BD06C0072020C009202CC4072040
:104C90007FB504460D46FFF78BFE052C1AD12B7805
:104CA000012B00F0FD8003D3022B0BD00420FAE08F
:104CB0007E4B586910F0806440F0F280FFF7B8FD39
:104CC0002046F0E0794B5B6983F08063C3F3806337
:104CD0006B70E5E0764B1B78DB0700F1E3800E2C70
:104CE00000F2D880DFE804F008124F53D6D6D6D6AB
:104CF000D6D6A3A8AAB4C4006C4B4FF00072DA61F8
:104D0000FFF77EFDFF3818BF0120C4E049200021D5
:104D1000FFF708FE044608B10120BCE068461021F8
:104D2000FFF798FD0028F7D09DF800309DF80900A6
:104D30009B09012B9DF8083005D1013000EB0323BE
:104D40009BB29B021CE09DF80710890001EB9313B6
:104D50005A1C9DF806309DF8051003F0030302EB82
:104D600083239DF80A2001F00F0101EBD212911C60
:104D700000F0030201EB4202D2B29BB2093A934027
:104D80002B60204687E04FF400732B8052E0494EA1
:104D9000337803F0040303F0FF01DBB1CD200021E1
:104DA000FFF7C0FD0028B7D1FF20FFF71DFD6846C3
:104DB0001021FFF74FFD0028AED03024FF20FFF771
:104DC00013FD601E10F0FF04F8D19DF80A20102397
:104DD0001209D4E74920FFF7A5FD044600289BD11E
:104DE00068461021FFF736FD002895D031789DF8F0
:104DF0000A2001F0020101F0FF009DF80B3051B1D3
:104E000002F03F02DB0903EB42039DF80D20013362
:104E10009209013AB3E7C2F3840103F003045A098B
:104E200002EBC402531C01FB03332B6033E0214B24
:104E30001B782B7000202EE0492000E04A20002142
:104E4000FFF770FD00287FF467AF284610211BE0B4
:104E50007A200021FFF766FD00287FF45DAF2C1D4E
:104E6000FF20FFF7C1FC05F8010BA542F8D1E1E7EF
:104E7000CD200021FFF756FD00287FF44DAFFF2025
:104E8000FFF7B2FC28464021FFF7E4FCB0FA80F0BF
:104E9000400900E00420054B4FF000729A6102E0E7
:104EA000002000E0032004B070BD00BF20C0092036
:104EB00006C007202CC40720054B1B78253BDBB21E
:104EC000032B9ABF034A52F823000020704700BF0B
:104ED00030C407206C5602001B4B2DE9F0411D88A1
:104EE0000646B5F5007F0F46144602D10846114626
:104EF0000AE0B5F5807F09D1084611462A46B04739
:104F000007F5807004F580712A4617E0B5F5047F37
:104F100005D1510A384689024FF400720EE0B5F50A
:104F2000847F0FD1140A08464FF480726102B047A3
:104F3000611C07F5807049024FF480723346BDE86A
:104F4000F0411847BDE8F0812EC40720034610B594
:104F500000295DDD07291A782E4C2FDDA2605A78D2
:104F60000839A2609A78A260DA78A2601A79A26001
:104F70005A79A2609A79A26003F10802DB79A360F2
:104F8000244B9C696407FBD59C6804709C68447042
:104F90009C6884709B68C3701E4BDC68E406FBD47D
:104FA0009C68083000F8044C9C6800F8034C9C682E
:104FB00000F8024C9B6800F8013C1BE003291BDD54
:104FC000A2605A780439A2609A78A2601A1DDB7830
:104FD000A360104BDC68E406FBD49C68043000F846
:104FE000044C9C6800F8034C9C6800F8024C9B68D9
:104FF00000F8013C1346ABE70133A2600139E268D7
:10500000D206FCD4034A0130926800F8012C9FE7D5
:1050100010BD00BF0000034007B50B0C8DF8040065
:105020008DF805308DF807100B0A01A804218DF8C2
:105030000630FFF78BFF03B05DF804FBF7B51646AB
:1050400007460E4C40250323E5618DF804300B0C18
:105050008DF805308DF807100B0A01A804218DF892
:105060000630FFF773FF38463146002204F0D2F8CD
:10507000A561A561A56103B0F0BD00BF00C0092016
:105080000D4B4022DA610D4BD7229A60DA68D106C7
:10509000FCD40A4B9B68094BFF229A60DA68D2065F
:1050A000FCD4064B98680306F5D5034B40229A6161
:1050B000C0B29A619A61704700C0092000000340A5
:1050C000F7B5FFF7DDFF1F4C002323801E4B1F4E5B
:1050D00040271A889B78F7610546032101A8ADF89F
:1050E00004208DF80630FFF731FF9DF805209DF86C
:1050F00006301F2AB761B761B7611CD1A3F1250241
:10510000032A18D8124A252B137005F0010006D186
:10511000002814BF4FF480734FF4847305E0002817
:1051200014BF4FF400734FF404732380FFF7C4FEE1
:10513000084B400A18602088B0FA80F0400903B09C
:10514000F0BD00BF2EC407206256020000C0092037
:1051500030C4072034C407202DE9F0418B181746CE
:105160000E4A013B12688046934214D84D024446D1
:10517000FFF786FF0026C8EB0502BE42224407DA8D
:1051800021460748FFF7A8FE04F500740136F2E750
:105190000020BDE8F0810120BDE8F08134C4072083
:1051A0003D5001002DE9F0418B1817460D4A013B97
:1051B00012688046934212D804464D020026C8EB7E
:1051C0000502BE42224407DA21460748FFF784FE63
:1051D00004F500740136F2E70020BDE8F0810120FB
:1051E000BDE8F08134C40720CD52010010B50C4653
:1051F000072805D8DFE800F006090E12141414146D
:10520000042010BDFFF73CFF0AE0FFF755FE400AFF
:10521000206005E04FF400730B8001E001230B6078
:10522000002010BD70B590B003466A466E4600F18E
:105230004005144618685968083303C4AB42224637
:10524000F7D1084D4024EC619B200021FFF7E4FEDC
:1052500030462146FFF77AFEAC61AC61AC6110B01C
:1052600070BD00BF00C0092070B50646074D402440
:1052700077200021EC61FFF7CFFE30462146FFF793
:1052800065FEAC61AC61AC6170BD00BF00C00920BF
:10529000064B10B51C8834F01F0404D0FFF70CFE39
:1052A000B0FBF4F010BD204610BD00BF2EC4072097
:1052B000014B1888704700BF2EC40720024B187896
:1052C000003018BF012070472EC407202DE9F74396
:1052D0004FF0FF330F46904601938146FFF7D0FE13
:1052E000FFF7ECFF0646B0B1194C4025194BE561BC
:1052F0001B880320B3F5847F0CBF4FF480714FF4FB
:1053000000713943FFF788FE01A80421FFF71EFE54
:10531000A561A561A5610E4C402382203946E36159
:10532000FFF77AFE48464146012203F073FF3EB183
:10533000019B02A8013340F8043D0421FFF706FE5B
:105340004023A361A361A36103B0BDE8F08300BF64
:1053500000C009202EC40720F7B5124B07461B8852
:10536000B3F5847F4FF0FF330CBF4FF480764FF4DA
:1053700000760193FFF7A2FF70B10B4C402503208C
:1053800046EA4721E561FFF747FE01A80421FFF740
:10539000DDFDA561A561A5610198431C08BF002042
:1053A00003B0F0BD2EC4072000C0092037B5074B5D
:1053B000074C1868402501900421E56101A8FFF71A
:1053C000C5FDA561A561A56103B030BD65560200AC
:1053D00000C009201FB501A803F040FE9DF8093068
:1053E0009DF8082003F00F0302F01F025B0543EA5B
:1053F00002419DF806309DF8040003F01F0341EAC6
:10540000C3229DF80530C0F3440003F03F0342EA95
:105410004313BDF80A201843520602F10842104314
:1054200005B05DF804FB30B504460D1F131B0344A3
:10543000032B04D955F8043F44F8043BF6E722F067
:105440000303194402F00302013B18440A44914249
:1054500004D011F8013B00F8013FF8E730BD0244E9
:10546000904202D000F8011BFAE7704700F10B01EF
:105470000023DA0142EA530310F8012B1344884257
:1054800003F0FF03F5D118467047026810B50446D3
:10549000BAB11346184613F8011B1F2902D93A293D
:1054A000F8D101E0002010BD114611F8013B8842FF
:1054B00007D1303BD9B2012903D802321846226005
:1054C00010BD4FF0FF3010BD03692DE9F04101F12F
:1054D00009020D4653B3416900244E1E16F8013FE0
:1054E0000134202B18D0052B47D0092C02D12E27B0
:1054F00017700132A3F14107192F0BD8082C0F7B2D
:105500008CBF4FF0100E4FF0080E1EEA070F1CBFA5
:105510002033DBB2137001320B2CDFD1CB7A2B722C
:10552000CB692B600B8BAB80CB8AEB800024147093
:10553000AE693EB303690BB900241AE0EB69002B96
:10554000FAD04FF6FF73028C9A42F5D0D0F81C8047
:10555000771E38F8140060B10021FFF75BF80028CF
:10556000EAD0EB69013B9C42E6D2013407F8010F17
:10557000EFE700233355BDE8F081092C4FF0E50338
:10558000C8D1B4E7BDE8F081F8B5037904460BB99A
:105590000020F8BD056B00F13407394640782A46F3
:1055A0000123FFF7CAF890B9636AE269EB1A9342E4
:1055B0002071EDD2E678012EEAD9E36960781D44C6
:1055C00039462A460123FFF7B8F8013EF3E70120E8
:1055D000F8BD0000F8B50446FFF7D6FF05468DBBC1
:1055E0002378032B26D16679012E23D104F13407C9
:1055F000384629464FF40072FFF731FF4AF655232B
:10560000A4F83232104B226A636303F1FF5303F5AF
:1056100000532033C4F8183263690132C4F81C32D5
:1056200023692263C4F82032607839463346FFF795
:1056300084F86571002160780A46FFF79AF8003017
:1056400018BF0120F8BD00BF52526141036B70B515
:10565000994205460E4610D0FFF796FF044608B162
:1056600001240BE0687805F1340132460123FFF78D
:1056700048F80028F4D12E6300E00024204670BDD5
:10568000002310B503714FF0FF3303630446FFF7A7
:10569000DDFFA0B94AF65523B4F832229A4210D160
:1056A000D4F86A30084A23F07F4393420AD0D4F8F2
:1056B000860020F07F40801A18BF012010BD032013
:1056C00010BD022010BD00BF46415400F0B50023BC
:1056D000036085B0074608461546FFF7D6FE061E4E
:1056E000C0F2F2807E4B53F82640002C00F0EE8092
:1056F000E068FEF7C9FF002800F0EA803C602378EC
:1057000083B16078FEF7F5FFC1070BD4002D00F0E0
:10571000D98000F0040303F0FF00002B00F0DD80CF
:105720000A20DAE00023F0B223706070FEF7CEFFAB
:10573000C20700F1CF800DB14307F1D4204600210C
:10574000FFF79EFF01281CD12146002291F8F63177
:105750000BB1D1F8FA314DF822300132042A01F1AF
:105760001001F3D100265DF826502DB120462946C0
:10577000FFF786FF08B90BE002200136042EF2D1B4
:1057800000E00025032800F0A78008B10D20A4E068
:10579000B4F83F30B3F5007FF8D1B4F84A0000B94F
:1057A000A06D94F844E0E0610EF1FF33012B84F822
:1057B00003E0EBD894F84130A370002BE6D05A1EDA
:1057C0001A42E3D1B4F845C01CF00F0FA4F808C08A
:1057D000DCD1B4F8472002B9626DB4F84210002958
:1057E000D4D00EFB00FE01EB1C177744BA42CDD398
:1057F000D21BB2FBF3F3002BC8D040F6F5729342F4
:1058000006D94FF6F576B3428CBF0326022600E098
:105810000126023329442F44032EA36125626162CD
:10582000E76206D1BCF1000FB0D1226E9B00A262EC
:1058300010E0BCF1000FA9D0022E4FEA43020CBFCA
:105840001346D218714418BF03F00103A16218BFB8
:1058500003EB520303F2FF13B0EB532F96D34FF039
:10586000FF3363612361032E4FF08003637122D104
:10587000B4F86430012B1ED12046691CFFF7E6FE08
:10588000C8B94AF65523B4F8322260719A4212D14F
:10589000626B144B9A420ED103F1FF53D4F81822D5
:1058A00003F5005320339A4201BFD4F81C326361E0
:1058B000D4F8203223610C4A2670138801339BB23E
:1058C0001380E380002008E00B2006E00C2004E0B9
:1058D0000F2002E0032000E0012005B0F0BD00BF72
:1058E0003CC407205252614138C4072010B5044619
:1058F000A8B103689BB11A788AB1D988828891428D
:105900000DD1D868FEF7C0FE58B123685878FEF76D
:10591000F0FE10F0010F14BF0320002010BD09207D
:1059200010BD0F2010BD50B1A1F10B03012B06D902
:10593000092904D00F2902D0C068FEF7B8BE70470D
:1059400083690239023B99423DBF8278C36A02FBF8
:105950000130002070470129F8B507460C464BD9A5
:105960008369994248D20378022B29D0032B34D083
:10597000012B41D101EB5106416A01EB5621FFF7A2
:1059800065FE10B14FF0FF30F8BD796AC6F3080329
:1059900001363B44384601EB562193F83450FFF76B
:1059A00055FE0028EED1C6F308063E4496F83400B2
:1059B000E30745EA00204CBF0009C0F30B00F8BD27
:1059C000416A01EB1421FFF741FE0028DAD16300A0
:1059D00003F4FF73FE18B08EF8BD416A01EBD411D9
:1059E000FFF734FE0028CDD1A40004F4FE743C443B
:1059F000606B20F07040F8BD0120F8BDF8B5054699
:105A000084680E46012CE98001D10220F8BD0368AC
:105A10009A699442F9D254B91A78032A01D19A6A40
:105A200022B91A899642F0D2986A17E014462146A4
:105A30009F783F01BE420DD32868FFF78CFF431CBF
:105A400001461AD00128E0D92B689B699842DCD224
:105A5000F61BEFE728680C46FFF772FFEC600028A2
:105A6000D3D02B6800EB161006F00F0603EB46169A
:105A7000343628616E610020F8BD0120F8BD01298F
:105A8000F8B505460C4616465FD9836999425CD243
:105A90000378022B38D0032B42D0012B51D101EBDC
:105AA0005107416A01EB5721FFF7D0FD002849D18A
:105AB000C7F3080314F001042B4418BF93F8341003
:105AC000F2B21EBF01F00F0141EA0212D2B2696ABE
:105AD00083F83420013701232B71284601EB57212D
