:020000021000EC
:10000000E03F082093010100FB000100E100010036
:10001000090101001901010029010100000000008F
:1000200000000000000000000000000021AA010004
:10003000390101000000000091AA010059010100EE
:100040007DB001007DB001007DB001007DB00100F8
:100050007DB001007DB001007DB001007DB00100E8
:100060007DB001007DB001007DB001007DB00100D8
:100070007DB001007DB001007DB001007DB00100C8
:100080007DB001007DB001007DB001007DB00100B8
:100090007DB001007DB001007DB001007DB00100A8
:1000A0007DB001007DB001007DB001007DB0010098
:1000B0007DB001007DB001007DB001007DB0010088
:1000C0007DB001007DB001007DB00100386002000C
:1000D00000C00720B8010000B8C107207C04000060
:1000E00004207146084203D0EFF309800AF0E4BF10
:1000F000EFF308800AF0E0BF704708B5014807F049
:1001000055FCFEE7CE59020008B5024807F04EFC48
:10011000FEE700BFD959020008B5024807F046FCC7
:10012000FEE700BFE459020008B5024807F03EFCB4
:10013000FEE700BFEF59020008B5024807F036FCA1
:10014000FEE700BFFC59020008B5024807F02EFC8C
:10015000FEE700BF0A5A020008B50AF019FC0AF0CF
:10016000BFFCBDE808400AF027BC0B4610B55C1A7E
:10017000944204D2441AE45843F8044BF7E710BD04
:1001800003461A1A8A4203D2002243F8042BF8E7E6
:10019000704716480AF046FD14480AF046FD144C14
:1001A000144B9C4207D294E803000C3454F8042CFE
:1001B000FFF7DBFFF4E7104B9C4206D254F8080B24
:1001C00054F8041CFFF7DCFFF5E70CF001FD0AF022
:1001D00043FD01F0CBFD02F043FD4FF416400BF060
:1001E00089F8064807F0E2FBFEE700BFE03F082081
:1001F000CC000100D8000100E00001001E5A0200FE
:10020000144A70B51368014613B94FF08053136058
:100210001068114B4518114E2B44B34298BF104B38
:100220000C4C96BFC81825602060126898BF18460D
:100230000C4B9A4281BF0C4A064B00201A6039B120
:100240000A4A136801331360094B1860094B19609F
:1002500070BD00BFBCC10720FF7FFFEFFE3F07104E
:1002600034C60720FF3F082000400820C4C10720F3
:10027000B8C10720C0C107200CF0C6BD0CF0CCBD32
:100280000CF0CABD10B504468AB068460DF068F897
:10029000204A214B2260089A2049A260079A626096
:1002A00052B90A681E4882428ABF02F1604202F1D6
:1002B0007042A2F5E82262606268B2F5803F82BFB8
:1002C00002F17042A2F5E82262600022E2600A6850
:1002D00013498A4205D8C3F1405303F50C239B1AF6
:1002E00009E010498A4207D8C3F1804303F580131F
:1002F0009B1A002B00DDE36020460B4BE2611B687C
:10030000A3610A4B1B686361094B1B6823610AB038
:1003100010BD00BF3406000034C60720BCC1072052
:1003200000800010FF3F0820B8C10720C0C107208F
:10033000C4C10720FEE70000014B1860704700BFF2
:10034000CCC10720014B1860704700BFC8C107200F
:1003500008B502480DF096FFFEE700BF50310200DD
:1003600008B502480DF08EFFFEE700BF6A310200BB
:100370000020704701207047F8B5084B16461A68F0
:100380000F461C4642B10D46EB1BB34204DA23680C
:1003900015F8010B9847F7E73046F8BDCCC10720A8
:1003A000F8B5094B0F46186816461C4658B10D465D
:1003B000EB1BB34205DA23680020984705F8010BD0
:1003C000F6E726EAE670F8BDC8C1072070470020AE
:1003D00070470000074B1B689A68824207D05A6832
:1003E000824204D0DB681B1A5842584170470120F2
:1003F000704700BF3CC107200020704700207047B5
:1004000030B504468DB0A8B3684608F0C9FB9DF826
:100410000030002503F03F0303939DF8013003A84B
:1004200003F03F0304939DF802300B9503F01F0384
:1004300005939DF8043003F01F0306939DF80530E3
:1004400003F00F03013B0793BDF80630C3F30B0322
:10045000A3F26C7308939DF8033003F0070309932C
:10046000BDF80830C3F30B03013B0A930CF0FEFD0B
:1004700084E8210000200DB030BD000070B50F4DA4
:100480000F4E2C6814F0010415D128460AF0F8FF2D
:1004900088B14FF40E70FFF7EFFE302380F835324D
:1004A0003A2380F8344280F8363280F837423060A0
:1004B00028460AF0F1FF306870BD00BFECC107208C
:1004C000D4C1072070B50F4D0F4E2B6813F00104F7
:1004D00016D128460AF0D4FF90B14FF40E70FFF702
:1004E000CBFE012380F83432312380F835323A23B1
:1004F00080F8363280F83742306028460AF0CCFF68
:10050000306870BDE8C10720D0C107202DE9F04751
:10051000ADF51A7D0F4607F0AAFE041E04DD0AF0B1
:10052000FFF9204609F042FF0DF1140844462B4D17
:100530000FCD0FC42B68102123600DEB01020024A6
:100540000AA804940AF0F4F825498146254A384659
:1005500008F096FD26460AAD4FF0000ACA451ED0A7
:100560006B69A34217D1AA69049B164423B1642185
:10057000B3FBF1F3B2FBF3F395F80CE00094298C94
:100580000293890001910392384617496A6858F826
:100590002E3008F075FD0AF1010A2435DEE701343A
:1005A0000A2CD8D1049B64229E1BB3FBF2F30F49A3
:1005B0000F4AB6FBF3F30096384608F061FD09F0E8
:1005C000DBFD102804D938460A49102208F058FDEE
:1005D00001200DF51A7DBDE8F08700BF84310200CF
:1005E000A3310200CA310200CF310200EC31020017
:1005F0000B3202001632020010B50C46ADF5007D3C
:1006000068460AF0C1FC204669464FF0FF3208F008
:1006100001FD01200DF5007D10BD000030B50C4638
:1006200091B02C49054607F02EFD002847D008ABB5
:10063000009309AB01930AAB02930BAB03930CAB92
:1006400004932846244906AA07AB07F084FC072830
:1006500001D000203BE09DF83930069A0DA862F3E6
:1006600003038DF83930079A9DF8383062F304039C
:100670008DF83830089ABDF83A3062F30B03ADF8C4
:100680003A30099A9DF8363062F304038DF836301B
:100690000A9A9DF8353062F305038DF835300B9AD0
:1006A0009DF8343062F305038DF834300C9A9DF8D0
:1006B000373062F302038DF8373008F099FA08F00A
:1006C00033FB06490246204608F0DAFC012011B04F
:1006D00030BD00BF4032020044320200025202002C
:1006E000F7B50D464E49044607F0BDFD064640B13C
:1006F00006F0F2FF28464B494FF0FF3208F08AFC23
:100700008BE02046484907F0AEFD60B307F008F8DB
:1007100046490246284608F0B3FC07F00DF8444964
:100720000246284608F0ACFC07F000F841490246B2
:10073000284608F0A5FC304606F0E8FF06460120F2
:1007400006F0E4FF0446022006F0E0FF074603201F
:1007500006F0DCFF009701903749284632462346D1
:1007600008F08EFC59E02046344907F08CFC50B16B
:1007700001212022204607F024FD204607F075FDC8
:1007800007F0F4F849E020462D4907F07CFC0646C6
:1007900020B920462B4907F076FC60B320462A4951
:1007A00007F05FFC60B92046284907F05AFC28B9D9
:1007B0002046274907F055FC044602E0032400E0E8
:1007C00002242046314607F027F8224A224B002E09
:1007D00018BF1A463CB1012C07D01C491A4B022CF9
:1007E00018BF0B4602E01D4B00E0194B28461C4980
:1007F00008F046FC11E0204607F037FD19491A4A77
:100800000090F323012007F015F8204607F02DFD96
:1008100016490246284608F033FC012003B0F0BD1B
:100820007F320200853202009E320200A5320200B1
:10083000BA320200CF320200EE3202001E33020052
:10084000223302002A3302007A320200743202009C
:100850007A440200653202005D3202006E3202000C
:10086000333302004C330200983102007F33020020
:1008700030B589B004AB002400930D46022219491B
:1008800003AB0394049407F074FB022827D107AB51
:10089000009305AA0398049906AB0594069407945F
:1008A00003F050FC024638B1049B284600930E49E1
:1008B000039B08F0E5FB10E0059A069B002A079CC5
:1008C00008BF0122002B08BF012328460749B4FBBB
:1008D000F2F2B4FBF3F308F0D3FB012000E0204672
:1008E00009B030BD124402008D330200AC33020067
:1008F0002DE9F0470D46ADF5856D3B49064607F0FD
:100900004CFC3A498146304607F070FC3749304686
:1009100007F08CFC304607F0A8FC0122014681A8B4
:1009200005F030FC044640B1304607F09EFC3049EB
:100930000246284608F0A4FB50E00DF1040A2146C7
:100940004FF4007250460CF0B3FA00940AF008FB22
:10095000A04606460F4681A851464FF400726B46EA
:1009600005F0A9FC08B9009B33BB81A805F07BFE0C
:10097000B9F1000F19D00AF0F3FA4FF47A7200239C
:100980000BF05AFD002304464FF47A723046394684
:100990000BF052FD201A14BF0346012328461549C7
:1009A0004246B8FBF3F308F06BFB284612494FF0C0
:1009B000FF3208F02FFB11E09844B9F1000FCAD1C3
:1009C0004C46009B9C42C6D22B681AF804105B6808
:1009D00028464FF0FF3298470134F2E701200DF529
:1009E000856DBDE8F08700BFDA33020012440200D3
:1009F000E3330200F7330200853902002DE9F047A6
:100A00000023BEB00C46554905460C9307F02BFC5D
:100A100020B9284607F029FC064600E0504E15A8EC
:100A2000314605F0D8FE054620462DB14D493246E7
:100A30002B4608F025FB8CE04B49324608F020FBA2
:100A4000A8461EAF802315A80DA91397149305F08F
:100A500006FF002865D19DF83D30002B61D09DF840
:100A60003C10DDF834C011F0100F09BF0C9B44227C
:100A700063440C930ABF2D22013508F1010811F0DF
:100A8000010F14BF52232D2311F0020F14BF4FF09A
:100A9000480A4FF02D0A11F0040F14BF4FF053090C
:100AA0004FF02D0911F0200FBDF8381014BF4FF092
:100AB000410E4FF02D0ECDF808E04FEA612EBDF843
:100AC0003A000EF2BC7ECDF80CE0C1F3431E01F0FB
:100AD0001F010591C1120691C0F345100DF13D01B2
:100AE000CDF810E0CDF820C007900991CDF800A016
:100AF000CDF8049020461D4908F0C2FA20461C4952
:100B00004FF0FF3208F072FA394620464FF0FF32BC
:100B100008F06CFA204611494FF0FF3208F07AFADB
:100B20008FE700953EAD55F8C83D12494246204634
:100B300008F0A6FA304629460BAA05F0BFFE40B9D8
:100B40000B9B20469A780C9B0B495A43520808F09D
:100B500097FA01203EB0BDE8F08700BF853902005A
:100B600012340200153402003934020054340200F9
:100B70008134020085340200AF34020070B50D46A6
:100B8000064607F072FB0446304607F06EFB05F0A0
:100B900057FF064A064B0749002818BF1346284648
:100BA000224608F06DFA012070BD00BF6F360200CA
:100BB00065360200C334020070B50D46064607F0E4
:100BC00054FB0446304607F050FB05F0DCFE064AB5
:100BD000064B0749002818BF13462846224608F04E
:100BE0004FFA012070BD00BF6F360200653602006B
:100BF000DF3402007FB503AB002400930E460222CF
:100C00000F4902AB0294039407F0B3F9022814D100
:100C1000029D039C2846214605F0BCFF094B0A496A
:100C20002A4600280CBF084618460849009023466B
:100C3000304608F025FA012000E0204604B070BDDF
:100C4000124402006F36020065360200F1340200E1
:100C500030B5ADF50D7D0C46054607F006FB0A22C2
:100C6000014603A805F08EFA40B1284607F0FDFAC8
:100C70001F490246204608F003FA35E08DF80700C8
:100C800002901C4920467E2242F2107308F0F8F9C7
:100C90002046194908F0F4F9236820461B680DF135
:100CA000070142F21072984718B19DF807307E2B69
:100CB00003D103A805F0D7FC16E003A80DF1070146
:100CC000012202AB05F0B5FB10B9029B012B02D04B
:100CD00020460A49DEE7236820465B689DF8071036
:100CE0004FF0FF329847D7E701200DF50D7D30BD5D
:100CF00009350200303502006835020088350200EF
:100D00002DE9F047ADF5407D002304AC236003934B
:100D10000D4600944249022203AB07F02AF902284B
:100D200006D028463F494FF0FF3208F073F971E0D2
:100D300017A8216805F04FFD18B128463A492268E6
:100D400007E017A8039905F046FD28B12846374962
:100D5000039A08F095F95DE040A94FF4807205A868
:100D600007F0C8F80AA880A94FF4807207F0C2F80B
:100D700020AB159317A880230FA9169305F06FFDDC
:100D8000002841D19DF84530002B3DD09DF84430DE
:100D900003F0100303F0FF06002BE9D1039A0DF1D5
:100DA000450305A8224907F0AAFA22680DF1450378
:100DB0001F490AA807F0A3FA05A807F056FA8046CB
:100DC0000AA807F052FA074605A8DDF83C9007F09C
:100DD0004CFA82460AA807F048FA324601463346E2
:100DE0000096504603F0AEF9124A134BCDF800902E
:100DF00000280CBF1846104610490190424628466C
:100E00003B4608F03DF9B3E70AA807F089F805A8C2
:100E100007F086F801200DF5407DBDE8F08700BFA2
:100E200012440200AF350200F43502001936020008
:100E3000393602006F360200653602003F36020086
:100E4000F8B50D462349064607F00DFA0446074655
:100E500028B1FFF737FB002100F235200AE03046C9
:100E60001D4907F000FA044650B1FFF707FB394669
:100E700000F235200A4605F01DFF1849184B1EE008
:100E80003046184907F0EFF9044648B1FFF71AFB5E
:100E9000012200F2352105F037F91349134B0EE01A
:100EA0003046134907F0DFF9044680B1FFF7E6FA50
:100EB000012200F2352105F027F90E490E4B0028DA
:100EC00008BF19464FF0FF32284608F0A3F8204625
:100ED000F8BD00BFC6360200D036020068360200F8
:100EE0005E360200DD3602008536020075360200ED
:100EF000E6360200AA3602009C36020008B5084613
:100F00004FF0FF32084908F085F806F0E5FB4FF492
:100F1000FA6009F04BFA4FF08043AA221A720022BD
:100F20001A70012008BD00BFF236020010B5012082
:100F30000C4606F0D3FF38B100210A460B4608F0F4
:100F400063FD2046044901E0204604494FF0FF328A
:100F500008F060F8012010BD0337020019370200C5
:100F600038B5064C236833B91C20FFF785F90546D0
:100F700007F01EFD2560206838BD00BFE0C10720D6
:100F80002DE9F04F0D46C7B05549814607F092F85C
:100F900054498246484607F08DF8534983464846EF
:100FA00007F088F800270DF1100805AE04460297F7
:100FB0000397C8F800703760BAF1000F45D000966B
:100FC00048464A4902AA03AB06F0C5FF012807DCE0
:100FD000284647494FF0FF3208F01CF838467CE0BD
:100FE0000DF118084FF480744046394622460BF044
:100FF0005FFF336813B90123336003E0B3F5807FEB
:1010000088BF3460FFF7ACFF33689DF808109DF887
:101010000C200093434608F0F8F8364A364B37491F
:10102000002808BF13462846029A08F029F8002431
:1010300033689C424ED2039A18F804302244284662
:101040002F4908F01DF80134F2E7BBF1000F2CD056
:10105000CDF8008048462B4902AA03AB06F07BFF7F
:10106000032807D0284628494FF0FF3207F0D2FF67
:10107000504632E0FFF774FF9DF808109DF80C20F1
:1010800098F8003008F0D6F848B1039B2846009342
:101090001E49D8F80020029B07F0F2FF1AE028460C
:1010A0001B49029A07F0ECFF14E0A8B10223029357
:1010B000029BFE2B10DCFFF753FF9DF8081008F091
:1010C000C4F820B128461349029A07F0D9FF029BC1
:1010D0000233ECE7012000E0204647B0BDE8F08F86
:1010E00035450200523702005837020061370200CE
:1010F000703702006F360200653602009137020039
:10110000B5370200C5370200D5370200FC370200B0
:1011100016380200333802002DE9F04F5F4C91B0D1
:1011200023680E4633B92C20FFF7A6F8054607F0D2
:10113000D3FE25602768FFF7A1F90DF1400B0024CD
:101140004BF80C4D00F2352059460CAA05F0B6FBC1
:1011500048B90C9A0D9C95699378023D5C435D43B8
:1011600064086D0800E025464D4B1A6898467AB928
:101170000C20FFF781F88146FFF7F2FE902389F8F3
:1011800004300023C9F80000C9F80830C8F80090FE
:10119000D8F8000002F0C4FF80460BF007F9824641
:1011A0000AF060FF014640460AF0A6FE3D490AF0FB
:1011B000ADFF0BF0FBF88146584609F043FD03F004
:1011C000FDFE50B307F02AFE03F0E2FE00230246C4
:1011D00098469B4693420DD018460B920A9303F013
:1011E0003BFF0A9B584588BF98460B9A88BF8346A9
:1011F0000133EFE707F02AFE642303FB0BF32A4ACF
:101200003046B3FBF2F3C3F164038DE808092749C4
:1012100022462B4607F034FF05E03046244922469B
:101220002B4607F02DFF234C23681BB90120FFF745
:1012300023F82060206802F038FF044607F074FDB0
:101240009DF83930019003F00F0302939DF8383078
:10125000009403F01F030393BDF83A303046C3F304
:101260000B0304939DF83630134903F01F030593D5
:101270009DF83530524603F03F0306939DF8343015
:1012800003F03F030793BB8C0893FB8C09934B46F9
:1012900007F0F6FE012011B0BDE8F08FE4C1072091
:1012A000D8C1072000002041A08601005938020063
:1012B0008D380200DCC107209B38020070B5ADF507
:1012C0000A7D05460C4606F03DFE0B2803DD204650
:1012D00023490C223DE0284606F0C7FF01220146C3
:1012E00001A804F04FFF064668BB01A805F0BBF952
:1012F000284606F0BAFF1B490246049B204607F029
:10130000BFFE236820469B6898470A2009F04EF8E4
:101310004FF0100383F31188BFF36F8FBFF34F8F2C
:10132000284606F0A2FF02460F4B0068516803C32F
:1013300090680E4A186043F80C2C4FF08043AA22A4
:101340001A721E7007E0284606F08FFF02462046FC
:10135000074907F095FE01200DF50A7D70BD00BF1D
:10136000183902003F390200484002400DD0ADDE7E
:1013700086390200F0B5404CA5B023680646DB076D
:101380000D460CD420460AF07BF840B14FF4806043
:101390000BF03AFD394B186020460AF07DF83046D4
:1013A000374906F087FE0746044610B30021802225
:1013B00004A80BF07DFD00230293039303AB00937D
:1013C000304904AA02AB304606F0C5FD2B4A029B09
:1013D000116804A8039A13B902F054FF01E002F067
:1013E00074FF0346284A29492846002B18BF114696
:1013F00037E03046264906F05DFE0746002838D023
:10140000304604AB234903AA039404948DF80840A2
:1014100006F0A1FD039E049B3344B3F5806F0DDD00
:1014200028461D494FF4806221E0144B9DF80820A6
:101430001B689A559DF8083001361C44039B049A9A
:10144000F31A934210DAB6F5806F0DDA2B6828464E
:101450001B6802A94FF4FA6298470028E5D1284694
:101460000E4907F00DFE04E0284622460C4907F01D
:1014700007FE384625B0F0BDF4C10720F0C10720B3
:10148000B1390200B83902009F3902009B390200CD
:10149000C8390200CF390200D9390200FD390200F3
:1014A0000D3A020030B50C46054687B00A4907F0F0
:1014B000E7FDA17A62880091E17A23880191E188B1
:1014C0002846029121890391A1880491034907F0DC
:1014D000D7FD07B030BD00BF1E3A0200543A0200EB
:1014E0001FB501A80C4602F0FFF801F0E9FD01A9C3
:1014F00002462046FFF7D6FF012004B010BD0000D1
:101500002DE9F0418CB003AB002400930E46154644
:101510003A49022202AB0294039406F02AFDA0424B
:1015200039DD02980BF065FA5FFA80F8039818B17C
:101530000DF083F9C4B200E0044604A8002102F0D3
:101540005BFC30B130462E494FF0FF3207F062FDB0
:10155000F3E7003518BF01250223009340462946D2
:10156000039A234601F0E2FE074638B93046254982
:101570004FF0FF3207F04EFD01273BE0002D39D040
:1015800004A84FF47A7102F041FC70B39DF810305A
:1015900043452AD101E027462CE09DF817300C2B5B
:1015A00004D1304606A94246FFF77CFF3046B4B965
:1015B000154907F065FD9DF817309C420ADA33683B
:1015C00004AA2244117A5B6830464FF0FF329847F4
:1015D0000134F0E730460D4907F052FD0AE00C49AE
:1015E0004FF0FF3207F016FD04E030460949029A39
:1015F00007F046FD38460CB0BDE8F0811244020009
:10160000723A0200943A0200BC3A0200074102001A
:10161000D03A0200ED3A020038B50D4606F027FE3A
:101620000446C0B201F040FD054A064B06490028B9
:1016300008BF13462846224607F022FD012038BD88
:10164000133B0200653602001A3B020037B50C4618
:1016500001F0AEFE05461649204607F011FD15497A
:1016600020462A4607F00CFD2046114907F008FDE8
:10167000D5B11149204607F003FD20460C4907F07B
:10168000FFFC0025E8B201F07DFE013540B1817814
:101690000278437800912046084907F0F1FCF1E711
:1016A0002046034907F0ECFC012003B030BD00BF29
:1016B000313B02004C3B0200663B0200813B0200D2
:1016C00030B58BB00AAA4FF47A730C4642F8243D29
:1016D000174906F040FC002502A8019902F08CFB96
:1016E000D8B1204613499DF8082007F0C9FC002511
:1016F0009DF80F309D420ADA236802AA2A44117A23
:101700005B6820464FF0FF3298470135F0E72046EE
:10171000094907F0B5FC0125DEE72DB92046074948
:101720004FF0FF3207F076FC01200BB030BD00BF58
:10173000D63902009C3B020084390200B33B020010
:101740002DE9F3473C4C074626688946002E62D1B6
:101750002420FEF791FD0423054680E848008660BA
:10176000C660202130460CF0F7FDAE68E8604FEA15
:101770008608072E0ED81020FEF77EFD8246002137
:1017800010220BF095FBEB68013643F808A008F136
:101790000408EEE7002608234FF001086B6085F887
:1017A000208028462549264A264B0096256005F0CC
:1017B0000FFD20682449254A254B009605F008FDB9
:1017C00020682449244A254B009605F001FD206835
:1017D0002349244A244B009605F0FAFC206823494B
:1017E000234A244B009605F0F3FC20682249234A43
:1017F000234BCDF8008005F0EBFC20681E49214A00
:10180000214B009605F0E4FC009620681F49204A11
:10181000204B05F0DDFC38461F4906F024FD18B1C9
:1018200038461E4906F0D9FD39464A46206802B0BE
:10183000BDE8F04705F0AEBDFCC10720ED1A010080
:10184000C43B0200CB3B0200C1180100053C020072
:101850000E3C0200C1160100623C0200653C020021
:1018600019160100E7410200883C02004D160100F4
:10187000CE3C0200B23C020001150100173D0200FF
:10188000D53C0200163D02001B3D0200E1140100A0
:101890005B3D0200403D020085390200613D0200CF
:1018A00038B5064C236833B95820FEF7E5FC0546E9
:1018B00007F056F92560206838BD00BFF8C1072041
:1018C0002DE9F04F0446ADF2DC5D80220DF1B40944
:1018D00088460DA800210BF0EBFA00218022484633
:1018E0000BF0E6FA06AE00233360204600967549F9
:1018F0000DAA4B4606F02FFB032801D00020DDE0A7
:10190000EDA80DA9012204F03DFC05460028F5D103
:10191000FFF7C6FF33684DA980F853308022044694
:1019200008A88DF81750079506F0E4FACDF8009056
:10193000404665490DAA336807F0A2FB2F46EDA883
:101940006DA94FF4007207AB04F0B5FC38B1EDA8F7
:1019500004F089FE08A806F0E3FA0120AEE0079B38
:10196000002BF4D06E1C5949079A204607F088FBDB
:10197000236820469B6898476DAB9B46751E4FF0C9
:10198000000A0799C3EB0B028A4222680FD2039325
:10199000CDF808B0D2F804C020464FF0FF321BF853
:1019A000011BE047029B1A78039B9244E9E7936886
:1019B0002046984708A806F058FC834608A806F079
:1019C000C4FA4FF47A7302465946204607F030FBBA
:1019D0000121202208A806F0F4FB08A806F047FC25
:1019E000504520D008A806F042FC3949034652462B
:1019F000404607F045FB2046364907F041FB236887
:101A000020469B689847236820461B680DF1170104
:101A10004FF47A7298470028F5D1022E06F101039F
:101A200095D81E469FE7079B2B494A4600932046C0
:101A30003B4607F025FB236820469B68984708A88B
:101A400006F013FC824608A806F07FFA51460246CB
:101A50004FF47A73204607F0EBFA08A81F4906F006
:101A600000FBD0B908A806F000FC1D49024640461C
:101A700007F006FB2046174907F002FB23682046C3
:101A80009B689847236820461B680DF117014FF4A7
:101A90007A7298470028F5D1BFE708A8114906F0E7
:101AA0009CFC079B40461F440F493A46F09B07F0B9
:101AB000E7FA002D3FF443AF013D40E70DF2DC5D56
:101AC000BDE8F08F663D0200753D02008C3D0200CE
:101AD0009E3D020084390200C53D0200DB3D02004C
:101AE000DE3D020085390200163E02002DE9F0417C
:101AF000074686B006AA002442F80C4D0E463C4923
:101B000006F029FA38460121202206F05AFB039BF1
:101B1000002B63D0384606F015FA00285ED0FFF798
:101B2000BFFE05468DF80B402B6828461B680DF15B
:101B30000B010522984704460028F5D1039B38463F
:101B400085F8533006F091FB274601464FF0FF32EF
:101B5000284607F05FFA2B6828469B689847254B74
:101B60000594186804902B6828461B680DF10B013A
:101B70004FF47A72984778B10DF11501032205A848
:101B80000BF07BF99DF80B8005A804A904228DF8C1
:101B900017800BF057F938B91822B7FBF2F302FBA4
:101BA000137262B101330AE0336830465B68414624
:101BB0000122013798470028D5D10134D3E73046B8
:101BC0000D493A4607F05CFA74B161230093304640
:101BD0000A4922460A4B07F053FA05E03046094904
:101BE0004FF0FF3207F016FA012006B0BDE8F08191
:101BF000D63902001A3A0200223E0200493E020093
:101C0000023F02003E3F020001480CF03BBB00BF18
:101C10006A3F020038B504460D4609F019FB074B30
:101C2000B0FBF3F00223B0FBF3F2954201D3236142
:101C300038BDB3F5807FFAD00233F4E740420F009D
:101C40007FB500F235260C460122314604F05CFADD
:101C5000054650BB04A941F8040D02AA304604F021
:101C60002DFE00BB029A039B9078926903FB00F162
:101C7000023A42435208B2F5004F104834BF0125E2
:101C80004FF480654FEA51010D4BB1FBF5F128BFD0
:101C90000346B2FBF5F28DE80A000A4821460CF033
:101CA0007BFA012008E0084B00E0084B0848214679
:101CB0002A460CF071FA002004B070BDA83F020063
:101CC000A53F0200B23F0200AB3F0200AF3F02005F
:101CD000E03F020038B5074C23684BB90820FEF7F7
:101CE000CBFA0546FFF73CF9402328602B712560AD
:101CF000206838BD08C2072038B5054C256825B9CD
:101D00000120FEF7B9FA05702060206838BD00BFD9
:101D100004C2072038B5084C23685BB90C20FEF7D5
:101D2000ABFA0546FFF71CF990232B7100232860BE
:101D3000AB602560206838BDD8C1072010B5044CC1
:101D400023681BB90120FEF797FA2060206810BDB8
:101D5000DCC1072010B5044C23681BB90120FEF735
:101D60008BFA2060206810BD00C20720AD49AE4A42
:101D70004023F0B58B614FF0007393614FF48033D3
:101D80008B61AA4BADF5057D1868072520F0F000A2
:101D900018601868022440F050001860186820F499
:101DA00040501860086840F040000860186820F44F
:101DB0007C201860186840F428201860186820F407
:101DC00070001860186840F420001860186820F04F
:101DD00040401860186840F000401860586820F0D3
:101DE0003C005860586840F028005860586820F05F
:101DF00003005860086840F480300860586820F498
:101E000040505860086820F480000860D96821F4C8
:101E10004031D960116841F080711160596821F436
:101E200040215960596841F480215960986880497F
:101E300001409960116841F4897141F0010111601C
:101E4000996821F470119960996821F07041996046
:101E5000116821F446411160D96821F03001D96040
:101E6000D96841F03001D960D96821F47011D96086
:101E7000136843F000731360136823F080631360EA
:101E800006F008FB0A20012109F002F80A200121CE
:101E900009F016F86748012105604460FFF7BAFEB3
:101EA00006F04CFF1520012108F0F2FF152001215A
:101EB00009F006F86048012105604460FFF7AAFEBA
:101EC000FFF74EF8642106F03DFD10B95B480CF0B9
:101ED000D9F909F01BF801F069FF10B958480CF066
:101EE000D1F94FF4FA6006F08FFAFFF78DFE09F092
:101EF000AFF90AF0B3F853490AF0BCF909F034FF1E
:101F000002460B4650480CF047F908F095FE0528AC
:101F100004AC14D1002363604C4B1B682360FFF7B3
:101F200073FE4B4B4B48D96C1A6D5B6D00940CF0F3
:101F300033F9FFF769FE41F2883006F065FAFEF7E3
:101F40009DFA4549FFF77CFE054668BB43480CF007
:101F500023F903F0ABF8FEF791FA29462A4600F27E
:101F6000352004F0A7FE3E4B3E4A00280CBF104629
:101F700018460CF087F9FEF781FA3749FFF760FE43
:101F800090B939480CF07EF903F012F80146374851
:101F90000CF002F902F0FCFF054603F009F805FB1E
:101FA00000F133480CF0F8F8324E334F336813F039
:101FB000010516D1304609F063FA90B14FF40E7066
:101FC000FEF75AF9012380F83432312380F8353294
:101FD0003A2380F8363280F837523860304609F0BC
:101FE0005BFA26493868264DFFF72AFE114818216A
:101FF000FFF710FEFFF708FE2B684BB90820FEF72D
:102000003BF90646FEF7ACFF3823306033712E6093
:10201000286801F04AFF0546B0BB1A480CF032F9B7
:1020200033E000BF00C0092020C0092000C00240EA
:10203000F0FCFCFF00000340008008402440020048
:1020400055400200002474497A4002004440024096
:1020500000400240924002000A4102001241020088
:1020600018400200134002004F4102006E4102007E
:102070007D410200E8C10720D0C10720943602004C
:1020800010C20720984102000125FFF743FE02F02D
:102090001DF8064618B972480CF0F4F83546FFF7FB
:1020A00019FE01F083FF064618B96E480CF0EAF8F5
:1020B00035466D4E33681BB90120FEF7DDF8306000
:1020C000306801F041FFFFF739FE01F0ECFFFFF748
:1020D00013FE01F0A5FFFFF73DFE01F0E9FFFFF75A
:1020E0000BFE002101F09EFF8DB9FFF78DFDFFF77C
:1020F000F1FD2D2101F042FFFFF7ECFD2D2101F054
:1021000049FFFFF7F9FDFF2101F08CFF0CE0FFF71D
:10211000E1FD0546FFF7FEFD02F002F80AF06CF95A
:10212000C1B2284601F05EFF0021102220460AF0CD
:10213000BFFE4E4821460F22002302F080F880B9EE
:1021400020460AF056FCC5B2284600F0ADFF484ACA
:10215000484B2946002808BF13464748434A0CF01D
:102160001BF8FFF7EBFD01F0A0FF054600200DF086
:102170000BFB28440CF08EF84FF40072002120462F
:102180000AF096FE204608F0FFFE21463B480CF080
:1021900003F8FFF739FD8022002120460AF088FE6F
:1021A000204602F0E1FE2278FF2A04D0214634487E
:1021B0000BF0F2FF29E0FFF7CDFD01F07BFF0928CE
:1021C0001DD130480CF05EF821462F480CF096F9EE
:1021D00021462E480BF0E0FF2D480CF053F8002369
:1021E0002C4803A903930CF089F99DF80C30592B66
:1021F00003D1204602F096FE07E0274803E0274877
:102200000CF040F826480CF03DF84FF208031C682B
:102210004FF20C031D684FF210031E684FF20403C7
:1022200019684FF470431A68A40AAD0A1D480BF0F0
:10223000B3FF224629461C480BF0AEFF31461B482F
:102240000BF0AAFFFFF7E0FC012005F07BFA18482D
:102250000CF018F8FFF7D8FC0DF5057DF0BD00BFB8
:10226000B3410200CD4102000CC20720E64102004A
:10227000133B02001E400200EC4102000252020029
:10228000204202003C4202005E4202006342020021
:102290007E420200C1420200C5420200DD4202004D
:1022A0000B4302003D4302006943020096430200D3
:1022B000B34302000120704701207047012070479E
:1022C00010B5044C23681BB90120FDF7D5FF206031
:1022D000206810BD0CC2072001207047F8B50446E5
:1022E0000E46C06889000CF037F8A568E060AF00C2
:1022F000B5420BD20C20FDF7BFFF00230360436003
:102300000372E3680135D8510437F1E76660F8BD20
:1023100038B504460F4B00250360636DE06D9D42A8
:1023200005D250F82500FDF7A9FF0135F5E708B102
:10233000FDF7A6FF0025A36B206C9D4205D250F847
:102340002500FDF79BFF0135F5E708B1FDF798FF84
:10235000204638BDF043020010B50446FFF7D8FF11
:102360002046FDF78BFF204610BD0000F7B5044660
:1023700000250B464FF480520095254905F094FD49
:10238000244B042623606663A563E563256404F19A
:1023900034000221FFF7A2FF26656565A565E565A6
:1023A000284660210BF0D8FFA56DE065AE00172D23
:1023B0000CD81020FDF760FF0746002110220AF01C
:1023C00077FDE36D01359F510436F0E7182363650F
:1023D000012384F87030104E0023A4F87430A4F860
:1023E0007630A367002200230027C4E92023C4E934
:1023F000226708F0B5FD4FF47A7200230AF01CF84A
:1024000080197941C4E92001204603B0F0BD00BF26
:1024100008440200F0430200C0D401002DE9F0415D
:1024200091E860000F7A14468FB1082A23D1304614
:1024300005F088FD00281CDD284614494FF0FF32C6
:1024400006F0D4FD3046012105F07BFE08E00A2AA3
:1024500019D00D2A12D03046214605F093FF97B1CE
:102460002B6828462146BDE8F0415B684FF0FF32FB
:1024700018470724F4E70A2A02D1F1E7BDE8F08102
:102480000D2AE8D1ECE7BDE8F08100BF114402005D
:10249000F8B50446142015460F46FDF7EDFE8021E1
:1024A000064605F01FFFA36BE26B9A4206D3616BF1
:1024B000591803D204F13400FFF710FFE36B226CCC
:1024C000591C52F82330E1631F605E601D72F8BD35
:1024D0002DE9F043CF6B85B006460D4601AC4FB9F0
:1024E0004FF47A7007F062FF204639460C220AF05A
:1024F000DFFC47E00B6C1B6893E8070084E80700EB
:1025000000238DF8033007F02BFE80460027EB6B8D
:102510009F4263D22B6C4FEA870953F82730186823
:10252000037C33B103680DF103011B680022984757
:1025300008B90137EBE7EB6B9F422BD22B6C53F8BA
:10254000093093E8070084E807009DF80320284637
:102550002146FFF763FF08F003FD4FF47A72002372
:1025600009F06AFFD5E9222380185941C5E9200105
:10257000029805F0E7FC0746029805F0E6FC0138F2
:1025800087420ADB94E8070086E80700304605B07A
:10259000BDE8F08305F14403D3E7D5E922231343D3
:1025A00024D008F0DDFC4FF47A72002309F044FFD8
:1025B000D5E92023994208BF904217D308F0D0FCF8
:1025C0004FF47A72002309F037FFD5E922238018EF
:1025D00059410023C5E920010193D3E707F0C0FD6D
:1025E0004045C5D1022007F0E1FEC1E79DF8033068
:1025F0000A2B88D1C6E70000F0B5064685B0204812
:102600000BF0CAFD01A83146FFF762FF019C1CB91F
:102610001C480BF037FE30E0029F384605F092FC74
:1026200000282ADD08F09CFC0546F8B1B6F87430A5
:1026300006F150000133A6F874303946224604F002
:10264000A9FE114B00261868009023681DF806109B
:102650005B6820464FF0FF3201369847042EF4D1D4
:1026600008F07EFC411B09480BF096FD384605F04A
:102670006EFC236820469B689847012005B0F0BD9A
:102680001444020085390200E14302001A440200AA
:1026900038B5064C236833B92C20FDF7EDFD05460F
:1026A00006F01AFC2560206838BD00BFE4C1072091
:1026B00010B50446FFF7ECFF03682146BDE8104063
:1026C0005B684FF0FF32184713B5002302AC04F8E3
:1026D000013DFFF7DDFF036821461B684FF0FF3225
:1026E00098479DF8070002B010BD00002DE9F041A9
:1026F00000F150048AB000250746009520465B494A
:102700005B4A5C4B04F064FD009520465A495B4AE5
:102710005B4B04F05DFD009520465A495A4A5B4BDD
:1027200004F056FD0095204659495A4A5A4B04F088
:102730004FFD009520465949594A5A4B04F048FD2F
:10274000009520465849594A594B04F041FD0095DF
:1027500020465849584A594B04F03AFD0095204606
:102760005749584A584B04F033FD009520465749C5
:10277000574A584B04F02CFD009520465649574ABD
:10278000574B04F025FD009520465649564A574BB5
:1027900004F01EFD009520465549564A564B04F05C
:1027A00017FD009520465549554A564B04F010FD3B
:1027B000009520465449554A554B04F009FD0095B3
:1027C00020465449544A554B04F002FD00952046DA
:1027D0005349544A544B04F0FBFC0095204653499E
:1027E000534A544B04F0F4FC009520465249534A96
:1027F000534B04F0EDFC009520465249524A534B8E
:1028000004F0E6FC009520465149524A524B04F030
:10281000DFFCFFF73DFF4FF480734FF41641202299
:10282000054606F039FB804601262E744B48FDF71D
:1028300089FD4B48FDF780FD384629463246FFF7B3
:1028400027FE03A9082205A805F054FB05A8454961
:1028500005F0C3FD05A92A46204604F09BFD05A806
:1028600005F05EFB40460AB0BDE8F0810D050100B1
:102870007A44020030440200F90501006744020076
:102880006F440200191101008D4402007F440200D0
:102890001D060100D544020094440200F108010025
:1028A000DA440200DE440200710801007D450200A6
:1028B0003A450200010D01007C45020080450200FE
:1028C000FD090100CB450200CE4502007D0B010051
:1028D000FC45020002460200F50B010027460200FB
:1028E0002A460200510C0100F15D02005746020029
:1028F000B90B01007C4602007F460200810F0100F7
:10290000A2460200A6460200410E010079470200DD
:1029100081470200FD0E0100C4470200CB470200C0
:10292000E1060100DE470200E24702002D0F010030
:10293000E1480200E748020041170100714002002F
:102940000F490200751301002D4A020039490200A7
:10295000BD120100D7360200F6490200C926010067
:10296000B1260100613D020013B5002464218022DC
:102970004FF4807300940194204605F081FE2046B8
:1029800005F044FF012002B010BD0120704708B5DA
:1029900005F048FFFFF7B0F9BDE80840012101F05C
:1029A0006FBB08B5FFF7A8F9BDE80840022101F0A8
:1029B00067BB08B5FFF7A0F9BDE80840032101F0A7
:1029C0005FBB08B5FFF798F9BDE80840042101F0A6
:1029D00057BB704710B50024074B002118684FF013
:1029E000FF320B4607F014F920B101342046FFF7FF
:1029F000CEFFF1E710BD00BF18C2072010B50024BC
:102A0000074B002158684FF0FF320B4607F000F9E2
:102A100020B101342046FFF7C4FFF1E710BD00BF2D
:102A200018C2072010B50024074B002198684FF00A
:102A3000FF320B4607F0ECF820B101342046FFF7D7
:102A4000B8FFF1E710BD00BF18C2072010B5002481
:102A5000074B0021D8684FF0FF320B4607F0D8F83B
:102A600020B101342046FFF7ACFFF1E710BD00BFF5
:102A700018C20720FFF778BFFFF787BF10B50446DD
:102A8000FDF7FCFB204610BD73B50E4605462E4BE8
:102A900000241A682D490D23009405F005FA2C4BEB
:102AA000A6422B6014BF01230A23EB6185F8316035
:102AB000214603222C62012006F080FF254E21468C
:102AC00030600322012006F079FF21467060032266
:102AD000012006F073FF95F83130B0602BB1012072
:102AE0002146032206F06AFFF0601B4B00241E689B
:102AF0000523C6F38F068DE8180018493246234691
:102B0000174807F0E7F906238DE818001549324603
:102B10002346154807F0DEF907238DE8180013480F
:102B200023461349324607F0D5F995F8313043B1C1
:102B300008238DE818000F480F493246234607F056
:102B4000C9F9284602B070BD544A0200684A020022
:102B5000104B020018C20720504A0200734A0200BC
:102B6000D5290100774A0200FD290100252A01002C
:102B70007C4A02004D2A0100824A020070B50D46CF
:102B80001A4B002453F8216019494B5D0133DBB225
:102B9000934202D04B55204670BD4C5530462146DD
:102BA0002246234607F034F80146B8B1114B53F8DA
:102BB000255028460BF066FB28460BF03EFE2346C8
:102BC000024629460C4801F080FB0C4A0C4B9A64E3
:102BD0004FF08043AA221A721C7004E030460A4665
:102BE0000B4606F011FF012070BD00BF18C2072080
:102BF00014C20720584A0200894A0200EFBEADDE27
:102C00000040024010B590F831300446B3B10321C2
:102C10000122FFF7B3FFA0B1204602210A22FFF7ED
:102C2000ADFF70B1204601210A22FFF7A7FF40B196
:102C3000204600210A22FFF7A1FF02E00221012223
:102C4000EDE7012010BD704708B501F0E9F801205B
:102C500008BD10B50446FDF711FB204610BD00006D
:102C600037B59020FDF708FB04460321FFF77EFBF4
:102C7000204605F0EBF83420FDF7FEFA0546002467
:102C80004FF400720D490094042305F00DF90C4B2C
:102C900028462B6005F0DAF83420FDF7EDFA0546FA
:102CA0002146FFF7F1FE284605F0D0F820462146E0
:102CB00005F0DAF84FF0FF3003B030BD714002008C
:102CC000504B0200242310B503FB010188420BD0B6
:102CD00043783BB1038CD4184FF6FF73A34228BF4F
:102CE000234603842430F1E710BD000037B50023EC
:102CF00002A840F8043D0C4B04215B6898470B4B3D
:102D0000019A1C680546141B1A60094822460421D2
:102D1000FFF7D8FF074802212246FFF7D3FF281C00
:102D200018BF012003B030BD28C20720F4C207201D
:102D30003CC2072017C3072008B50B4B197803784E
:102D40008B420A4B0BBF1A889A880132013214BF9A
:102D50009A801A80064B8170DB68202198470030EA
:102D600018BF012008BD00BF05C00720E4C207202E
:102D700028C207200A4B02781B789A42094B0BBFE6
:102D8000DA881A89013201320CBFDA801A8103799C
:102D9000C3F3C202073262F3C5030371FFF7CCBF6E
:102DA00005C00720E4C2072010B5002306499A0099
:102DB00011F82340844201D1881810BD0133042B3F
:102DC000F4D1002010BD00BF05C3072070B1C37847
:102DD0000133DBB2FF2BC37008D10023044A1A442D
:102DE000D17804334908102BD170F7D1704700BF58
:102DF00005C30720242202FB01010346024630B529
:102E00008A4206D01446243212F8235C002DF7D1F2
:102E10000FE0044600258B420BD01A79C2F3C200A2
:102E20001A8C42EA004295423CBF1C4615462433A8
:102E3000F1E7204630BD000038B50546C90001F174
:102E40000804FFF753FF1C4B1A782B789A4204D1E1
:102E500002211A48FFF7CEFF0CE019480421FFF7C2
:102E6000C9FFEB7833B990F82330042443F0800392
:102E700080F82330002380F8203080F8213002468B
:102E80002B4690F8231080F8224021F07F01C4F3F4
:102E900006240C4380F8234005F1200153F8044B2D
:102EA0008B4242F8044BF9D1064A0379127862F357
:102EB000C503037138BD00BF05C0072017C3072035
:102EC0003CC2072004C0072010B5FFF76DFF044681
:102ED000F8B9FFF769FF0446D8B90F4BDA79D9780A
:102EE0008A4228BF0A46D97A34BF1C1D1C4691422B
:102EF0002CBF1146094CDA7B094B8A4238BF1C466D
:102F000004222046002109F0D3FF064AD37A013378
:102F1000D372204610BD00BF05C307200DC3072094
:102F200011C30720E4C207202DE9F04105460C46F5
:102F30004FF0240808FB02188E1D444500F09E80C7
:102F400094F823301A0625D5BDB12A7861788A42D3
:102F500005D16F7816F8060C874200F09180E8786A
:102F600058B16878884208D116F8061C914204D1FD
:102F7000A979A279914200F0838094F82220218CD3
:102F800003F07F0342EA0323994274DB2046FFF7F4
:102F9000D3FE75E06278002A6DD06DB3297901F017
:102FA000C001C02917D116F8060C6978884202D1F1
:102FB0002878904264D0E778A87887420CD1914273
:102FC0000AD116F8060C2978884205D1A079A9798A
:102FD000884201D154E079B1A878E17888420BD1D8
:102FE0006978914208D116F8060C2978884203D1F5
:102FF000A079A979884249D094F82210208C03F056
:103000007F0341EA0323984235DB002384F8203014
:1030100084F821302379C3F3C201CFB21FB1204617
:10302000FFF7A8FE27E003F0C003C02B19D01C4B0C
:1030300016F8060C1B78984213D1E378934210D00F
:103040007BB16379032262F307136371E170204659
:10305000FFF790FE134A2379127862F3C5032371B8
:1030600000E001276078FFF79FFE18B100210422DD
:1030700009F01EFF27B9243424365EE7BDE8F0814D
:1030800020460021242209F013FFF4E722790023CF
:1030900063F3C50284F8203084F821302271EAE716
:1030A00005C0072004C00720431EDBB2FD2B9DBFD7
:1030B000024B187001200020704700BF05C0072098
:1030C000014B1878704700BF05C0072007289CBF38
:1030D000014B1870704700BF04C007202DE9F7436B
:1030E000044691461E469DF828500F46002963D09D
:1030F000354B93F80080414560D00F2E5ED80028F4
:103100005ED02022002109F0D3FEFF2F237914BFC7
:1031100009F00302002262F38713032262F3020321
:103120002A4A6770127884F8008062F3C503284A3F
:103130002371137884F802800133DBB21370A3711A
:103140000BAB019315B94FF0010818E0019AE07933
:103150001346526853F8081B00EB02085FFA88F820
:10316000013DB8F1180F0193EDB206D808302044A4
:1031700009F078FE84F80780E4E74FF00008DFF8F4
:1031800054900123384689F80030FFF70DFE0546BC
:10319000FFF71CFE002389F80030637925B966F338
:1031A00007136371E57005E0AA7862F30713637192
:1031B0006B78E370404603E0084601E00020FFE73B
:1031C00003B0BDE8F08300BF05C0072004C007209E
:1031D00015C30720F0C20720124B012270B51A70E8
:1031E00004461E4608B9002518E0FFF7A5FD054670
:1031F0000028F8D0237903F0C003402B06D0C02B61
:103200000AD1E37853B162789A4207D061792046B7
:103210000909FFF711FE01E0802BF7D0002333707E
:10322000284670BDF0C2072082B0F0B51746421E96
:10323000D2B28DB0FD2A04460D46139301D9002069
:103240005AE0002BFBD0159B002BF8D0179B002BCE
:10325000F5D0169B002BF2D0149B002BEFD0002151
:103260004822284809F024FE00219022264809F02F
:103270001FFE00211022254809F01AFE00210C2211
:10328000234809F015FE00210C22224809F010FE07
:10329000214E224B1C703446214B1D7013AD0FCDB7
:1032A0000FC42B68002118221E48236009F000FE7D
:1032B00039461C4817220BF004FB0020B368014676
:1032C00098470028BBD09DF8603013B9FFF70EFD7A
:1032D00012E0154A0123019206220292009304A8EB
:1032E000FF210022FFF7FAFE0028A8D004A8FFF76C
:1032F00073FF0028A3D0E9E70DB0BDE8F04002B0AD
:10330000704700BF17C307203CC2072005C3072032
:10331000F9C20720E4C2072028C2072005C0072001
:10332000F8C20720CCC20720684B020030B5182B2A
:103330008DB005460C4615D8B2FA82F1181C18BF9C
:103340000120490981420DD08DE80D00294604A8CD
:1033500022469DF84030FFF7C1FE18B104A8FFF7E0
:103360003BFF00E000200DB030BD13B504461078DF
:1033700052790B461209009203212246FFF7D6FF2D
:1033800002B010BD00231A4630B5084C990014F85D
:1033900023502DB1904201D1601830BD0132D2B21C
:1033A0000133042BF1D1002030BD00BF05C307203D
:1033B00000231846044A12F823200AB10130C0B293
:1033C0000133042BF6D1704705C307202DE9F041E6
:1033D00088B068460021202209F06AFDA14B1B78C5
:1033E00003F0FF04002B40F03A819F4E684633699A
:1033F00020219847002800F083809C4D6B88013382
:103400006B80FFF7D5FF9DF80420A87202F0070338
:10341000032B04D0964A137843F0010309E0954B3F
:103420001D789DF80230AB4205D1914A137843F0E4
:1034300002031370E3E0C2F3C2029DF800E09DF8BE
:103440000600D7B28C4904EB440313F801C0F445DD
:103450000AD10B445978814206D199780124CF1BB7
:1034600018BF01279A7018E00134042CEAD183496F
:103470000B689A70804A587002F10900834283F801
:1034800000E040F0C9800A609DF800009DF802301D
:10349000834240F0C480002427469DF80200FFF7D5
:1034A00013FD9DF8022002709DF802204270002258
:1034B0008270FFF78BFC04B117B39DF80030AB426C
:1034C00000F09C809DF80170FF2F1BD13368684687
:1034D0002021984720B9664A137843F004031370FB
:1034E0009DF8053003F00F02511C61F303038DF8C2
:1034F0000530C3F303139A4202DA6846FFF71CFC57
:1035000000247CE0BD422BD164B99DF807304BB15B
:10351000336868462021984720B9554A137843F00C
:10352000040313709DF8043003F0C003402B12D144
:103530009DF8073013B95248182108E04B480C2178
:103540006A46FFF712FF002858D1002001466A465C
:10355000FFF70BFF52E09DF80330002B4ED1F4E74C
:10356000484B1B78002BCBD09DF8054004F00F068C
:103570004FEA14184645C3DA013666F303043846A9
:10358000FFF712FC8DF805409DF80340A5421ED1BF
:103590009DF8041001F0C001402906D0A1F180037C
:1035A0005A425A41144618B91BE00122002854D04F
:1035B000C029437805D19F4203D0003318BF0123AF
:1035C00000E00023134303F0010428B90BE0ACB979
:1035D00010B9684641460FE043788DF8033085788E
:1035E00004E0C02939D000258DF803506846FFF764
:1035F000A3FB1CB168462946FFF71EFC6C46FFF78B
:1036000075FB204620490422FFF78EFC20461F4907
:103610000222FFF789FC22E003330B6034E7854286
:103620003FF439AFFFF750FC0446FFF7CFFB237898
:103630003BB19DF80530A27803F00F0393423FF7AA
:103640002AAF9DF8003023709DF8023063709DF81A
:103650000530C3F30303A3701DE70346B2E708B0C8
:10366000BDE8F081F0C2072028C20720E4C207208D
:1036700016C3072005C00720F9C2072000C0072095
:10368000CCC20720F8C207203CC2072017C307207E
:1036900000231846094A1A4452780AB10130C0B2D0
:1036A0002433902BF6D1064B5A780AB10130C0B2C0
:1036B00093F825300BB10130C0B270473CC20720EF
:1036C00017C3072008B5FFF76FFB064B28B18278B8
:1036D000187802FB0000C00008BD18781823584372
:1036E00008BD00BF04C0072003490B6803604B6896
:1036F00043608B6883607047E4C2072030B5414C5B
:103700004FF48035E561404CA060E068C506FCD40C
:103710003D488068C0B20BB90C4665E00B46002AF4
:103720006AD0072A384C0D782FDDA5604D78083A0D
:10373000A5608D78A560CD78A5600D79A5604D79DF
:10374000A5608D79A56001F10805C979A1602E49B0
:103750008C696407FBD58C681C708C685C708C6805
:103760009C708968D9702849CC68E406FBD48C68C1
:10377000083303F8044C8C6803F8034C8C6803F896
:10378000024C896803F8011C1BE0032A1BDDA560BD
:103790004D78043AA5608D78A5600D1DC978A160AB
:1037A0001949CC68E406FBD48C68043303F8044C54
:1037B0008C6803F8034C8C6803F8024C896803F8A2
:1037C000011C2946ABE70131A560013AE568ED0629
:1037D000FCD40D4C0133A46803F8014C9FE7DD686D
:1037E000ED06FCD4084B9B68631A934204DA14F884
:1037F000015B054B9D60F2E7024B4FF480329A610A
:1038000030BD00BF00C009200080084007B500237C
:1038100002A9012201F8013D00F01F001346FFF745
:103820006DFF9DF8070003B05DF804FB07B502AB20
:1038300003F8011D00F01F0019460122002340F08B
:103840002000FFF75BFF03B05DF804FB08B517200D
:10385000FFF7DCFFC0F3001008BD07207021FFF761
:10386000E5BF03460A46A02019460023FFF746BFDE
:1038700008B50020FFF7CAFFBDE8084000F0FE01D0
:103880000020FFF7D3BF0000024B4FF08072DA61D7
:10389000704700BF20C0092008B50020FFF7B6FF21
:1038A00040F00101C9B20020FFF7C0FF024B4FF00A
:1038B00080729A6108BD00BF20C009200720202126
:1038C000FFF7B4BF0021E1200A460B46FFF716BF01
:1038D00037B50C460546FFF7F5FF21462846FFF7AA
:1038E000C0FF0D4B4FF080721C469A610022ADF86C
:1038F0000620BDF8063001339BB2ADF8063033B96F
:103900004FF08073E361FFF7DDFF03B030BDFFF7D9
:103910009DFF0028EDD0F3E720C0092008B517204F
:10392000FFF774FF00F0010080F0010008BD0720E0
:103930004021FFF77BBF08B503460A4661201946C0
:103940000123FFF7DBFEC0F3420008BD0021E220A7
:103950000A460B46FFF7D2BE70B5064600200D465C
:103960001446FFF753FF16B100F0BF0002E040F02D
:103970004000C0B215B100F0DF0101E040F02001CD
:1039800014B101F0EF0101E041F010010020BDE8A9
:103990007040FFF74BBF10B504460020FFF736FF1D
:1039A00014B900F0F7010DE0012C04D100F0FB0187
:1039B00041F0080106E0022C14BF40F0080140F07D
:1039C0000C01C9B20020BDE81040FFF72FBF08B5B9
:1039D0000020FFF71BFFBDE8084040F00201C9B21C
:1039E0000020FFF723BF08B50020FFF70FFFBDE859
:1039F000084000F0FD010020FFF718BF40F6DD137E
:103A0000984206D840F66213B0F5166F38BF1846D4
:103A100000E01846A0F51661C9B20520FFF706BF01
:103A200010B504460620FFF7F1FEFA2C00F0D7018E
:103A300002D141F0200104E0B4F5FA6F08BF41F073
:103A400008010620BDE81040FFF7F0BE10B504469F
:103A50000620FFF7DBFE032C20F0060028BF03241E
:103A600040EA4401C9B20620BDE81040FFF7DEBEBF
:103A7000F9284FF0FA0305D9B0F57A6F88BF4FF4F3
:103A80007A6000E01846B0FBF3F00F2900F1FF3038
:103A9000C0B228BF0F2141EA0011C9B20420FFF7CC
:103AA000C5BE1130C0B2162804D8202928BF202155
:103AB000FFF7BCBE7047032804D0042814BF0321BD
:103AC000022100E001210320FFF7B0BE03460A46B1
:103AD000302019460023FFF711BE03460A462A206C
:103AE00019460023FFF70ABE73B50E461546044675
:103AF000FFF72CFFFFF7E6FE2B4B4FF08072DA61E9
:103B0000FFF771FF00210A460120FFF725FFFFF7AD
:103B1000A4FE0220FFF73FFF3046FFF76FFF284665
:103B2000FFF77EFF0320FFF791FF02200321FFF73D
:103B30007DFE01200021FFF779FE4FF4FA7003218A
:103B4000FFF796FF21460020FFF7ABFF1220002170
:103B5000FFF76CFE13200021FFF768FE1420002100
:103B6000FFF764FE15200021FFF760FE00211620FC
:103B7000FFF75CFE0D4B18681B79009005208DF84F
:103B80000430FFF798FF68460521FFF79FFF68465E
:103B90000521FFF7A2FFFFF71AFF4FF4FA6004F0C8
:103BA0001EFC02B070BD00BF20C009206F4B020098
:103BB00070B5174E326822B90320202105F0FEFEB1
:103BC0003060144D2A6822B90120202105F0F6FE4C
:103BD0002860114C216821B90120032205F0EEFE76
:103BE0002060202040F6C3114FF4FA62FFF77CFFFB
:103BF000FFF752FE16200121084A04F08BFE3068C0
:103C000028B1286818B12068003018BF012070BDA5
:103C100064C3072060C3072068C30720C93C0100B4
:103C200070B506460379002203F0C003C02B0CBF19
:103C30000D4B0E4B88B01D6831462846134605F0E3
:103C4000E3FE044660B9224623466946284605F04D
:103C5000DFFF224623462846314605F0D5FE0446BE
:103C6000204608B070BD00BF60C3072064C30720B2
:103C700038B504460D46FFF723FA237883420AD06D
:103C8000E37843B90AF02EFBBD2300F0030000FBEC
:103C9000033004F0A4FBFFF7F7FDFFF7E9FD204632
:103CA000A9B2FFF715FEFFF709FEFFF7F5FD06F0D5
:103CB00099FD022804D1034B0021186805F076FF16
:103CC000012038BD68C3072007B5002302A941F8C9
:103CD000043D084B186805F069FF019B3BB1064B9A
:103CE0004FF080521A60BFF34F8FBFF36F8F03B056
:103CF0005DF804FB68C3072004ED00E038B5054615
:103D00000C46FFF70BFE48B1A1B22846FFF713FEA1
:103D1000FFF704FE08B9FFF70AFE012038BD2DE9C0
:103D2000704306460D46144606F05CFD022807D196
:103D3000224630462946002305F06AFFC4B21DE042
:103D400007F00EF94FF47A72002308F075FB10EBC0
:103D5000040841F10009002230462946134605F0C7
:103D600057FFC4B254B907F0FBF84FF47A7200233E
:103D700008F062FB894508BF8045ECD22046BDE8CB
:103D80007083042938B5054603D1041C18BF0124EB
:103D900000E0002407F0E4F82CB14FF47A7200231D
:103DA00008F04AFB2860204638BD000000B50C4BE7
:103DB0008DB009930B4B0C4A0B930C4B0A930CAB35
:103DC00043F8102D002204920FCB8DE80F00084B12
:103DD0000121084A6A20FFF727FA0DB05DF804FBBD
:103DE000B13B0100FD3C0100833D0100713C01003D
:103DF000213C0100744B020003460A460249086850
:103E00001946FFF78CBF00BF64C3072003460A466C
:103E1000024908681946FFF782BF00BF60C3072048
:103E200008B506F0DFFC0F4B02285B6913D15A027C
:103E30000DD5FFF72DFC0C4B00284FF00001186842
:103E400014BF01224FF0FF320B4605F0E1FEBDE842
:103E50000840FFF7BBBA5B02F9D5FFF719FC002851
:103E6000F5D108BD00C0092068C3072030B504465D
:103E70000D46134621792A46BDE83040006805F01A
:103E8000D9B91FB50A4604AB0021022423F8041D4A
:103E900001790094006805F0B8F99DF80C009DF8D0
:103EA0000D3043EA002004B010BD10B504462A21AD
:103EB0001922FFF7DBFF206821790D2205F0A9F90F
:103EC000A0F12A035842584110BD0000044A13884B
:103ED0001F2B9FBF581C1080024A42F823107047C6
:103EE00070C3072074C30720144AF0B51488012C4E
:103EF00020D9134B00211F46661EB14206DA5868CE
:103F00001D680131401B43F8040BF5E77B6803EBA8
:103F10005301002318469CB2B44209DA57F82450E2
:103F200001338D4282BF012505FA04F42043F2E7F4
:103F3000044B186000231380F0BD00BF70C307203E
:103F400074C307206CC3072008B50220012106F0C6
:103F50009FFF084B01209A6A22F007029A629A6A30
:103F600042F006029A62044AD36843F03003D360F9
:103F700008BD00BF0080004000C0024008B5044AF0
:103F800001F07F034171D25C0321FFF76FFF08BD91
:103F9000794B020008B5044A01F07F038171D25CBD
:103FA0000221FFF763FF08BD794B020038B50446D4
:103FB0000068217905F049F9054688B120460621B7
:103FC0000022FFF753FF204607210022FFF74EFF94
:103FD00020462E21FFF7D2FF20462E21FFF7DAFFE1
:103FE000284638BD642370B5B1FBF3F404FB13110C
:103FF000CCB20A21B4FBF1F501FB15413031C9B255
:104000000646FFF7C7FF092C8ABF05F1300130468D
:104010003046BDE8704094BF2021C9B2FFF7AEBF63
:104020000120704738B50D46044606F013FD05F033
:104030000F032370114B15F0010F4FF0010214BF55
:10404000DA619A61227812F0020F4FF0020214BF77
:10405000DA619A61227812F0040F4FF0100214BF57
:10406000DA619A61227812F0080F4FF4807214BF5F
:10407000DA619A61BDE8384006F0FCBC20C0092036
:1040800038B504460D4606F0E5FC013D23780121D4
:10409000A9405940C9B221702046FFF7C3FFBDE8CF
:1040A000384006F0E7BC01207047022004F02CBA2B
:1040B00001207047044B5B69C3F38130C3F3412394
:1040C00043EA8000704700BF20C0092010B50446B5
:1040D00001218122FFF7CAFE20682179012205F023
:1040E00098F810F0600F14BF0120002010BD38B503
:1040F00000210546FFF7C5FE8122012184B2284632
:10410000FFF7B4FE24B2102094FBF0F007F0AAFFF2
:104110004FF0765107F0FAFFA96807F0EFFE38BDBF
:1041200008B5FFF7E4FF054907F0F0FF044908F080
:10413000A1F84FF0844107F0E1FE08BD00001041F6
:104140000000A0402DE9F04F0546ADF2546D0C463D
:10415000904682A8294601229946DDF878A602F009
:1041600011F8002867D121460DF22C400A2202F0F6
:1041700009F8044620B182A802F075FA20465AE0F8
:10418000834606460090019006F0EAFE4FF47A72EC
:10419000002308F051F902A907464FF4007282A8E3
:1041A0006B4602F088F80546D8B9009BCBB106F003
:1041B000D7FE4FF47A720023F61B08F03DF906444F
:1041C00006F0CEFE4FF47A72002308F035F902A90A
:1041D0000746009A0DF22C4001AB02F02AF9054681
:1041E000B8B1B8F1000F01D0C8F80060B9F1000F04
:1041F00001D0C9F800B0BAF1000F01D0CAF80040F0
:1042000082A802F030FA0DF22C4002F02CFA284677
:1042100011E0019A009B9A42E3D106F0A1FE4FF40F
:104220007A72002308F008F9009BBBEB070200EB51
:10423000020B1C44A8E70DF2546DBDE8F08FF0B5F9
:104240000446ADF50B7D0F46164621461D4601A8D6
:1042500000230122009301F095FF044670B91DB1BF
:1042600001A8294602F011FA01A8394632466B46E8
:1042700002F021F8044601A802F0F5F920460DF5F8
:104280000B7DF0BDF0B50446ADF50B7D0F4616462F
:1042900021461D4601A800230A22009301F072FF67
:1042A000044670B91DB101A8294602F0EEF901A833
:1042B000394632466B4602F0BCF8044601A802F0CB
:1042C000D2F920460DF50B7DF0BDF0B50446ADF5F5
:1042D0000B7D0F46164621461D4601A800231222DB
:1042E000009301F04FFF044680B901A80DB12946A3
:1042F00000E0049902F0C9F901A8394632466B463C
:1043000002F097F8044601A802F0ADF920460DF539
:104310000B7DF0BD7F2816D931B1FF2812D80A4B8A
:10432000803833F810007047074A8BB232F81120FA
:10433000824203D001318029F6D10B4603F180007F
:10434000C0B2704700207047FA4B02000023064AB3
:1043500032F8132032B1904201D00133F7E7034A1B
:1043600032F81300704700BFDA4E0200FA4C020028
:1043700010B501200C4605F0C9FB2060003018BFC5
:10438000012010BD0120704710B5044606F02AFA3E
:1043900002280AD100210B4620464FF0FF3205F0DB
:1043A00037FC431E5842584110BD012010BD10B5C6
:1043B000044606F017FA022807D100212046BDE87E
:1043C00010400A460B4605F01FBB10BD10B5044651
:1043D00004F024FD24B1012C06D100F07BF901E0AA
:1043E00000F0EEFC044600E0042404F02FFD20461B
:1043F00010BD28B1012801D00420704700F018BA80
:104400007047F8B507460E4615461C4604F006FDF3
:104410003FB1012F0CD130462946224600F010FA58
:1044200004E030462946224600F016FD044600E02E
:10443000042404F00BFD2046F8BDF8B507460E46EF
:1044400015461C4604F0EAFC3FB1012F0CD1304662
:104450002946224600F042FA04E030462946224628
:1044600000F020FD044600E0042404F0EFFC2046A8
:10447000F8BD70B506460D46144604F0CFFC36B1C3
:10448000012E0AD12846214600F082FA03E0284690
:10449000214600F02BFD044600E0042404F0D6FC85
:1044A000204670BD08B506F05BFD4FF47A7200231C
:1044B00007F0C2FF08BD000010B5044606F0C8FEB4
:1044C000074BB0FBF3F00223B0FBF3F2944202D3AC
:1044D000044A136110BDB3F5807FF9D00233F3E7CE
:1044E00040420F0000000340044B9860DA68D20697
:1044F000FCD4024B9868C0B2704700BF0000034074
:1045000038B5FFF7CFFF00F5FA75FF20FFF7ECFF96
:10451000FF20FFF7E9FFFF28044606D0FFF7C2FFA0
:104520000023994208BFA842F2D3204638BD0000BC
:1045300038B5064C4FF00075E561FFF7E1FF044A1E
:10454000A561137843F00103137038BD20C0092022
:1045500006C0072070B505460E46FFF7A3FF00F121
:104560006404FF20FFF7C0FFFF2808D1FFF79AFF80
:104570000023994208BFA042F3D3002070BDFE285B
:10458000FBD1102E06D928464FF40071002204F00A
:10459000E3FB19E02C1DFF20FFF7A6FF04F8040C35
:1045A000FF20FFF7A1FF04F8030CFF20FFF79CFF9B
:1045B00004F8020CFF20FFF797FF043404F8050C01
:1045C000331D1B1BDD42E6D1FF20FFF78DFFFF20CF
:1045D000FFF78AFF012070BD70B506460D46FFF754
:1045E0008FFFFF28044619D12846FFF77DFFFD2DD8
:1045F00016D04FF400712246304604F0ADFB204641
:10460000FFF772FF2046FFF76FFF2046FFF76CFFB2
:1046100000F01F00431F5842584170BD002070BD7C
:10462000012070BD020638B504460D4607D5772037
:104630000021FFF7F7FF012836D804F07F041B4B59
:104640004FF000729A61DA61FFF75AFFFF282AD112
:104650002046FFF749FF280EFFF746FFC5F3074046
:10466000FFF742FFC5F30720FFF73EFFE8B2FFF771
:104670003BFF402C04D0482C0CBF8720012000E0D9
:104680009520FFF731FF4C2C02D1FF20FFF72CFFC4
:104690000A24FF20FFF728FF030605D5013C14F08C
:1046A000FF04F6D138BDFF2038BD00BF20C009206F
:1046B000064A074913784969DBB2490154BF03F040
:1046C000FD0343F003031370704700BF06C00720CB
:1046D00020C009202DE9F347FFF7EAFF514B1A7874
:1046E0001E4612F0020F01D0187896E00120FFF765
:1046F000E3FE0A24FF20013CFFF7F6FE14F0FF045E
:10470000F8D1494D4FF00073EB6140202146FFF78F
:1047100089FF012801D000246EE0FFF7C3FE4FF4AB
:10472000D57100F57A7A4820FFF77CFF01283DD14A
:10473000FF20FFF7D9FE01AF38550134042CF7D123
:104740009DF80630012BE6D19DF80730AA2BE2D167
:10475000FFF7A8FE4FF00009494508BF5045D04675
:1047600006D3FFF79FFE494508BF4045D3D207E077
:10477000E9204FF08041FFF755FF0028E8D1F0E72E
:104780007A200021FFF74EFF0028C4D10446FF2005
:10479000FFF7AAFE38550134042CF8D19DF80430F7
:1047A00013F0400F14BF0C24042425E02146E92017
:1047B000FFF738FF022835BF02240124E9274127EB
:1047C000FFF770FE4FF00009494508BF5045D0463D
:1047D0000BD3FFF767FE494508BF40450CD34FF4A4
:1047E00000715020FFF71EFF06E038460021FFF75A
:1047F00019FF0028E4D1ECE70C4B1C704FF000735C
:10480000AB613CB13378182003F0FE033370FFF73F
:1048100053FE01E0FFF78CFE3078C0B202B0BDE875
:10482000F08700BF06C0072020C00920F4C307207E
:1048300008B5FFF73DFF014B187808BD06C00720FB
:10484000F8B5144607460E46FFF732FF002C3AD063
:104850001F4B1B78DB0738D41E4B4FF00072DA6118
:104860001D4A1D46127812F0080F08BF7602012C6F
:104870000DD151203146FFF7D5FEE8B938464FF447
:104880000071FFF767FEB0FA80F4640914E052206B
:104890003146FFF7C7FE78B938464FF40071FFF78D
:1048A00059FE28B1013C14F0FF0407F50077F3D15D
:1048B0004C200021FFF7B6FE4FF00073201CAB61C7
:1048C00018BF0120F8BD0420F8BD0320F8BD00BFCB
:1048D00006C0072020C00920F4C30720F8B51446FD
:1048E00007460E46FFF7E4FE002C45D0254B1A780C
:1048F000D20743D41B785B0742D4234B4FF000729E
:10490000DA61224A1D46127812F0080F08BF7602BB
:10491000012C0CD158203146FFF784FE28BB3846C5
:10492000FE21FFF759FEB0FA80F464091DE012F091
:10493000060F03D0D7202146FFF774FE59203146D9
:10494000FFF770FE88B93846FC21FFF745FE28B115
:10495000013C14F0FF0407F50077F4D10020FD219D
:10496000FFF73AFE002808BF01244FF00073201C17
:10497000AB6118BF0120F8BD0420F8BD0320F8BDCD
:104980000220F8BD06C0072020C00920F4C307207C
:104990007FB504460D46FFF78BFE052C1AD12B7808
:1049A000012B00F0FD8003D3022B0BD00420FAE092
:1049B0007E4B586910F0806440F0F280FFF7B8FD3C
:1049C0002046F0E0794B5B6983F08063C3F380633A
:1049D0006B70E5E0764B1B78DB0700F1E3800E2C73
:1049E00000F2D880DFE804F008124F53D6D6D6D6AE
:1049F000D6D6A3A8AAB4C4006C4B4FF00072DA61FB
:104A0000FFF77EFDFF3818BF0120C4E049200021D8
:104A1000FFF708FE044608B10120BCE068461021FB
:104A2000FFF798FD0028F7D09DF800309DF80900A9
:104A30009B09012B9DF8083005D1013000EB0323C1
:104A40009BB29B021CE09DF80710890001EB9313B9
:104A50005A1C9DF806309DF8051003F0030302EB85
:104A600083239DF80A2001F00F0101EBD212911C63
:104A700000F0030201EB4202D2B29BB2093A93402A
:104A80002B60204687E04FF400732B8052E0494EA4
:104A9000337803F0040303F0FF01DBB1CD200021E4
:104AA000FFF7C0FD0028B7D1FF20FFF71DFD6846C6
:104AB0001021FFF74FFD0028AED03024FF20FFF774
:104AC00013FD601E10F0FF04F8D19DF80A2010239A
:104AD0001209D4E74920FFF7A5FD044600289BD121
:104AE00068461021FFF736FD002895D031789DF8F3
:104AF0000A2001F0020101F0FF009DF80B3051B1D6
:104B000002F03F02DB0903EB42039DF80D20013365
:104B10009209013AB3E7C2F3840103F003045A098E
:104B200002EBC402531C01FB03332B6033E0214B27
:104B30001B782B7000202EE0492000E04A20002145
:104B4000FFF770FD00287FF467AF284610211BE0B7
:104B50007A200021FFF766FD00287FF45DAF2C1D51
:104B6000FF20FFF7C1FC05F8010BA542F8D1E1E7F2
:104B7000CD200021FFF756FD00287FF44DAFFF2028
:104B8000FFF7B2FC28464021FFF7E4FCB0FA80F0C2
:104B9000400900E00420054B4FF000729A6102E0EA
:104BA000002000E0032004B070BD00BF20C0092039
:104BB00006C00720F4C30720054B1B78253BDBB25A
:104BC000032B9ABF034A52F823000020704700BF0E
:104BD000F8C30720C45002001B4B2DE9F0411D888B
:104BE0000646B5F5007F0F46144602D10846114629
:104BF0000AE0B5F5807F09D1084611462A46B0473C
:104C000007F5807004F580712A4617E0B5F5047F3A
:104C100005D1510A384689024FF400720EE0B5F50D
:104C2000847F0FD1140A08464FF480726102B047A6
:104C3000611C07F5807049024FF480723346BDE86D
:104C4000F0411847BDE8F081F6C30720034610B5D0
:104C500000295DDD07291A782E4C2FDDA2605A78D5
:104C60000839A2609A78A260DA78A2601A79A26004
:104C70005A79A2609A79A26003F10802DB79A360F5
:104C8000244B9C696407FBD59C6804709C68447045
:104C90009C6884709B68C3701E4BDC68E406FBD480
:104CA0009C68083000F8044C9C6800F8034C9C6831
:104CB00000F8024C9B6800F8013C1BE003291BDD57
:104CC000A2605A780439A2609A78A2601A1DDB7833
:104CD000A360104BDC68E406FBD49C68043000F849
:104CE000044C9C6800F8034C9C6800F8024C9B68DC
:104CF00000F8013C1346ABE70133A2600139E268DA
:104D0000D206FCD4034A0130926800F8012C9FE7D8
:104D100010BD00BF0000034007B50B0C8DF8040068
:104D20008DF805308DF807100B0A01A804218DF8C5
:104D30000630FFF78BFF03B05DF804FBF7B51646AE
:104D400007460E4C40250323E5618DF804300B0C1B
:104D50008DF805308DF807100B0A01A804218DF895
:104D60000630FFF773FF38463146002203F0F4FFA8
:104D7000A561A561A56103B0F0BD00BF00C0092019
:104D80000D4B4022DA610D4BD7229A60DA68D106CA
:104D9000FCD40A4B9B68094BFF229A60DA68D20662
:104DA000FCD4064B98680306F5D5034B40229A6164
:104DB000C0B29A619A61704700C0092000000340A8
:104DC000F7B5FFF7DDFF1F4C002323801E4B1F4E5E
:104DD00040271A889B78F7610546032101A8ADF8A2
:104DE00004208DF80630FFF731FF9DF805209DF86F
:104DF00006301F2AB761B761B7611CD1A3F1250244
:104E0000032A18D8124A252B137005F0010006D189
:104E1000002814BF4FF480734FF4847305E000281A
:104E200014BF4FF400734FF404732380FFF7C4FEE4
:104E3000084B400A18602088B0FA80F0400903B09F
:104E4000F0BD00BFF6C30720BA50020000C0092021
:104E5000F8C30720FCC307202DE9F0418B18174643
:104E60000E4A013B12688046934214D84D024446D4
:104E7000FFF786FF0026C8EB0502BE42224407DA90
:104E800021460748FFF7A8FE04F500740136F2E753
:104E90000020BDE8F0810120BDE8F081FCC30720BF
:104EA0003D4D01002DE9F0418B1817460D4A013B9D
:104EB00012688046934212D804464D020026C8EB81
:104EC0000502BE42224407DA21460748FFF784FE66
:104ED00004F500740136F2E70020BDE8F0810120FE
:104EE000BDE8F081FCC30720CD4F010010B50C4692
:104EF000072805D8DFE800F006090E121414141470
:104F0000042010BDFFF73CFF0AE0FFF755FE400A02
:104F1000206005E04FF400730B8001E001230B607B
:104F2000002010BD70B590B003466A466E4600F191
:104F30004005144618685968083303C4AB4222463A
:104F4000F7D1084D4024EC619B200021FFF7E4FEDF
:104F500030462146FFF77AFEAC61AC61AC6110B01F
:104F600070BD00BF00C0092070B50646074D402443
:104F700077200021EC61FFF7CFFE30462146FFF796
:104F800065FEAC61AC61AC6170BD00BF00C00920C2
:104F9000064B10B51C8834F01F0404D0FFF70CFE3C
:104FA000B0FBF4F010BD204610BD00BFF6C30720D3
:104FB000014B1888704700BFF6C30720024B1878D2
:104FC000003018BF01207047F6C307202DE9F743D2
:104FD0004FF0FF330F46904601938146FFF7D0FE16
:104FE000FFF7ECFF0646B0B1194C4025194BE561BF
:104FF0001B880320B3F5847F0CBF4FF480714FF4FE
:1050000000713943FFF788FE01A80421FFF71EFE57
:10501000A561A561A5610E4C402382203946E3615C
:10502000FFF77AFE48464146012203F095FE3EB165
:10503000019B02A8013340F8043D0421FFF706FE5E
:105040004023A361A361A36103B0BDE8F08300BF67
:1050500000C00920F6C30720F7B5124B07461B888E
:10506000B3F5847F4FF0FF330CBF4FF480764FF4DD
:1050700000760193FFF7A2FF70B10B4C402503208F
:1050800046EA4721E561FFF747FE01A80421FFF743
:10509000DDFDA561A561A5610198431C08BF002045
:1050A00003B0F0BDF6C3072000C0092037B5074B99
:1050B000074C1868402501900421E56101A8FFF71D
:1050C000C5FDA561A561A56103B030BDBD5002005D
:1050D00000C009201FB501A803F062FD9DF809304A
:1050E0009DF8082003F00F0302F01F025B0543EA5E
:1050F00002419DF806309DF8040003F01F0341EAC9
:10510000C3229DF80530C0F3440003F03F0342EA98
:105110004313BDF80A201843520602F10842104317
:1051200005B05DF804FB30B504460D1F131B0344A6
:10513000032B04D955F8043F44F8043BF6E722F06A
:105140000303194402F00302013B18440A4491424C
:1051500004D011F8013B00F8013FF8E730BD0244EC
:10516000904202D000F8011BFAE7704700F10B01F2
:105170000023DA0142EA530310F8012B134488425A
:1051800003F0FF03F5D118467047026810B50446D6
:10519000BAB11346184613F8011B1F2902D93A2940
:1051A000F8D101E0002010BD114611F8013B884202
:1051B00007D1303BD9B2012903D802321846226008
:1051C00010BD4FF0FF3010BD03692DE9F04101F132
:1051D00009020D4653B3416900244E1E16F8013FE3
:1051E0000134202B18D0052B47D0092C02D12E27B3
:1051F00017700132A3F14107192F0BD8082C0F7B30
:105200008CBF4FF0100E4FF0080E1EEA070F1CBFA8
:105210002033DBB2137001320B2CDFD1CB7A2B722F
:10522000CB692B600B8BAB80CB8AEB800024147096
:10523000AE693EB303690BB900241AE0EB69002B99
:10524000FAD04FF6FF73028C9A42F5D0D0F81C804A
:10525000771E38F8140060B10021FFF75BF80028D2
:10526000EAD0EB69013B9C42E6D2013407F8010F1A
:10527000EFE700233355BDE8F081092C4FF0E5033B
:10528000C8D1B4E7BDE8F081F8B5037904460BB99D
:105290000020F8BD056B00F13407394640782A46F6
:1052A0000123FFF7CAF890B9636AE269EB1A9342E7
:1052B0002071EDD2E678012EEAD9E36960781D44C9
:1052C00039462A460123FFF7B8F8013EF3E70120EB
:1052D000F8BD0000F8B50446FFF7D6FF05468DBBC4
:1052E0002378032B26D16679012E23D104F13407CC
:1052F000384629464FF40072FFF731FF4AF655232E
:10530000A4F83232104B226A636303F1FF5303F5B2
:1053100000532033C4F8183263690132C4F81C32D8
:1053200023692263C4F82032607839463346FFF798
:1053300084F86571002160780A46FFF79AF800301A
:1053400018BF0120F8BD00BF52526141036B70B518
:10535000994205460E4610D0FFF796FF044608B165
:1053600001240BE0687805F1340132460123FFF790
:1053700048F80028F4D12E6300E00024204670BDD8
:10538000002310B503714FF0FF3303630446FFF7AA
:10539000DDFFA0B94AF65523B4F832229A4210D163
:1053A000D4F86A30084A23F07F4393420AD0D4F8F5
:1053B000860020F07F40801A18BF012010BD032016
:1053C00010BD022010BD00BF46415400F0B50023BF
:1053D000036085B0074608461546FFF7D6FE061E51
:1053E000C0F2F2807E4B53F82640002C00F0EE8095
:1053F000E068FEF7C9FF002800F0EA803C602378EF
:1054000083B16078FEF7F5FFC1070BD4002D00F0E3
:10541000D98000F0040303F0FF00002B00F0DD80D2
:105420000A20DAE00023F0B223706070FEF7CEFFAE
:10543000C20700F1CF800DB14307F1D4204600210F
:10544000FFF79EFF01281CD12146002291F8F6317A
:105450000BB1D1F8FA314DF822300132042A01F1B2
:105460001001F3D100265DF826502DB120462946C3
:10547000FFF786FF08B90BE002200136042EF2D1B7
:1054800000E00025032800F0A78008B10D20A4E06B
:10549000B4F83F30B3F5007FF8D1B4F84A0000B952
:1054A000A06D94F844E0E0610EF1FF33012B84F825
:1054B00003E0EBD894F84130A370002BE6D05A1EDD
:1054C0001A42E3D1B4F845C01CF00F0FA4F808C08D
:1054D000DCD1B4F8472002B9626DB4F8421000295B
:1054E000D4D00EFB00FE01EB1C177744BA42CDD39B
:1054F000D21BB2FBF3F3002BC8D040F6F5729342F7
:1055000006D94FF6F576B3428CBF0326022600E09B
:105510000126023329442F44032EA36125626162D0
:10552000E76206D1BCF1000FB0D1226E9B00A262EF
:1055300010E0BCF1000FA9D0022E4FEA43020CBFCD
:105540001346D218714418BF03F00103A16218BFBB
:1055500003EB520303F2FF13B0EB532F96D34FF03C
:10556000FF3363612361032E4FF08003637122D107
:10557000B4F86430012B1ED12046691CFFF7E6FE0B
:10558000C8B94AF65523B4F8322260719A4212D152
:10559000626B144B9A420ED103F1FF53D4F81822D8
:1055A00003F5005320339A4201BFD4F81C326361E3
:1055B000D4F8203223610C4A2670138801339BB241
:1055C0001380E380002008E00B2006E00C2004E0BC
:1055D0000F2002E0032000E0012005B0F0BD00BF75
:1055E00004C407205252614100C4072010B504468C
:1055F000A8B103689BB11A788AB1D9888288914290
:105600000DD1D868FEF7C0FE58B123685878FEF770
:10561000F0FE10F0010F14BF0320002010BD092080
:1056200010BD0F2010BD50B1A1F10B03012B06D905
:10563000092904D00F2902D0C068FEF7B8BE704710
:1056400083690239023B99423DBF8278C36A02FBFB
:105650000130002070470129F8B507460C464BD9A8
:105660008369994248D20378022B29D0032B34D086
:10567000012B41D101EB5106416A01EB5621FFF7A5
:1056800065FE10B14FF0FF30F8BD796AC6F308032C
:1056900001363B44384601EB562193F83450FFF76E
:1056A00055FE0028EED1C6F308063E4496F83400B5
:1056B000E30745EA00204CBF0009C0F30B00F8BD2A
:1056C000416A01EB1421FFF741FE0028DAD16300A3
:1056D00003F4FF73FE18B08EF8BD416A01EBD411DC
:1056E000FFF734FE0028CDD1A40004F4FE743C443E
:1056F000606B20F07040F8BD0120F8BDF8B505469C
:1057000084680E46012CE98001D10220F8BD0368AF
:105710009A699442F9D254B91A78032A01D19A6A43
:1057200022B91A899642F0D2986A17E014462146A7
:105730009F783F01BE420DD32868FFF78CFF431CC2
:1057400001461AD00128E0D92B689B699842DCD227
:10575000F61BEFE728680C46FFF772FFEC600028A5
:10576000D3D02B6800EB161006F00F0603EB46169D
:10577000343628616E610020F8BD0120F8BD012992
:10578000F8B505460C4616465FD9836999425CD246
:105790000378022B38D0032B42D0012B51D101EBDF
:1057A0005107416A01EB5721FFF7D0FD002849D18D
:1057B000C7F3080314F001042B4418BF93F8341006
:1057C000F2B21EBF01F00F0141EA0212D2B2696AC1
:1057D00083F83420013701232B71284601EB572130
:1057E000FFF7B4FD70BBC7F308072F4414B1C6F32D
:1057F000071606E097F83430C6F3032623F00F03AC
:105800001E4387F834601DE0416A01EB1421FFF765
:105810009DFDB8B9640004F4FF742C44A68611E021
:10582000416A01EBD411FFF791FD58B9A40004F4CB
:10583000FE7430342C44636803F070431E4366608A
:1058400000E0022001232B71F8BD0220F8BDF8B55D
:1058500005460F4631B9066996B183699E4228BF55
:1058600001260EE0FFF7F7FE01283FD9441C02D1C4
:105870004FF0FF30F8BDAB69984238D33E4600E0A8
:1058800001263446AB6901349C4204D3012E01D871
:105890000020F8BD022428462146FFF7DCFE30B187
:1058A000411C24D0012822D0B442EBD1F0E7284695
:1058B00021466FF07042FFF762FFA8B957B96B69D4
:1058C0002C615A1C0ED0013B6B616B7943F00103D4
:1058D0006B7107E0284639462246FFF750FF002843
:1058E000EDD001E02046F8BD0128C1D00120F8BD6F
:1058F0002DE9F843C68804460136B3B20F4613B902
:105900000420BDE8F8830369002BF9D016F00F08D6
:1059100059D1C16801330361006819B903899E42F6
:10592000EED250E08378013B13EA16134BD1FFF718
:1059300092FE0128054602D80220BDE8F883421CE9
:1059400002D10120BDE8F883206883699D4234D3E9
:10595000002FD5D0E168FFF77AFF054600283BD03D
:105960000128E9D0431CECD02068FFF78DFC0746E6
:105970000028E6D12068394634304FF40072FFF732
:10598000EEFBD4F8009029464846FFF759FEC9F8C7
:10599000300023689A7897420CD201221A7120684D
:1059A000FFF772FC0028CCD122680137136B01335A
:1059B0001363EEE71A6BD71B1F63E5602068294667
:1059C000FFF73EFE20612368E68003EB4813343383
:1059D00063610020BDE8F8830720BDE8F88300007C
:1059E0002DE9F74F00210646FFF788FE002840F01A
:1059F00087804FF6FF734FF0FF08444633843068CA
:105A00003169FFF7A3FC00287AD175692B78002B48
:105A10006DD0E52BE97A5FD00F0701F03F0202D588
:105A20000F2A59D101E00F2A42D1D6F81C90B9F1C2
:105A3000000F55D0580606D503F0BF04F38895F83B
:105A40000D80338401E0A34249D16B7B434546D1AD
:105A50002F784FF0000A27F040077B1E0D275F4389
:105A60000123294A1AF80220A85A83B1FEF76EFCD6
:105A70007F2F019033D839F81700FEF767FC019AA1
:105A800007F1010B8242034629D15F4603E04FF63E
:105A9000FF72904223D10AF1010ABAF10D0FE0D151
:105AA0002A78510629D543B339F817302BB316E0BD
:105AB00024B92846FFF75AFB80451AD0B369DA7A31
:105AC000D20709D405F10B00854214D015F8011B4B
:105AD00013F8012B9142F7D04FF6FF733384FF2464
