:020000021000EC
:10000000E03F082093010100FB000100E100010036
:10001000090101001901010029010100000000008F
:10002000000000000000000000000000F1A8010036
:10003000390101000000000061A90100590101001F
:100040004DAF01004DAF01004DAF01004DAF0100BC
:100050004DAF01004DAF01004DAF01004DAF0100AC
:100060004DAF01004DAF01004DAF01004DAF01009C
:100070004DAF01004DAF01004DAF01004DAF01008C
:100080004DAF01004DAF01004DAF01004DAF01007C
:100090004DAF01004DAF01004DAF01004DAF01006C
:1000A0004DAF01004DAF01004DAF01004DAF01005C
:1000B0004DAF01004DAF01004DAF01004DAF01004C
:1000C0004DAF01004DAF01004DAF0100785F020060
:1000D00000C00720B8010000B8C107208404000058
:1000E00004207146084203D0EFF309800AF04CBFA8
:1000F000EFF308800AF048BF704708B5014807F0E1
:1001000093FCFEE70E59020008B5024807F08CFC8C
:10011000FEE700BF1959020008B5024807F084FC49
:10012000FEE700BF2459020008B5024807F07CFC36
:10013000FEE700BF2F59020008B5024807F074FC23
:10014000FEE700BF3C59020008B5024807F06CFC0E
:10015000FEE700BF4A59020008B50AF07FFB0AF02B
:1001600027FCBDE808400AF08DBB0B4610B55C1AB1
:10017000944204D2441AE45843F8044BF7E710BD04
:1001800003461A1A8A4203D2002243F8042BF8E7E6
:10019000704716480AF0AEFC14480AF0AEFC144C46
:1001A000144B9C4207D294E803000C3454F8042CFE
:1001B000FFF7DBFFF4E7104B9C4206D254F8080B24
:1001C00054F8041CFFF7DCFFF5E70CF069FC0AF0BB
:1001D000ABFC01F0CBFD02F077FD4FF416400AF0C6
:1001E000F1FF064807F020FCFEE700BFE03F0820D3
:1001F000CC000100D8000100E00001005E590200BF
:10020000144A70B51368014613B94FF08053136058
:100210001068114B4518114E2B44B34298BF104B38
:100220000C4C96BFC81825602060126898BF18460D
:100230000C4B9A4281BF0C4A064B00201A6039B120
:100240000A4A136801331360094B1860094B19609F
:1002500070BD00BFBCC10720FF7FFFEFFE3F07104E
:100260003CC60720FF3F082000400820C4C10720EB
:10027000B8C10720C0C107200CF02EBD0CF034BD62
:100280000CF032BD10B504468AB068460CF0D0FFC1
:10029000204A214B2260089A2049A260079A626096
:1002A00052B90A681E4882428ABF02F1604202F1D6
:1002B0007042A2F5E82262606268B2F5803F82BFB8
:1002C00002F17042A2F5E82262600022E2600A6850
:1002D00013498A4205D8C3F1405303F50C239B1AF6
:1002E00009E010498A4207D8C3F1804303F580131F
:1002F0009B1A002B00DDE36020460B4BE2611B687C
:10030000A3610A4B1B686361094B1B6823610AB038
:1003100010BD00BF3C0600003CC60720BCC1072042
:1003200000800010FF3F0820B8C10720C0C107208F
:10033000C4C10720FEE70000014B1860704700BFF2
:10034000CCC10720014B1860704700BFC8C107200F
:1003500008B502480DF0FEFEFEE700BF20300200A7
:1003600008B502480DF0F6FEFEE700BF3A30020085
:100370000020704701207047F8B5084B16461A68F0
:100380000F461C4642B10D46EB1BB34204DA23680C
:1003900015F8010B9847F7E73046F8BDCCC10720A8
:1003A000F8B5094B0F46186816461C4658B10D465D
:1003B000EB1BB34205DA23680020984705F8010BD0
:1003C000F6E726EAE670F8BDC8C1072070470020AE
:1003D00070470000074B1B689A68824207D05A6832
:1003E000824204D0DB681B1A5842584170470120F2
:1003F000704700BF3CC107200020704700207047B5
:1004000030B504468DB0A8B3684608F02FFB9DF8C0
:100410000030002503F03F0303939DF8013003A84B
:1004200003F03F0304939DF802300B9503F01F0384
:1004300005939DF8043003F01F0306939DF80530E3
:1004400003F00F03013B0793BDF80630C3F30B0322
:10045000A3F26C7308939DF8033003F0070309932C
:10046000BDF80830C3F30B03013B0A930CF066FDA3
:1004700084E8210000200DB030BD000070B50F4DA4
:100480000F4E2C6814F0010415D128460AF060FFC5
:1004900088B14FF40E70FFF7EFFE302380F835324D
:1004A0003A2380F8344280F8363280F837423060A0
:1004B00028460AF059FF306870BD00BFECC1072024
:1004C000D4C1072070B50F4D0F4E2B6813F00104F7
:1004D00016D128460AF03CFF90B14FF40E70FFF79A
:1004E000CBFE012380F83432312380F835323A23B1
:1004F00080F8363280F83742306028460AF034FF00
:10050000306870BDE8C10720D0C107202DE9F04751
:10051000ADF51A7D0F4607F0E8FE041E04DD0AF073
:1005200065F9204609F0A8FE0DF1140844462B4D4C
:100530000FCD0FC42B68102123600DEB01020024A6
:100540000AA804940AF05AF825498146254A3846F3
:1005500008F0FCFC26460AAD4FF0000ACA451ED042
:100560006B69A34217D1AA69049B164423B1642185
:10057000B3FBF1F3B2FBF3F395F80CE00094298C94
:100580000293890001910392384617496A6858F826
:100590002E3008F0DBFC0AF1010A2435DEE70134D5
:1005A0000A2CD8D1049B64229E1BB3FBF2F30F49A3
:1005B0000F4AB6FBF3F30096384608F0C7FC09F083
:1005C00041FD102804D938460A49102208F0BEFC23
:1005D00001200DF51A7DBDE8F08700BF5430020000
:1005E000733002009A3002009F300200BC300200DB
:1005F000DB300200E630020010B50C46ADF5007DA0
:1006000068460AF029FC204669464FF0FF3208F0A0
:1006100067FC01200DF5007D10BD000030B50C46D3
:1006200091B02C49054607F06CFD002847D008AB77
:10063000009309AB01930AAB02930BAB03930CAB92
:1006400004932846244906AA07AB07F0C2FC0728F2
:1006500001D000203BE09DF83930069A0DA862F3E6
:1006600003038DF83930079A9DF8383062F304039C
:100670008DF83830089ABDF83A3062F30B03ADF8C4
:100680003A30099A9DF8363062F304038DF836301B
:100690000A9A9DF8353062F305038DF835300B9AD0
:1006A0009DF8343062F305038DF834300C9A9DF8D0
:1006B000373062F302038DF8373008F0FFF908F0A5
:1006C00099FA06490246204608F040FC012011B084
:1006D00030BD00BF1031020014310200425102004F
:1006E000F7B50D464E49044607F0FBFD064640B1FE
:1006F00007F030F828464B494FF0FF3208F0F0FB86
:100700008BE02046484907F0ECFD60B307F046F85F
:1007100046490246284608F019FC07F04BF84449C0
:100720000246284608F012FC07F03EF8414902460E
:10073000284608F00BFC304607F026F80646012054
:1007400007F022F80446022007F01EF807460320AF
:1007500007F01AF800970190374928463246234699
:1007600008F0F4FB59E02046344907F0CAFC50B1C8
:1007700001212022204607F062FD204607F0B3FD4C
:1007800007F032F949E020462D4907F0BAFC064649
:1007900020B920462B4907F0B4FC60B320462A4913
:1007A00007F09DFC60B92046284907F098FC28B95D
:1007B0002046274907F093FC044602E0032400E0AA
:1007C00002242046314607F065F8224A224B002ECB
:1007D00018BF1A463CB1012C07D01C491A4B022CF9
:1007E00018BF0B4602E01D4B00E0194B28461C4980
:1007F00008F0ACFB11E0204607F075FD19491A4AD4
:100800000090F323012007F053F8204607F06BFD1A
:1008100016490246284608F099FB012003B0F0BDB6
:100820004F310200553102006E3102007531020075
:100830008A3102009F310200BE310200EE31020017
:10084000F2310200FA3102004A3102004431020062
:100850004A430200353102002D3102003E310200D0
:10086000033202001C320200683002004F320200E4
:1008700030B589B004AB002400930D46022219491B
:1008800003AB0394049407F0B2FB022827D107AB13
:10089000009305AA0398049906AB0594069407945F
:1008A00003F08EFC024638B1049B284600930E49A3
:1008B000039B08F04BFB10E0059A069B002A079C5F
:1008C00008BF0122002B08BF012328460749B4FBBB
:1008D000F2F2B4FBF3F308F039FB012000E020460C
:1008E00009B030BDE24202005D3202007C320200FB
:1008F0002DE9F0470D46ADF5856D3B49064607F0FD
:100900008AFC3A498146304607F0AEFC374930460A
:1009100007F0CAFC304607F0E6FC0122014681A838
:1009200005F06EFC044640B1304607F0DCFC30496F
:100930000246284608F00AFB50E00DF1040A214661
:100940004FF4007250460CF01BFA00940AF070FA53
:10095000A04606460F4681A851464FF400726B46EA
:1009600005F0E7FC08B9009B33BB81A805F0B9FE90
:10097000B9F1000F19D00AF05BFA4FF47A72002334
:100980000BF0C2FC002304464FF47A72304639461D
:100990000BF0BAFC201A14BF034601232846154960
:1009A0004246B8FBF3F308F0D1FA284612494FF05B
:1009B000FF3208F095FA11E09844B9F1000FCAD15E
:1009C0004C46009B9C42C6D22B681AF804105B6808
:1009D00028464FF0FF3298470134F2E701200DF529
:1009E000856DBDE8F08700BFAA320200E242020036
:1009F000B3320200C7320200553802002DE9F04739
:100A00000023BEB00C46554905460C9307F069FC1F
:100A100020B9284607F067FC064600E0504E15A8AE
:100A2000314605F016FF054620462DB14D493246A8
:100A30002B4608F08BFA8CE04B49324608F086FAD8
:100A4000A8461EAF802315A80DA91397149305F08F
:100A500044FF002865D19DF83D30002B61D09DF802
:100A60003C10DDF834C011F0100F09BF0C9B44227C
:100A700063440C930ABF2D22013508F1010811F0DF
:100A8000010F14BF52232D2311F0020F14BF4FF09A
:100A9000480A4FF02D0A11F0040F14BF4FF053090C
:100AA0004FF02D0911F0200FBDF8381014BF4FF092
:100AB000410E4FF02D0ECDF808E04FEA612EBDF843
:100AC0003A000EF2BC7ECDF80CE0C1F3431E01F0FB
:100AD0001F010591C1120691C0F345100DF13D01B2
:100AE000CDF810E0CDF820C007900991CDF800A016
:100AF000CDF8049020461D4908F028FA20461C49EC
:100B00004FF0FF3208F0D8F9394620464FF0FF3257
:100B100008F0D2F9204611494FF0FF3208F0E0F911
:100B20008FE700953EAD55F8C83D12494246204634
:100B300008F00CFA304629460BAA05F0FDFE40B934
:100B40000B9B20469A780C9B0B495A43520808F09D
:100B5000FDF901203EB0BDE8F08700BF5538020026
:100B6000E2320200E53202000933020024330200BF
:100B700051330200553302007F33020070B50D4639
:100B8000064607F0B0FB0446304607F0ACFB05F024
:100B900095FF064A064B0749002818BF134628460A
:100BA000224608F0D3F9012070BD00BF3F35020096
:100BB000353502009333020070B50D46064607F046
:100BC00092FB0446304607F08EFB05F01AFF064AFA
:100BD000064B0749002818BF13462846224608F04E
:100BE000B5F9012070BD00BF3F3502003535020068
:100BF000AF3302007FB503AB002400930E46022200
:100C00000F4902AB0294039407F0F1F9022814D1C2
:100C1000029D039C2846214605F0FAFF094B0A492C
:100C20002A4600280CBF084618460849009023466B
:100C3000304608F08BF9012000E0204604B070BD7A
:100C4000E24202003F35020035350200C1330200A6
:100C500030B5ADF50D7D0C46054607F044FB0A2284
:100C6000014603A805F0CCFA40B1284607F03BFB4B
:100C70001F490246204608F069F935E08DF8070063
:100C800002901C4920467E2242F2107308F05EF961
:100C90002046194908F05AF9236820461B680DF1CF
:100CA000070142F21072984718B19DF807307E2B69
:100CB00003D103A805F015FD16E003A80DF1070107
:100CC000012202AB05F0F3FB10B9029B012B02D00D
:100CD00020460A49DEE7236820465B689DF8071036
:100CE0004FF0FF329847D7E701200DF50D7D30BD5D
:100CF000D9330200003402003834020058340200B4
:100D00002DE9F047ADF5407D002304AC236003934B
:100D10000D4600944249022203AB07F068F902280D
:100D200006D028463F494FF0FF3208F0D9F871E06D
:100D300017A8216805F08DFD18B128463A492268A8
:100D400007E017A8039905F084FD28B12846374924
:100D5000039A08F0FBF85DE040A94FF4807205A803
:100D600007F006F90AA880A94FF4807207F000F98D
:100D700020AB159317A880230FA9169305F0ADFD9E
:100D8000002841D19DF84530002B3DD09DF84430DE
:100D900003F0100303F0FF06002BE9D1039A0DF1D5
:100DA000450305A8224907F0E8FA22680DF145033A
:100DB0001F490AA807F0E1FA05A807F094FA80464F
:100DC0000AA807F090FA074605A8DDF83C9007F05E
:100DD0008AFA82460AA807F086FA32460146334666
:100DE0000096504603F0ECF9124A134BCDF80090F0
:100DF00000280CBF1846104610490190424628466C
:100E00003B4608F0A3F8B3E70AA807F0C7F805A81F
:100E100007F0C4F801200DF5407DBDE8F08700BF64
:100E2000E24202007F340200C4340200E9340200CE
:100E3000093502003F350200353502000F3502004A
:100E4000F8B50D462349064607F04BFA0446074617
:100E500028B1FFF737FB002100F235200AE03046C9
:100E60001D4907F03EFA044650B1FFF707FB39462B
:100E700000F235200A4605F05BFF1849184B1EE0CA
:100E80003046184907F02DFA044648B1FFF71AFB1F
:100E9000012200F2352105F075F91349134B0EE0DC
:100EA0003046134907F01DFA044680B1FFF7E6FA11
:100EB000012200F2352105F065F90E490E4B00289C
:100EC00008BF19464FF0FF32284608F009F82046BF
:100ED000F8BD00BF96350200A0350200383502008B
:100EE0002E350200AD3502005535020045350200B1
:100EF000B63502007A3502006C35020008B50846A6
:100F00004FF0FF32084907F0EBFF06F023FC4FF4E7
:100F1000FA6009F0B1F94FF08043AA221A72002258
:100F20001A70012008BD00BFC235020010B50120B3
:100F30000C4607F011F838B100210A460B4608F0BC
:100F4000C9FC2046044901E0204604494FF0FF3225
:100F500007F0C6FF012010BDD3350200E9350200BD
:100F600038B5064C236833B91C20FFF785F90546D0
:100F700007F084FC2560206838BD00BFE0C1072071
:100F80002DE9F04F0D46C7B05549814607F0D0F81E
:100F900054498246484607F0CBF8534983464846B1
:100FA00007F0C6F800270DF1100805AE04460297B9
:100FB0000397C8F800703760BAF1000F45D000966B
:100FC00048464A4902AA03AB07F003F8012807DCA8
:100FD000284647494FF0FF3207F082FF38467CE051
:100FE0000DF118084FF480744046394622460BF044
:100FF000C7FE336813B90123336003E0B3F5807F84
:1010000088BF3460FFF7ACFF33689DF808109DF887
:101010000C200093434608F05EF8364A364B3749B9
:10102000002808BF13462846029A07F08FFF0024C5
:1010300033689C424ED2039A18F804302244284662
:101040002F4907F083FF0134F2E7BBF1000F2CD0EA
:10105000CDF8008048462B4902AA03AB06F0B9FF41
:10106000032807D0284628494FF0FF3207F038FF01
:10107000504632E0FFF774FF9DF808109DF80C20F1
:1010800098F8003008F03CF848B1039B28460093DC
:101090001E49D8F80020029B07F058FF1AE02846A6
:1010A0001B49029A07F052FF14E0A8B102230293F1
:1010B000029BFE2B10DCFFF753FF9DF8081008F091
:1010C0002AF820B128461349029A07F03FFF029BF5
:1010D0000233ECE7012000E0204647B0BDE8F08F86
:1010E0000544020022360200283602003136020092
:1010F000403602003F3502003535020061360200FD
:101100008536020095360200A5360200CC36020074
:10111000E6360200033702002DE9F04F5F4C91B034
:1011200023680E4633B92C20FFF7A6F8054607F0D2
:1011300039FE25602768FFF7A1F90DF1400B002467
:101140004BF80C4D00F2352059460CAA05F0F4FB83
:1011500048B90C9A0D9C95699378023D5C435D43B8
:1011600064086D0800E025464D4B1A6898467AB928
:101170000C20FFF781F88146FFF7F2FE902389F8F3
:1011800004300023C9F80000C9F80830C8F80090FE
:10119000D8F8000003F002F880460BF06FF88246A2
:1011A0000AF0C8FE014640460AF00EFE3D490AF02C
:1011B00015FF0BF063F88146584609F0ABFC03F0CD
:1011C0003BFF50B307F090FD03F020FF00230246E1
:1011D00098469B4693420DD018460B920A9303F013
:1011E00079FF0A9B584588BF98460B9A88BF83466B
:1011F0000133EFE707F090FD642303FB0BF32A4A6A
:101200003046B3FBF2F3C3F164038DE808092749C4
:1012100022462B4607F09AFE05E030462449224636
:101220002B4607F093FE234C23681BB90120FFF7E0
:1012300023F82060206802F06CFF044607F0DAFC17
:101240009DF83930019003F00F0302939DF8383078
:10125000009403F01F030393BDF83A303046C3F304
:101260000B0304939DF83630134903F01F030593D5
:101270009DF83530524603F03F0306939DF8343015
:1012800003F03F030793BB8C0893FB8C09934B46F9
:1012900007F05CFE012011B0BDE8F08FE4C107202B
:1012A000D8C1072000002041A08601002937020094
:1012B0005D370200DCC107206B37020070B5ADF569
:1012C0000A7D05460C4606F07BFE0B2803DD204612
:1012D00023490C223DE0284607F005F8012201468B
:1012E00001A804F08DFF064668BB01A805F0F9F9D6
:1012F000284606F0F8FF1B490246049B204607F0EB
:1013000025FE236820469B6898470A2008F0B4FF12
:101310004FF0100383F31188BFF36F8FBFF34F8F2C
:10132000284606F0E0FF02460F4B0068516803C3F1
:1013300090680E4A186043F80C2C4FF08043AA22A4
:101340001A721E7007E0284606F0CDFF02462046BE
:10135000074907F0FBFD01200DF50A7D70BD00BFB8
:10136000E83702000F380200484002400DD0ADDEE1
:1013700056380200F0B5404CA5B023680646DB079E
:101380000D460CD4204609F0E3FF40B14FF48060D5
:101390000BF0A2FC394B1860204609F0E5FF3046FF
:1013A000374906F0C5FE0746044610B300218022E7
:1013B00004A80BF0E5FC00230293039303AB009316
:1013C000304904AA02AB304606F003FE2B4A029BCA
:1013D000116804A8039A13B902F092FF01E002F029
:1013E000B2FF0346284A29492846002B18BF114658
:1013F00037E03046264906F09BFE0746002838D0E5
:10140000304604AB234903AA039404948DF80840A2
:1014100006F0DFFD039E049B3344B3F5806F0DDDC2
:1014200028461D494FF4806221E0144B9DF80820A6
:101430001B689A559DF8083001361C44039B049A9A
:10144000F31A934210DAB6F5806F0DDA2B6828464E
:101450001B6802A94FF4FA6298470028E5D1284694
:101460000E4907F073FD04E0284622460C4907F0B8
:101470006DFD384625B0F0BDF4C10720F0C107204E
:1014800081380200883802006F3802006B38020091
:10149000983802009F380200A9380200CD380200B7
:1014A000DD38020030B50C46054687B00A4907F022
:1014B0004DFDA17A62880091E17A23880191E1884B
:1014C0002846029121890391A1880491034907F0DC
:1014D0003DFD07B030BD00BFEE38020024390200E8
:1014E0001FB501A80C4602F033F901F01DFE01A959
:1014F00002462046FFF7D6FF012004B010BD0000D1
:101500002DE9F0418CB003AB002400930E46154644
:101510003A49022202AB0294039406F068FDA0420D
:1015200039DD02980BF0CDF95FFA80F8039818B115
:101530000DF0EBF8C4B200E0044604A8002102F06C
:101540008FFC30B130462E494FF0FF3207F0C8FC17
:10155000F3E7003518BF01250223009340462946D2
:10156000039A234601F016FF074638B9304625494D
:101570004FF0FF3207F0B4FC01273BE0002D39D0DB
:1015800004A84FF47A7102F075FC70B39DF8103026
:1015900043452AD101E027462CE09DF817300C2B5B
:1015A00004D1304606A94246FFF77CFF3046B4B965
:1015B000154907F0CBFC9DF817309C420ADA3368D6
:1015C00004AA2244117A5B6830464FF0FF329847F4
:1015D0000134F0E730460D4907F0B8FC0AE00C4949
:1015E0004FF0FF3207F07CFC04E030460949029AD4
:1015F00007F0ACFC38460CB0BDE8F081E2420200D6
:1016000042390200643902008C390200D73F0200DF
:10161000A0390200BD39020038B50D4606F065FE5E
:101620000446C0B201F074FD054A064B0649002885
:1016300008BF13462846224607F088FC012038BD23
:10164000E339020035350200EA39020037B50C46AD
:1016500001F0E2FE05461649204607F077FC1549E1
:1016600020462A4607F072FC2046114907F06EFC1E
:10167000D5B11149204607F069FC20460C4907F016
:1016800065FC0025E8B201F0B1FE013540B181787A
:101690000278437800912046084907F057FCF1E7AB
:1016A0002046034907F052FC012003B030BD00BFC3
:1016B000013A02001C3A0200363A0200513A020096
:1016C00030B58BB00AAA4FF47A730C4642F8243D29
:1016D000174906F07EFC002502A8019902F0C0FB24
:1016E000D8B1204613499DF8082007F02FFC0025AB
:1016F0009DF80F309D420ADA236802AA2A44117A23
:101700005B6820464FF0FF3298470135F0E72046EE
:10171000094907F01BFC0125DEE72DB920460749E2
:101720004FF0FF3207F0DCFB01200BB030BD00BFF3
:10173000A63802006C3A020054380200833A0200D4
:101740002DE9F3473C4C074626688946002E62D1B6
:101750002420FEF791FD0423054680E848008660BA
:10176000C660202130460CF05FFDAE68E8604FEAAD
:101770008608072E0ED81020FEF77EFD8246002137
:1017800010220BF0FDFAEB68013643F808A008F1CF
:101790000408EEE7002608234FF001086B6085F887
:1017A000208028462549264A264B0096256005F0CC
:1017B0004DFD20682449254A254B009605F046FD3D
:1017C00020682449244A254B009605F03FFD2068F7
:1017D0002349244A244B009605F038FD206823490C
:1017E000234A244B009605F031FD20682249234A04
:1017F000234BCDF8008005F029FD20681E49214AC1
:10180000214B009605F022FD009620681F49204AD2
:10181000204B05F01BFD38461F4906F062FD18B14C
:1018200038461E4906F017FE39464A46206802B07F
:10183000BDE8F04705F0ECBDFCC10720ED1A010042
:10184000943A02009B3A0200C1180100D53A020006
:10185000DE3A0200C1160100323B0200353B0200B5
:1018600019160100B7400200583B02004D16010056
:101870009E3B0200823B020001150100E73B020093
:10188000A53B0200E63B0200EB3B0200E114010035
:101890002B3C0200103C020055380200313C020093
:1018A00038B5064C236833B95820FEF7E5FC0546E9
:1018B00007F0BCF82560206838BD00BFF8C10720DC
:1018C0002DE9F04F0446ADF2DC5D80220DF1B40944
:1018D00088460DA800210BF053FA002180224846CB
:1018E0000BF04EFA06AE0023336020460096754991
:1018F0000DAA4B4606F06DFB032801D00020DDE069
:10190000EDA80DA9012204F07BFC05460028F5D1C5
:10191000FFF7C6FF33684DA980F853308022044694
:1019200008A88DF81750079506F022FBCDF8009017
:10193000404665490DAA336807F008FB2F46EDA81D
:101940006DA94FF4007207AB04F0F3FC38B1EDA8B9
:1019500004F0C7FE08A806F021FB0120AEE0079BBB
:10196000002BF4D06E1C5949079A204607F0EEFA76
:10197000236820469B6898476DAB9B46751E4FF0C9
:10198000000A0799C3EB0B028A4222680FD2039325
:10199000CDF808B0D2F804C020464FF0FF321BF853
:1019A000011BE047029B1A78039B9244E9E7936886
:1019B0002046984708A806F096FC834608A806F03B
:1019C00002FB4FF47A7302465946204607F096FA16
:1019D0000121202208A806F032FC08A806F085FCA8
:1019E000504520D008A806F080FC394903465246ED
:1019F000404607F0ABFA2046364907F0A7FA2368BD
:101A000020469B689847236820461B680DF1170104
:101A10004FF47A7298470028F5D1022E06F101039F
:101A200095D81E469FE7079B2B494A4600932046C0
:101A30003B4607F08BFA236820469B68984708A826
:101A400006F051FC824608A806F0BDFA514602464F
:101A50004FF47A73204607F051FA08A81F4906F0A0
:101A60003EFBD0B908A806F03EFC1D4902464046A0
:101A700007F06CFA2046174907F068FA23682046F9
:101A80009B689847236820461B680DF117014FF4A7
:101A90007A7298470028F5D1BFE708A8114906F0E7
:101AA000DAFC079B40461F440F493A46F09B07F07B
:101AB0004DFA002D3FF443AF013D40E70DF2DC5DF0
:101AC000BDE8F08F363C0200453C02005C3C020061
:101AD0006E3C020054380200953C0200AB3C020010
:101AE000AE3C020055380200E63C02002DE9F04110
:101AF000074686B006AA002442F80C4D0E463C4923
:101B000006F067FA38460121202206F098FB039B75
:101B1000002B63D0384606F053FA00285ED0FFF75A
:101B2000BFFE05468DF80B402B6828461B680DF15B
:101B30000B010522984704460028F5D1039B38463F
:101B400085F8533006F0CFFB274601464FF0FF32B1
:101B5000284607F0C5F92B6828469B689847254B0F
:101B60000594186804902B6828461B680DF10B013A
:101B70004FF47A72984778B10DF11501032205A848
:101B80000BF0E3F89DF80B8005A804A904228DF85A
:101B900017800BF0BFF838B91822B7FBF2F302FB3D
:101BA000137262B101330AE0336830465B68414624
:101BB0000122013798470028D5D10134D3E73046B8
:101BC0000D493A4607F0C2F974B1612300933046DB
:101BD0000A4922460A4B07F0B9F905E0304609499F
:101BE0004FF0FF3207F07CF9012006B0BDE8F0812C
:101BF000A6380200EA380200F23C0200193D020059
:101C0000D23D02000E3E020001480CF0A3BA00BF14
:101C10003A3E020038B504460D4609F081FA074BFA
:101C2000B0FBF3F00223B0FBF3F2954201D3236142
:101C300038BDB3F5807FFAD00233F4E740420F009D
:101C40007FB500F235260C460122314604F09AFA9F
:101C5000054650BB04A941F8040D02AA304604F021
:101C60006BFE00BB029A039B9078926903FB00F124
:101C7000023A42435208B2F5004F104834BF0125E2
:101C80004FF480654FEA51010D4BB1FBF5F128BFD0
:101C90000346B2FBF5F28DE80A000A4821460CF033
:101CA000E3F9012008E0084B00E0084B0848214612
:101CB0002A460CF0D9F9002004B070BD783E02002D
:101CC000753E0200823E02007B3E02007F3E020023
:101CD000B03E020038B5074C23684BB90820FEF728
:101CE000CBFA0546FFF73CF9402328602B712560AD
:101CF000206838BD08C2072038B5054C256825B9CD
:101D00000120FEF7B9FA05702060206838BD00BFD9
:101D100004C2072038B5084C23685BB90C20FEF7D5
:101D2000ABFA0546FFF71CF990232B7100232860BE
:101D3000AB602560206838BDD8C1072010B5044CC1
:101D400023681BB90120FEF797FA2060206810BDB8
:101D5000DCC1072010B5044C23681BB90120FEF735
:101D60008BFA2060206810BD00C20720AD49AE4A42
:101D70004023F0B58B614FF0007393614FF48033D3
:101D80008B61AA4BADF5057D1868072520F0F000A2
:101D900018601868022440F050001860186820F499
:101DA00040501860086840F040000860186820F44F
:101DB0007C201860186840F428201860186820F407
:101DC00070001860186840F420001860186820F04F
:101DD00040401860186840F000401860586820F0D3
:101DE0003C005860586840F028005860586820F05F
:101DF00003005860086840F480300860586820F498
:101E000040505860086820F480000860D96821F4C8
:101E10004031D960116841F080711160596821F436
:101E200040215960596841F480215960986880497F
:101E300001409960116841F4897141F0010111601C
:101E4000996821F470119960996821F07041996046
:101E5000116821F446411160D96821F03001D96040
:101E6000D96841F03001D960D96821F47011D96086
:101E7000136843F000731360136823F080631360EA
:101E800006F046FB0A20012108F06AFF0A20012122
:101E900008F07EFF6748012105604460FFF7BAFE45
:101EA00006F0B2FE1520012108F05AFF152001218D
:101EB00008F06EFF6048012105604460FFF7AAFE4C
:101EC000FFF74EF8642106F0A3FC10B95B480CF054
:101ED00041F908F083FF01F09DFF10B958480CF05C
:101EE00039F94FF4FA6006F0CDFAFFF78DFE09F0EC
:101EF00017F90AF01BF853490AF024F909F09CFE7F
:101F000002460B4650480CF0AFF808F0FDFD0528DE
:101F100004AC14D1002363604C4B1B682360FFF7B3
:101F200073FE4B4B4B48D96C1A6D5B6D00940CF0F3
:101F30009BF8FFF769FE41F2883006F0A3FAFEF73E
:101F40009DFA4549FFF77CFE054668BB43480CF007
:101F50008BF803F0E9F8FEF791FA29462A4600F2D9
:101F6000352004F0E5FE3E4B3E4A00280CBF1046EB
:101F700018460CF0EFF8FEF781FA3749FFF760FEDC
:101F800090B939480CF0E6F803F050F801463748AC
:101F90000CF06AF803F03AF8054603F047F805FB41
:101FA00000F133480CF060F8324E334F336813F0D1
:101FB000010516D1304609F0CBF990B14FF40E70FF
:101FC000FEF75AF9012380F83432312380F8353294
:101FD0003A2380F8363280F837523860304609F0BC
:101FE000C3F926493868264DFFF72AFE1148182103
:101FF000FFF710FEFFF708FE2B684BB90820FEF72D
:102000003BF90646FEF7ACFF3823306033712E6093
:10201000286801F07EFF0546B0BB1A480CF09AF81C
:1020200033E000BF00C0092020C0092000C00240EA
:10203000F0FCFCFF0000034000800840F43E02007A
:10204000253F0200002474494A3F020044400240F8
:1020500000400240623F0200DA3F0200E23F02001D
:10206000E83E0200E33E02001F4002003E40020044
:102070004D400200E8C10720D0C1072064350200AE
:1020800010C20720684002000125FFF743FE02F05E
:102090005BF8064618B972480CF05CF83546FFF755
:1020A00019FE01F0B7FF064618B96E480CF052F859
:1020B00035466D4E33681BB90120FEF7DDF8306000
:1020C000306801F075FFFFF739FE02F020F8FFF7E6
:1020D00013FE01F0D9FFFFF73DFE02F026F8FFF7EF
:1020E0000BFE002101F0D2FF8DB9FFF78DFDFFF748
:1020F000F1FD2D2101F076FFFFF7ECFD2D2101F020
:102100007DFFFFF7F9FDFF2101F0C0FF0CE0FFF7B5
:10211000E1FD0546FFF7FEFD02F040F80AF0D4F8B5
:10212000C1B2284601F092FF0021102220460AF099
:1021300027FE4E4821460F22002302F0BEF880B948
:1021400020460AF0BEFBC5B2284600F0E1FF484A2F
:10215000484B2946002808BF13464748434A0BF01E
:1021600083FFFFF7EBFD01F0D4FF054600200DF0E3
:1021700073FA28440BF0F6FF4FF40072002120465A
:102180000AF0FEFD204608F067FE21463B480BF0B2
:102190006BFFFFF739FD8022002120460AF0F0FD99
:1021A000204602F01FFF2278FF2A04D0214634483F
:1021B0000BF05AFF29E0FFF7CDFD01F0B9FF092828
:1021C0001DD130480BF0C6FF21462F480CF0FEF819
:1021D00021462E480BF048FF2D480BF0BBFF002393
:1021E0002C4803A903930CF0F1F89DF80C30592BFF
:1021F00003D1204602F0D4FE07E0274803E0274839
:102200000BF0A8FF26480BF0A5FF4FF208031C684F
:102210004FF20C031D684FF210031E684FF20403C7
:1022200019684FF470431A68A40AAD0A1D480BF0F0
:102230001BFF224629461C480BF016FF31461B485F
:102240000BF012FFFFF7E0FC012005F0B9FA184887
:102250000BF080FFFFF7D8FC0DF5057DF0BD00BF4A
:10226000834002009D4002000CC20720B6400200DD
:10227000E3390200EE3E0200BC400200425102007F
:10228000F04002000C4102002E41020033410200E6
:102290004E4102009141020095410200AD41020011
:1022A000DB4102000D420200394202006642020098
:1022B00083420200012070470120704701207047CF
:1022C00010B5044C23681BB90120FDF7D5FF206031
:1022D000206810BD0CC2072001207047F8B50446E5
:1022E0000E46C06889000BF09FFFA568E060AF0054
:1022F000B5420BD20C20FDF7BFFF00230360436003
:102300000372E3680135D8510437F1E76660F8BD20
:1023100038B504460F4B00250360636DE06D9D42A8
:1023200005D250F82500FDF7A9FF0135F5E708B102
:10233000FDF7A6FF0025A36B206C9D4205D250F847
:102340002500FDF79BFF0135F5E708B1FDF798FF84
:10235000204638BDC042020010B50446FFF7D8FF42
:102360002046FDF78BFF204610BD0000F7B5044660
:1023700000250B464FF480520095254905F0D2FD0B
:10238000244B042623606663A563E563256404F19A
:1023900034000221FFF7A2FF26656565A565E565A6
:1023A000284660210BF040FFA56DE065AE00172DBB
:1023B0000CD81020FDF760FF0746002110220AF01C
:1023C000DFFCE36D01359F510436F0E718236365A8
:1023D000012384F87030104E0023A4F87430A4F860
:1023E0007630A367002200230027C4E92023C4E934
:1023F000226708F01DFD4FF47A72002309F084FF74
:1024000080197941C4E92001204603B0F0BD00BF26
:10241000D8420200C0420200C0D401002DE9F041C0
:1024200091E860000F7A14468FB1082A23D1304614
:1024300005F0C6FD00281CDD284614494FF0FF3288
:1024400006F03AFD3046012105F0B9FE08E00A2AFF
:1024500019D00D2A12D03046214605F0D1FF97B190
:102460002B6828462146BDE8F0415B684FF0FF32FB
:1024700018470724F4E70A2A02D1F1E7BDE8F08102
:102480000D2AE8D1ECE7BDE8F08100BFE14202008F
:10249000F8B50446142015460F46FDF7EDFE8021E1
:1024A000064605F05DFFA36BE26B9A4206D3616BB3
:1024B000591803D204F13400FFF710FFE36B226CCC
:1024C000591C52F82330E1631F605E601D72F8BD35
:1024D0002DE9F043CF6B85B006460D4601AC4FB9F0
:1024E0004FF47A7007F0C8FE204639460C220AF0F5
:1024F00047FC47E00B6C1B6893E8070084E8070083
:1025000000238DF8033007F091FD80460027EB6B28
:102510009F4263D22B6C4FEA870953F82730186823
:10252000037C33B103680DF103011B680022984757
:1025300008B90137EBE7EB6B9F422BD22B6C53F8BA
:10254000093093E8070084E807009DF80320284637
:102550002146FFF763FF08F06BFC4FF47A7200230B
:1025600009F0D2FED5E9222380185941C5E920019E
:10257000029805F025FD0746029805F024FD013874
:1025800087420ADB94E8070086E80700304605B07A
:10259000BDE8F08305F14403D3E7D5E922231343D3
:1025A00024D008F045FC4FF47A72002309F0ACFE09
:1025B000D5E92023994208BF904217D308F038FC90
:1025C0004FF47A72002309F09FFED5E92223801888
:1025D00059410023C5E920010193D3E707F026FD07
:1025E0004045C5D1022007F047FEC1E79DF8033002
:1025F0000A2B88D1C6E70000F0B5064685B0204812
:102600000BF032FD01A83146FFF762FF019C1CB9B7
:102610001C480BF09FFD30E0029F384605F0D0FCCF
:1026200000282ADD08F004FC0546F8B1B6F874303D
:1026300006F150000133A6F874303946224604F002
:10264000E7FE114B00261868009023681DF806105D
:102650005B6820464FF0FF3201369847042EF4D1D4
:1026600008F0E6FB411B09480BF0FEFC384605F07C
:10267000ACFC236820469B689847012005B0F0BD5C
:10268000E442020055380200B1420200EA42020070
:1026900038B5064C236833B92C20FDF7EDFD05460F
:1026A00006F080FB2560206838BD00BFE4C107202C
:1026B00010B50446FFF7ECFF03682146BDE8104063
:1026C0005B684FF0FF32184713B5002302AC04F8E3
:1026D000013DFFF7DDFF036821461B684FF0FF3225
:1026E00098479DF8070002B010BD00002DE9F041A9
:1026F00000F150048AB000250746009520465B494A
:102700005B4A5C4B04F0A2FD009520465A495B4AA7
:102710005B4B04F09BFD009520465A495A4A5B4B9F
:1027200004F094FD0095204659495A4A5A4B04F04A
:102730008DFD009520465949594A5A4B04F086FDB3
:10274000009520465849594A594B04F07FFD0095A1
:1027500020465849584A594B04F078FD00952046C8
:102760005749584A584B04F071FD00952046574987
:10277000574A584B04F06AFD009520465649574A7F
:10278000574B04F063FD009520465649564A574B77
:1027900004F05CFD009520465549564A564B04F01E
:1027A00055FD009520465549554A564B04F04EFDBF
:1027B000009520465449554A554B04F047FD009575
:1027C00020465449544A554B04F040FD009520469C
:1027D0005349544A544B04F039FD0095204653495F
:1027E000534A544B04F032FD009520465249534A57
:1027F000534B04F02BFD009520465249524A534B4F
:1028000004F024FD009520465149524A524B04F0F1
:102810001DFDFFF73DFF4FF480734FF4164120225A
:10282000054606F09FFA804601262E744B48FDF7B8
:1028300089FD4B48FDF780FD384629463246FFF7B3
:1028400027FE03A9082205A805F092FB05A8454923
:1028500005F001FE05A92A46204604F0D9FD05A889
:1028600005F09CFB40460AB0BDE8F0810D05010073
:102870004A43020000430200F90501003743020009
:102880003F430200191101005D4302004F43020063
:102890001D060100A543020064430200F108010087
:1028A000AA430200AE430200710801004D44020039
:1028B0000A440200010D01004C4402005044020091
:1028C000FD0901009B4402009E4402007D0B0100B3
:1028D000CC440200D2440200F50B0100F744020090
:1028E000FA440200510C0100315D0200274502004C
:1028F000B90B01004C4502004F450200810F010059
:102900007245020076450200410E01004946020070
:1029100051460200FD0E0100944602009B46020053
:10292000E1060100AE460200B24602002D0F010092
:10293000B1470200B747020041170100413F0200C2
:10294000DF47020075130100FD480200094802003C
:10295000BD120100A7350200C6480200C9260100C9
:10296000B1260100313C020010B5094C23681BB9A7
:102970000120FDF781FC2060206801F0CDFB054AB5
:10298000138818441080044A13780133137010BD63
:10299000DCC1072016C2072014C207207FB5104CE7
:1029A000104B114E227800933388019293FBF2F37F
:1029B000DBB202930025332301200C490C4A04F0BA
:1029C00077FF25700B4C358023780133DBB2092B60
:1029D000237002D904F0BEFE257004B070BD00BFA4
:1029E00014C207205E49020016C2072024490200D3
:1029F0008C49020018C2072008B5042004F0E0FE4C
:102A0000012008BD01207047FFF7C8BF7047FFF7DE
:102A1000ABBF000038B5074C256825B90120FDF78C
:102A20002BFC0570206020680421BDE8384001F0CF
:102A30005BBB00BF04C207207047000010B5002434
:102A4000074B002118684FF0FF320B4607F046F89D
:102A500020B101342046FFF7D7FFF1E710BD00BFDA
:102A600020C2072010B50024074B002158684FF002
:102A7000FF320B4607F032F820B101342046FFF751
:102A8000C5FFF1E710BD00BF20C2072010B500242C
:102A9000074B002198684FF0FF320B4607F01EF8F5
:102AA00020B101342046FFF7B2FFF1E710BD00BFAF
:102AB00020C2072010B50024074B0021D8684FF032
:102AC000FF320B4607F00AF820B101342046FFF729
:102AD000A1FFF1E710BD00BF20C20720FFF78CBFA8
:102AE000FFF790BF10B50446FDF7C8FB204610BDA8
:102AF00073B50E4605462E4B00241A682D490D234A
:102B0000009405F00FFA2C4BA6422B6014BF012352
:102B10000A23EB6185F83160214603222C620120F3
:102B200006F0B2FE254E214630600322012006F059
:102B3000ABFE214670600322012006F0A5FE95F849
:102B40003130B0602BB101202146032206F09CFEFB
:102B5000F0601B4B00241E680523C6F38F068DE82A
:102B60001800184932462346174807F019F906237A
:102B70008DE81800154932462346154807F010F92C
:102B800007238DE81800134823461349324607F0FF
:102B900007F995F8313043B108238DE818000F4844
:102BA0000F493246234607F0FBF8284602B070BDB5
:102BB00088490200A8490200504A020020C20720AA
:102BC00020490200B34902003D2A0100B749020032
:102BD000652A01008D2A0100BC490200B52A0100C6
:102BE000C249020070B50D461A4B002453F821600B
:102BF00019494B5D0133DBB2934202D04B5520465D
:102C000070BD4C55304621462246234606F066FFED
:102C10000146B8B1114B53F8255028460BF09AFAEB
:102C200028460BF072FD2346024629460C4801F067
:102C30008AFB0C4A0C4B9A644FF08043AA221A720A
:102C40001C7004E030460A460B4606F043FE0120A5
:102C500070BD00BF20C2072019C20720984902009A
:102C6000C9490200EFBEADDE0040024010B590F849
:102C700031300446B3B103210122FFF7B3FFA0B105
:102C8000204602210A22FFF7ADFF70B12046012144
:102C90000A22FFF7A7FF40B1204600210A22FFF7D2
:102CA000A1FF02E002210122EDE7012010BD7047E3
:102CB00008B501F0E9F8012008BD10B50446FDF79C
:102CC000DDFA204610BD000037B59020FDF7D4FA9C
:102CD00004460321FFF74AFB204605F0F5F83420AF
:102CE000FDF7CAFA054600244FF400720D4900941E
:102CF000042305F017F90C4B28462B6005F0E4F887
:102D00003420FDF7B9FA05460121FFF7F1FE284608
:102D100005F0DAF82046214605F0E4F84FF0FF30E0
:102D200003B030BD413F0200904A0200242310B599
:102D300003FB010188420BD043783BB1038CD418CC
:102D40004FF6FF73A34228BF234603842430F1E7E4
:102D500010BD000037B5002302A840F8043D0C4B1D
:102D600004215B6898470B4B019A1C680546141BAD
:102D70001A60094822460421FFF7D8FF07480221BC
:102D80002246FFF7D3FF281C18BF012003B030BD37
:102D900030C20720FCC2072044C207201FC30720FF
:102DA00008B50B4B197803788B420A4B0BBF1A8876
:102DB0009A880132013214BF9A801A80064B8170C2
:102DC000DB6820219847003018BF012008BD00BFF4
:102DD00005C00720ECC2072030C207200A4B02784A
:102DE0001B789A42094B0BBFDA881A8901320132EB
:102DF0000CBFDA801A810379C3F3C202073262F38F
:102E0000C5030371FFF7CCBF05C00720ECC2072044
:102E100010B5002306499A0011F82340844201D1DD
:102E2000881810BD0133042BF4D1002010BD00BF61
:102E30000DC3072070B1C3780133DBB2FF2BC37021
:102E400008D10023044A1A44D17804334908102BCE
:102E5000D170F7D1704700BF0DC30720242202FBB9
:102E600001010346024630B58A4206D01446243298
:102E700012F8235C002DF7D10FE0044600258B42A9
:102E80000BD01A79C2F3C2001A8C42EA0042954272
:102E90003CBF1C4615462433F1E7204630BD0000F8
:102EA00038B50546C90001F10804FFF753FF1C4B74
:102EB0001A782B789A4204D102211A48FFF7CEFFE4
:102EC0000CE019480421FFF7C9FFEB7833B990F8FB
:102ED0002330042443F0800380F82330002380F85B
:102EE000203080F8213002462B4690F8231080F8DD
:102EF000224021F07F01C4F306240C4380F82340D4
:102F000005F1200153F8044B8B4242F8044BF9D1F0
:102F1000064A0379127862F3C503037138BD00BF16
:102F200005C007201FC3072044C2072004C0072094
:102F300010B5FFF76DFF0446F8B9FFF769FF0446C7
:102F4000D8B90F4BDA79D9788A4228BF0A46D97A9C
:102F500034BF1C1D1C4691422CBF1146094CDA7B24
:102F6000094B8A4238BF1C4604222046002109F042
:102F700007FF064AD37A0133D372204610BD00BF43
:102F80000DC3072015C3072019C30720ECC2072073
:102F90002DE9F04105460C464FF0240808FB0218C5
:102FA0008E1D444500F09E8094F823301A0625D5E6
:102FB000BDB12A7861788A4205D16F7816F8060C7F
:102FC000874200F09180E87858B16878884208D14B
:102FD00016F8061C914204D1A979A279914200F019
:102FE000838094F82220218C03F07F0342EA03239C
:102FF000994274DB2046FFF7D3FE75E06278002A21
:103000006DD06DB3297901F0C001C02917D116F830
:10301000060C6978884202D12878904264D0E7781B
:10302000A87887420CD191420AD116F8060C29786B
:10303000884205D1A079A979884201D154E079B1BB
:10304000A878E17888420BD16978914208D116F8C6
:10305000060C2978884203D1A079A979884249D001
:1030600094F82210208C03F07F0341EA0323984256
:1030700035DB002384F8203084F821302379C3F332
:10308000C201CFB21FB12046FFF7A8FE27E003F030
:10309000C003C02B19D01C4B16F8060C1B789842A5
:1030A00013D1E378934210D07BB16379032262F3AA
:1030B00007136371E1702046FFF790FE134A2379EE
:1030C000127862F3C503237100E001276078FFF7EF
:1030D0009FFE18B10021042209F052FE27B92434C2
:1030E00024365EE7BDE8F08120460021242209F065
:1030F00047FEF4E72279002363F3C50284F8203009
:1031000084F821302271EAE705C0072004C00720B7
:10311000431EDBB2FD2B9DBF024B18700120002027
:10312000704700BF05C00720014B1878704700BFEB
:1031300005C0072007289CBF014B1870704700BFCF
:1031400004C007202DE9F743044691461E469DF82A
:1031500028500F46002963D0354B93F80080414535
:1031600060D00F2E5ED800285ED02022002109F00A
:1031700007FEFF2F237914BF09F00302002262F338
:103180008713032262F302032A4A6770127884F8D5
:10319000008062F3C503284A2371137884F8028003
:1031A0000133DBB21370A3710BAB019315B94FF070
:1031B000010818E0019AE0791346526853F8081B99
:1031C00000EB02085FFA88F8013DB8F1180F01938F
:1031D000EDB206D80830204409F0ACFD84F8078031
:1031E000E4E74FF00008DFF854900123384689F8EF
:1031F0000030FFF70DFE0546FFF71CFE002389F89F
:103200000030637925B966F307136371E57005E053
:10321000AA7862F3071363716B78E370404603E0AA
:10322000084601E00020FFE703B0BDE8F08300BFDF
:1032300005C0072004C007201DC30720F8C20720CF
:10324000124B012270B51A7004461E4608B90025BB
:1032500018E0FFF7A5FD05460028F8D0237903F014
:10326000C003402B06D0C02B0AD1E37853B162785B
:103270009A4207D0617920460909FFF711FE01E063
:10328000802BF7D000233370284670BDF8C207208A
:1032900082B0F0B51746421ED2B28DB0FD2A044668
:1032A0000D46139301D900205AE0002BFBD0159B4B
:1032B000002BF8D0179B002BF5D0169B002BF2D0DB
:1032C000149B002BEFD000214822284809F058FD1C
:1032D00000219022264809F053FD002110222548A4
:1032E00009F04EFD00210C22234809F049FD002180
:1032F0000C22224809F044FD214E224B1C7034461A
:10330000214B1D7013AD0FCD0FC42B680021182267
:103310001E48236009F034FD39461C4817220BF083
:1033200038FA0020B368014698470028BBD09DF8C2
:10333000603013B9FFF70EFD12E0154A0123019228
:1033400006220292009304A8FF210022FFF7FAFE52
:103350000028A8D004A8FFF773FF0028A3D0E9E74E
:103360000DB0BDE8F04002B0704700BF1FC307209A
:1033700044C207200DC3072001C30720ECC2072069
:1033800030C2072005C0072000C30720D4C2072091
:10339000A84A020030B5182B8DB005460C4615D84A
:1033A000B2FA82F1181C18BF0120490981420DD0E0
:1033B0008DE80D00294604A822469DF84030FFF70D
:1033C000C1FE18B104A8FFF73BFF00E000200DB0DC
:1033D00030BD13B50446107852790B46120900929D
:1033E00003212246FFF7D6FF02B010BD00231A4684
:1033F00030B5084C990014F823502DB1904201D1FA
:10340000601830BD0132D2B20133042BF1D100205B
:1034100030BD00BF0DC3072000231846044A12F830
:1034200023200AB10130C0B20133042BF6D170471A
:103430000DC307202DE9F04188B068460021202205
:1034400009F09EFCA14B1B7803F0FF04002B40F019
:103450003A819F4E6846336920219847002800F042
:1034600083809C4D6B8801336B80FFF7D5FF9DF8FF
:103470000420A87202F00703032B04D0964A1378A5
:1034800043F0010309E0954B1D789DF80230AB42F3
:1034900005D1914A137843F002031370E3E0C2F3BD
:1034A000C2029DF800E09DF80600D7B28C4904EBFB
:1034B000440313F801C0F4450AD10B445978814202
:1034C00006D199780124CF1B18BF01279A7018E004
:1034D0000134042CEAD183490B689A70804A5870F1
:1034E00002F10900834283F800E040F0C9800A60DD
:1034F0009DF800009DF80230834240F0C480002413
:1035000027469DF80200FFF713FD9DF80220027088
:103510009DF80220427000228270FFF78BFC04B1FC
:1035200017B39DF80030AB4200F09C809DF801700D
:10353000FF2F1BD1336868462021984720B9664A7F
:10354000137843F0040313709DF8053003F00F0265
:10355000511C61F303038DF80530C3F303139A4242
:1035600002DA6846FFF71CFC00247CE0BD422BD148
:1035700064B99DF807304BB13368684620219847FD
:1035800020B9554A137843F0040313709DF80430B2
:1035900003F0C003402B12D19DF8073013B95248F5
:1035A000182108E04B480C216A46FFF712FF00285B
:1035B00058D1002001466A46FFF70BFF52E09DF804
:1035C0000330002B4ED1F4E7484B1B78002BCBD0B7
:1035D0009DF8054004F00F064FEA14184645C3DA7B
:1035E000013666F303043846FFF712FC8DF80540F8
:1035F0009DF80340A5421ED19DF8041001F0C001C2
:10360000402906D0A1F180035A425A41144618B904
:103610001BE00122002854D0C029437805D19F42E5
:1036200003D0003318BF012300E00023134303F04D
:10363000010428B90BE0ACB910B9684641460FE067
:1036400043788DF80330857804E0C02939D000250F
:103650008DF803506846FFF7A3FB1CB16846294666
:10366000FFF71EFC6C46FFF775FB2046204904223D
:10367000FFF78EFC20461F490222FFF789FC22E05B
:1036800003330B6034E785423FF439AFFFF750FC5A
:103690000446FFF7CFFB23783BB19DF80530A278B5
:1036A00003F00F0393423FF72AAF9DF800302370D9
:1036B0009DF8023063709DF80530C3F30303A370D7
:1036C0001DE70346B2E708B0BDE8F081F8C2072065
:1036D00030C20720ECC207201EC3072005C0072008
:1036E00001C3072000C00720D4C2072000C3072061
:1036F00044C207201FC3072000231846094A1A4462
:1037000052780AB10130C0B22433902BF6D1064B67
:103710005A780AB10130C0B293F825300BB10130AC
:10372000C0B2704744C207201FC3072008B5FFF787
:103730006FFB064B28B18278187802FB0000C000AE
:1037400008BD18781823584308BD00BF04C00720DF
:1037500003490B6803604B6843608B688360704764
:10376000ECC2072030B5414C4FF48035E561404C48
:10377000A060E068C506FCD43D488068C0B20BB9C3
:103780000C4665E00B46002A6AD0072A384C0D78B3
:103790002FDDA5604D78083AA5608D78A560CD78BD
:1037A000A5600D79A5604D79A5608D79A56001F1C1
:1037B0000805C979A1602E498C696407FBD58C681E
:1037C0001C708C685C708C689C708968D970284902
:1037D000CC68E406FBD48C68083303F8044C8C688E
:1037E00003F8034C8C6803F8024C896803F8011C49
:1037F0001BE0032A1BDDA5604D78043AA5608D7897
:10380000A5600D1DC978A1601949CC68E406FBD4F8
:103810008C68043303F8044C8C6803F8034C8C6800
:1038200003F8024C896803F8011C2946ABE7013113
:10383000A560013AE568ED06FCD40D4C0133A4689F
:1038400003F8014C9FE7DD68ED06FCD4084B9B684C
:10385000631A934204DA14F8015B054B9D60F2E7AA
:10386000024B4FF480329A6130BD00BF00C0092086
:103870000080084007B5002302A9012201F8013D9C
:1038800000F01F001346FFF76DFF9DF8070003B01F
:103890005DF804FB07B502AB03F8011D00F01F0043
:1038A00019460122002340F02000FFF75BFF03B020
:1038B0005DF804FB08B51720FFF7DCFFC0F300102C
:1038C00008BD07207021FFF7E5BF03460A46A02088
:1038D00019460023FFF746BF08B50020FFF7CAFFCF
:1038E000BDE8084000F0FE010020FFF7D3BF000054
:1038F000024B4FF08072DA61704700BF20C0092090
:1039000008B50020FFF7B6FF40F00101C9B2002062
:10391000FFF7C0FF024B4FF080729A6108BD00BFF5
:1039200020C0092007202021FFF7B4BF0021E1209B
:103930000A460B46FFF716BF37B50C460546FFF79C
:10394000F5FF21462846FFF7C0FF0D4B4FF0807270
:103950001C469A610022ADF80620BDF806300133FE
:103960009BB2ADF8063033B94FF08073E361FFF7D7
:10397000DDFF03B030BDFFF79DFF0028EDD0F3E77A
:1039800020C0092008B51720FFF774FF00F00100E0
:1039900080F0010008BD07204021FFF77BBF08B57C
:1039A00003460A46612019460123FFF7DBFEC0F3F8
:1039B000420008BD0021E2200A460B46FFF7D2BEB6
:1039C00070B5064600200D461446FFF753FF16B1AA
:1039D00000F0BF0002E040F04000C0B215B100F0BE
:1039E000DF0101E040F0200114B101F0EF0101E03E
:1039F00041F010010020BDE87040FFF74BBF10B54B
:103A000004460020FFF736FF14B900F0F7010DE07F
:103A1000012C04D100F0FB0141F0080106E0022C6A
:103A200014BF40F0080140F00C01C9B20020BDE80D
:103A30001040FFF72FBF08B50020FFF71BFFBDE8C0
:103A4000084040F00201C9B20020FFF723BF08B5CB
:103A50000020FFF70FFFBDE8084000F0FD01002047
:103A6000FFF718BF40F6DD13984206D840F6621300
:103A7000B0F5166F38BF184600E01846A0F516617D
:103A8000C9B20520FFF706BF10B504460620FFF7B0
:103A9000F1FEFA2C00F0D70102D141F0200104E040
:103AA000B4F5FA6F08BF41F008010620BDE81040E8
:103AB000FFF7F0BE10B504460620FFF7DBFE032C2F
:103AC00020F0060028BF032440EA4401C9B20620C2
:103AD000BDE81040FFF7DEBEF9284FF0FA0305D924
:103AE000B0F57A6F88BF4FF47A6000E01846B0FBFB
:103AF000F3F00F2900F1FF30C0B228BF0F2141EAD7
:103B00000011C9B20420FFF7C5BE1130C0B216289B
:103B100004D8202928BF2021FFF7BCBE7047032806
:103B200004D0042814BF0321022100E00121032056
:103B3000FFF7B0BE03460A46302019460023FFF7C0
:103B400011BE03460A462A2019460023FFF70ABE83
:103B500073B50E4615460446FFF72CFFFFF7E6FE49
:103B60002B4B4FF08072DA61FFF771FF00210A469C
:103B70000120FFF725FFFFF7A4FE0220FFF73FFF1C
:103B80003046FFF76FFF2846FFF77EFF0320FFF761
:103B900091FF02200321FFF77DFE01200021FFF7A6
:103BA00079FE4FF4FA700321FFF796FF21460020BB
:103BB000FFF7ABFF12200021FFF76CFE132000215E
:103BC000FFF768FE14200021FFF764FE1520002196
:103BD000FFF760FE00211620FFF75CFE0D4B186812
:103BE0001B79009005208DF80430FFF798FF684698
:103BF0000521FFF79FFF68460521FFF7A2FFFFF7AA
:103C00001AFF4FF4FA6004F028FC02B070BD00BF48
:103C100020C00920AF4A020070B5174E326822B9A1
:103C20000320202105F030FE3060144D2A6822B9AF
:103C30000120202105F028FE2860114C216821B9BF
:103C40000120032205F020FE2060202040F6C31151
:103C50004FF4FA62FFF77CFFFFF752FE16200121B6
:103C6000084A04F0BDFD306828B1286818B1206802
:103C7000003018BF012070BD6CC3072068C3072047
:103C800070C30720313D010070B50646037900225C
:103C900003F0C003C02B0CBF0D4B0E4B88B01D684A
:103CA00031462846134605F015FE044660B9224603
:103CB00023466946284605F011FF2246234628463A
:103CC000314605F007FE0446204608B070BD00BF2F
:103CD00068C307206CC3072038B504460D46FFF7BC
:103CE00023FA237883420AD0E37843B90AF062FAD0
:103CF000BD2300F0030000FB033004F0AEFBFFF730
:103D0000F7FDFFF7E9FD2046A9B2FFF715FEFFF723
:103D100009FEFFF7F5FD06F0CBFC022804D1034BAA
:103D20000021186805F0A8FE012038BD70C30720E7
:103D300007B5002302A941F8043D084B186805F0B7
:103D40009BFE019B3BB1064B4FF080521A60BFF3C4
:103D50004F8FBFF36F8F03B05DF804FB70C3072074
:103D600004ED00E038B505460C46FFF70BFE48B100
:103D7000A1B22846FFF713FEFFF704FE08B9FFF7CC
:103D80000AFE012038BD2DE9704306460D46144653
:103D900006F08EFC022807D1224630462946002331
:103DA00005F09CFEC4B21DE007F042F84FF47A72B1
:103DB000002308F0A9FA10EB040841F100090022E1
:103DC00030462946134605F089FEC4B254B907F0BF
:103DD0002FF84FF47A72002308F096FA894508BF4D
:103DE0008045ECD22046BDE87083042938B50546ED
:103DF00003D1041C18BF012400E0002407F018F8C8
:103E00002CB14FF47A72002308F07EFA2860204625
:103E100038BD000000B50C4B8DB009930B4B0C4A1C
:103E20000B930C4B0A930CAB43F8102D0022049219
:103E30000FCB8DE80F00084B0121084A6A20FFF7DD
:103E400027FA0DB05DF804FB193C0100653D010047
:103E5000EB3D0100D93C0100893C0100B44A02005D
:103E600003460A46024908681946FFF78CBF00BF9F
:103E70006CC3072003460A46024908681946FFF743
:103E800082BF00BF68C3072008B506F011FC0F4BC6
:103E900002285B6913D15A020DD5FFF72DFC0C4B9C
:103EA00000284FF00001186814BF01224FF0FF32C4
:103EB0000B4605F013FEBDE80840FFF7BBBA5B02F6
:103EC000F9D5FFF719FC0028F5D108BD00C009207D
:103ED00070C3072030B504460D46134621792A46A3
:103EE000BDE83040006805F00BB91FB50A4604ABC9
:103EF0000021022423F8041D01790094006805F0D4
:103F0000EAF89DF80C009DF80D3043EA002004B05B
:103F100010BD10B504462A211922FFF7DBFF2068E7
:103F200021790D2205F0DBF8A0F12A03584258410F
:103F300010BD0000044A13881F2B9FBF581C10801F
:103F4000024A42F82310704778C307207CC3072039
:103F5000144AF0B51488012C20D9134B00211F46B8
:103F6000661EB14206DA58681D680131401B43F8ED
:103F7000040BF5E77B6803EB5301002318469CB262
:103F8000B44209DA57F8245001338D4282BF01252B
:103F900005FA04F42043F2E7044B18600023138071
:103FA000F0BD00BF78C307207CC3072074C307207F
:103FB00008B50220012106F0D3FE084B01209A6AC1
:103FC00022F007029A629A6A42F006029A62044A52
:103FD000D36843F03003D36008BD00BF00800040C9
:103FE00000C0024008B5044A01F07F034171D25C71
:103FF0000321FFF76FFF08BDB94A020008B5044A64
:1040000001F07F038171D25C0221FFF763FF08BDDD
:10401000B94A020038B504460068217905F07BF8FA
:10402000054688B1204606210022FFF753FF2046AF
:1040300007210022FFF74EFF20462E21FFF7D2FF77
:1040400020462E21FFF7DAFF284638BD642370B5DD
:10405000B1FBF3F404FB1311CCB20A21B4FBF1F56C
:1040600001FB15413031C9B20646FFF7C7FF092CE5
:104070008ABF05F1300130463046BDE8704094BF3C
:104080002021C9B2FFF7AEBF0120704738B50D46F9
:10409000044606F047FC05F00F032370114B15F0A2
:1040A000010F4FF0010214BFDA619A61227812F019
:1040B000020F4FF0020214BFDA619A61227812F007
:1040C000040F4FF0100214BFDA619A61227812F0E7
:1040D000080F4FF4807214BFDA619A61BDE838406E
:1040E00006F030BC20C0092038B504460D4606F065
:1040F00019FC013D23780121A9405940C9B2217022
:104100002046FFF7C3FFBDE8384006F01BBC012086
:104110007047022004F036BA08B5022004F032FAE3
:1041200064235843C0F3073008BD012070470000E6
:10413000044B5B69C3F38130C3F3412343EA80003E
:10414000704700BF20C0092010B50446012181221C
:10415000FFF7C0FE20682179012204F0C0FF10F0B3
:10416000600F14BF0120002010BD38B500210546A6
:10417000FFF7BBFE8122012184B22846FFF7AAFE89
:1041800024B2102094FBF0F007F0D4FE4FF07651EB
:1041900007F024FFA96807F019FE38BD08B5FFF73E
:1041A000E4FF054907F01AFF044907F0CBFF4FF081
:1041B000844107F00BFE08BD000010410000A04044
:1041C0002DE9F04F0546ADF2546D0C46904682A89D
:1041D000294601229946DDF878A602F011F8002858
:1041E00067D121460DF22C400A2202F009F804465C
:1041F00020B182A802F075FA20465AE083460646AE
:104200000090019006F014FE4FF47A72002308F03B
:104210007BF802A907464FF4007282A86B4602F0B1
:1042200088F80546D8B9009BCBB106F001FE4FF4E3
:104230007A720023F61B08F067F8064406F0F8FDD2
:104240004FF47A72002308F05FF802A90746009A3B
:104250000DF22C4001AB02F02AF90546B8B1B8F1D5
:10426000000F01D0C8F80060B9F1000F01D0C9F803
:1042700000B0BAF1000F01D0CAF8004082A802F0E5
:1042800030FA0DF22C4002F02CFA284611E0019A87
:10429000009B9A42E3D106F0CBFD4FF47A720023E3
:1042A00008F032F8009BBBEB070200EB020B1C444A
:1042B000A8E70DF2546DBDE8F08FF0B50446ADF5FA
:1042C0000B7D0F46164621461D4601A800230122FC
:1042D000009301F095FF044670B91DB101A829466D
:1042E00002F011FA01A8394632466B4602F021F875
:1042F000044601A802F0F5F920460DF50B7DF0BD4E
:10430000F0B50446ADF50B7D0F46164621461D4619
:1043100001A800230A22009301F072FF044670B93D
:104320001DB101A8294602F0EEF901A8394632462E
:104330006B4602F0BCF8044601A802F0D2F9204610
:104340000DF50B7DF0BDF0B50446ADF50B7D0F46C8
:10435000164621461D4601A800231222009301F0B3
:104360004FFF044680B901A80DB1294600E0049929
:1043700002F0C9F901A8394632466B4602F097F8B7
:10438000044601A802F0ADF920460DF50B7DF0BD05
:104390007F2816D931B1FF2812D80A4B803833F85C
:1043A00010007047074A8BB232F81120824203D0C6
:1043B00001318029F6D10B4603F18000C0B270476D
:1043C000002070473A4B02000023064A32F81320BF
:1043D00032B1904201D00133F7E7034A32F81300BB
:1043E000704700BF1A4E02003A4C020010B501207F
:1043F0000C4605F0F1FA2060003018BF012010BD16
:104400000120704710B5044606F052F902280AD17F
:1044100000210B4620464FF0FF3205F05FFB431EA4
:104420005842584110BD012010BD10B5044606F099
:104430003FF9022807D100212046BDE810400A4676
:104440000B4605F047BA10BD10B5044604F04CFC0D
:1044500024B1012C06D100F07BF901E000F0EEFC64
:10446000044600E0042404F057FC204610BD28B1A7
:10447000012801D00420704700F018BA7047F8B541
:1044800007460E4615461C4604F02EFC3FB1012F90
:104490000CD130462946224600F010FA04E030469E
:1044A0002946224600F016FD044600E0042404F0EC
:1044B00033FC2046F8BDF8B507460E4615461C46A7
:1044C00004F012FC3FB1012F0CD1304629462246A0
:1044D00000F042FA04E030462946224600F020FD72
:1044E000044600E0042404F017FC2046F8BD70B533
:1044F00006460D46144604F0F7FB36B1012E0AD1EC
:104500002846214600F082FA03E02846214600F0C2
:104510002BFD044600E0042404F0FEFB204670BDA1
:1045200008B506F085FC4FF47A72002307F0ECFE24
:1045300008BD000010B5044606F0F2FD074BB0FBC5
:10454000F3F00223B0FBF3F2944202D3044A136166
:1045500010BDB3F5807FF9D00233F3E740420F007E
:1045600000000340044B9860DA68D206FCD4024B8A
:104570009868C0B2704700BF0000034038B5FFF72D
:10458000CFFF00F5FA75FF20FFF7ECFFFF20FFF7E4
:10459000E9FFFF28044606D0FFF7C2FF0023994237
:1045A00008BFA842F2D3204638BD000038B5064CFB
:1045B0004FF00075E561FFF7E1FF044AA56113784C
:1045C00043F00103137038BD20C0092006C0072046
:1045D00070B505460E46FFF7A3FF00F16404FF2007
:1045E000FFF7C0FFFF2808D1FFF79AFF0023994289
:1045F00008BFA042F3D3002070BDFE28FBD1102ECF
:1046000006D928464FF40071002204F00BFB19E094
:104610002C1DFF20FFF7A6FF04F8040CFF20FFF776
:10462000A1FF04F8030CFF20FFF79CFF04F8020C25
:10463000FF20FFF797FF043404F8050C331D1B1B04
:10464000DD42E6D1FF20FFF78DFFFF20FFF78AFF55
:10465000012070BD70B506460D46FFF78FFFFF289D
:10466000044619D12846FFF77DFFFD2D16D04FF4E3
:1046700000712246304604F0D5FA2046FFF772FF5B
:104680002046FFF76FFF2046FFF76CFF00F01F008A
:10469000431F5842584170BD002070BD012070BDBD
:1046A000020638B504460D4607D577200021FFF7EE
:1046B000F7FF012836D804F07F041B4B4FF000723F
:1046C0009A61DA61FFF75AFFFF282AD12046FFF7E7
:1046D00049FF280EFFF746FFC5F30740FFF742FFEB
:1046E000C5F30720FFF73EFFE8B2FFF73BFF402C82
:1046F00004D0482C0CBF8720012000E09520FFF754
:1047000031FF4C2C02D1FF20FFF72CFF0A24FF20A1
:10471000FFF728FF030605D5013C14F0FF04F6D18E
:1047200038BDFF2038BD00BF20C00920064A074918
:1047300013784969DBB2490154BF03F0FD0343F02C
:1047400003031370704700BF06C0072020C0092074
:104750002DE9F347FFF7EAFF514B1A781E4612F096
:10476000020F01D0187896E00120FFF7E3FE0A243B
:10477000FF20013CFFF7F6FE14F0FF04F8D1494D8D
:104780004FF00073EB6140202146FFF789FF0128BD
:1047900001D000246EE0FFF7C3FE4FF4D57100F5A1
:1047A0007A7A4820FFF77CFF01283DD1FF20FFF7F0
:1047B000D9FE01AF38550134042CF7D19DF80630ED
:1047C000012BE6D19DF80730AA2BE2D1FFF7A8FE16
:1047D0004FF00009494508BF5045D04606D3FFF7C2
:1047E0009FFE494508BF4045D3D207E0E9204FF07E
:1047F0008041FFF755FF0028E8D1F0E77A2000213B
:10480000FFF74EFF0028C4D10446FF20FFF7AAFEA1
:1048100038550134042CF8D19DF8043013F0400FC2
:1048200014BF0C24042425E02146E920FFF738FFBB
:10483000022835BF02240124E9274127FFF770FE33
:104840004FF00009494508BF5045D0460BD3FFF74C
:1048500067FE494508BF40450CD34FF40071502016
:10486000FFF71EFF06E038460021FFF719FF00287A
:10487000E4D1ECE70C4B1C704FF00073AB613CB122
:104880003378182003F0FE033370FFF753FE01E086
:10489000FFF78CFE3078C0B202B0BDE8F08700BFF1
:1048A00006C0072020C00920FCC3072008B5FFF779
:1048B0003DFF014B187808BD06C00720F8B5144627
:1048C00007460E46FFF732FF002C3AD01F4B1B78ED
:1048D000DB0738D41E4B4FF00072DA611D4A1D46CB
:1048E000127812F0080F08BF7602012C0DD151206A
:1048F0003146FFF7D5FEE8B938464FF40071FFF7AF
:1049000067FEB0FA80F4640914E052203146FFF7E4
:10491000C7FE78B938464FF40071FFF759FE28B149
:10492000013C14F0FF0407F50077F3D14C2000217F
:10493000FFF7B6FE4FF00073201CAB6118BF0120DB
:10494000F8BD0420F8BD0320F8BD00BF06C0072055
:1049500020C00920FCC30720F8B5144607460E46C0
:10496000FFF7E4FE002C45D0254B1A78D20743D43C
:104970001B785B0742D4234B4FF00072DA61224A66
:104980001D46127812F0080F08BF7602012C0CD1D8
:1049900058203146FFF784FE28BB3846FE21FFF73A
:1049A00059FEB0FA80F464091DE012F0060F03D03E
:1049B000D7202146FFF774FE59203146FFF770FEDD
:1049C00088B93846FC21FFF745FE28B1013C14F0B8
:1049D000FF0407F50077F4D10020FD21FFF73AFE30
:1049E000002808BF01244FF00073201CAB6118BFE2
:1049F0000120F8BD0420F8BD0320F8BD0220F8BD59
:104A000006C0072020C00920FCC307207FB504464C
:104A10000D46FFF78BFE052C1AD12B78012B00F0E9
:104A2000FD8003D3022B0BD00420FAE07E4B5869A3
:104A300010F0806440F0F280FFF7B8FD2046F0E00F
:104A4000794B5B6983F08063C3F380636B70E5E04F
:104A5000764B1B78DB0700F1E3800E2C00F2D88048
:104A6000DFE804F008124F53D6D6D6D6D6D6A3A880
:104A7000AAB4C4006C4B4FF00072DA61FFF77EFD00
:104A8000FF3818BF0120C4E049200021FFF708FECD
:104A9000044608B10120BCE068461021FFF798FDEC
:104AA0000028F7D09DF800309DF809009B09012BE4
:104AB0009DF8083005D1013000EB03239BB29B0227
:104AC0001CE09DF80710890001EB93135A1C9DF818
:104AD00006309DF8051003F0030302EB83239DF8D5
:104AE0000A2001F00F0101EBD212911C00F0030229
:104AF00001EB4202D2B29BB2093A93402B602046AE
:104B000087E04FF400732B8052E0494E337803F076
:104B1000040303F0FF01DBB1CD200021FFF7C0FD4E
:104B20000028B7D1FF20FFF71DFD68461021FFF7D1
:104B30004FFD0028AED03024FF20FFF713FD601E8C
:104B400010F0FF04F8D19DF80A2010231209D4E7D1
:104B50004920FFF7A5FD044600289BD16846102197
:104B6000FFF736FD002895D031789DF80A2001F036
:104B7000020101F0FF009DF80B3051B102F03F023D
:104B8000DB0903EB42039DF80D2001339209013A42
:104B9000B3E7C2F3840103F003045A0902EBC40231
:104BA000531C01FB03332B6033E0214B1B782B702C
:104BB00000202EE0492000E04A200021FFF770FD90
:104BC00000287FF467AF284610211BE07A200021DF
:104BD000FFF766FD00287FF45DAF2C1DFF20FFF777
:104BE000C1FC05F8010BA542F8D1E1E7CD20002179
:104BF000FFF756FD00287FF44DAFFF20FFF7B2FC12
:104C000028464021FFF7E4FCB0FA80F0400900E0BC
:104C10000420054B4FF000729A6102E0002000E092
:104C2000032004B070BD00BF20C0092006C00720CB
:104C3000FCC30720054B1B78253BDBB2032B9ABF37
:104C4000034A52F823000020704700BF00C4072029
:104C5000045002001B4B2DE9F0411D880646B5F5B6
:104C6000007F0F46144602D1084611460AE0B5F50A
:104C7000807F09D1084611462A46B04707F5807063
:104C800004F580712A4617E0B5F5047F05D1510A75
:104C9000384689024FF400720EE0B5F5847F0FD1DB
:104CA000140A08464FF480726102B047611C07F590
:104CB000807049024FF480723346BDE8F0411847D6
:104CC000BDE8F081FEC30720034610B500295DDD75
:104CD00007291A782E4C2FDDA2605A780839A26075
:104CE0009A78A260DA78A2601A79A2605A79A260F2
:104CF0009A79A26003F10802DB79A360244B9C69D6
:104D00006407FBD59C6804709C6844709C68847040
:104D10009B68C3701E4BDC68E406FBD49C680830BB
:104D200000F8044C9C6800F8034C9C6800F8024CA6
:104D30009B6800F8013C1BE003291BDDA2605A7848
:104D40000439A2609A78A2601A1DDB78A360104B28
:104D5000DC68E406FBD49C68043000F8044C9C68D2
:104D600000F8034C9C6800F8024C9B6800F8013C7A
:104D70001346ABE70133A2600139E268D206FCD4E6
:104D8000034A0130926800F8012C9FE710BD00BF74
:104D90000000034007B50B0C8DF804008DF80530BA
:104DA0008DF807100B0A01A804218DF80630FFF7D3
:104DB0008BFF03B05DF804FBF7B5164607460E4CB3
:104DC00040250323E5618DF804300B0C8DF8053088
:104DD0008DF807100B0A01A804218DF80630FFF7A3
:104DE00073FF38463146002203F01CFFA561A56120
:104DF000A56103B0F0BD00BF00C009200D4B4022EB
:104E0000DA610D4BD7229A60DA68D106FCD40A4BDE
:104E10009B68094BFF229A60DA68D206FCD4064BE5
:104E200098680306F5D5034B40229A61C0B29A6197
:104E30009A61704700C0092000000340F7B5FFF7F2
:104E4000DDFF1F4C002323801E4B1F4E40271A8876
:104E50009B78F7610546032101A8ADF804208DF881
:104E60000630FFF731FF9DF805209DF806301F2A18
:104E7000B761B761B7611CD1A3F12502032A18D825
:104E8000124A252B137005F0010006D1002814BF2B
:104E90004FF480734FF4847305E0002814BF4FF47F
:104EA00000734FF404732380FFF7C4FE084B400ADD
:104EB00018602088B0FA80F0400903B0F0BD00BF50
:104EC000FEC30720FA4F020000C0092000C40720DB
:104ED00004C407202DE9F0418B1817460E4A013B08
:104EE00012688046934214D84D024446FFF786FF6D
:104EF0000026C8EB0502BE42224407DA21460748D5
:104F0000FFF7A8FE04F500740136F2E70020BDE8C3
:104F1000F0810120BDE8F08104C40720B94D0100F3
:104F20002DE9F0418B1817460D4A013B1268804667
:104F3000934212D804464D020026C8EB0502BE4239
:104F4000224407DA21460748FFF784FE04F500747F
:104F50000136F2E70020BDE8F0810120BDE8F081D4
:104F600004C407204950010010B50C46072805D895
:104F7000DFE800F006090E1214141414042010BD0A
:104F8000FFF73CFF0AE0FFF755FE400A206005E00E
:104F90004FF400730B8001E001230B60002010BD73
:104FA00070B590B003466A466E4600F1400514465F
:104FB00018685968083303C4AB422246F7D1084D3C
:104FC0004024EC619B200021FFF7E4FE304621469F
:104FD000FFF77AFEAC61AC61AC6110B070BD00BF90
:104FE00000C0092070B50646074D402477200021F7
:104FF000EC61FFF7CFFE30462146FFF765FEAC615E
:10500000AC61AC6170BD00BF00C00920064B10B59B
:105010001C8834F01F0404D0FFF70CFEB0FBF4F042
:1050200010BD204610BD00BFFEC30720014B1888ED
:10503000704700BFFEC30720024B1878003018BF2E
:1050400001207047FEC307202DE9F7434FF0FF33DF
:105050000F46904601938146FFF7D0FEFFF7ECFF25
:105060000646B0B1194C4025194BE5611B88032059
:10507000B3F5847F0CBF4FF480714FF40071394356
:10508000FFF788FE01A80421FFF71EFEA561A561B8
:10509000A5610E4C402382203946E361FFF77AFE7A
:1050A00048464146012203F0BDFD3EB1019B02A8E6
:1050B000013340F8043D0421FFF706FE4023A361BD
:1050C000A361A36103B0BDE8F08300BF00C0092065
:1050D000FEC30720F7B5124B07461B88B3F5847F44
:1050E0004FF0FF330CBF4FF480764FF400760193FE
:1050F000FFF7A2FF70B10B4C4025032046EA472181
:10510000E561FFF747FE01A80421FFF7DDFDA5617A
:10511000A561A5610198431C08BF002003B0F0BD44
:10512000FEC3072000C0092037B5074B074C18689D
:10513000402501900421E56101A8FFF7C5FDA561A7
:10514000A561A56103B030BDFD4F020000C009207C
:105150001FB501A803F08AFC9DF809309DF80820CE
:1051600003F00F0302F01F025B0543EA02419DF8C2
:1051700006309DF8040003F01F0341EAC3229DF8A6
:105180000530C0F3440003F03F0342EA4313BDF887
:105190000A201843520602F10842104305B05DF898
:1051A00004FB30B504460D1F131B0344032B04D925
:1051B00055F8043F44F8043BF6E722F00303194492
:1051C00002F00302013B18440A44914204D011F852
:1051D000013B00F8013FF8E730BD0244904202D0A5
:1051E00000F8011BFAE7704700F10B010023DA0118
:1051F00042EA530310F8012B1344884203F0FF03E3
:10520000F5D118467047026810B50446BAB1134686
:10521000184613F8011B1F2902D93A29F8D101E0D9
:10522000002010BD114611F8013B884207D1303BE8
:10523000D9B2012903D802321846226010BD4FF0BE
:10524000FF3010BD03692DE9F04101F109020D465F
:1052500053B3416900244E1E16F8013F0134202B40
:1052600018D0052B47D0092C02D12E2717700132F8
:10527000A3F14107192F0BD8082C0F7B8CBF4FF0DF
:10528000100E4FF0080E1EEA070F1CBF2033DBB2D2
:10529000137001320B2CDFD1CB7A2B72CB692B60D0
:1052A0000B8BAB80CB8AEB8000241470AE693EB3CD
:1052B00003690BB900241AE0EB69002BFAD04FF612
:1052C000FF73028C9A42F5D0D0F81C80771E38F814
:1052D000140060B10021FFF75BF80028EAD0EB6909
:1052E000013B9C42E6D2013407F8010FEFE70023AF
:1052F0003355BDE8F081092C4FF0E503C8D1B4E780
:10530000BDE8F081F8B5037904460BB90020F8BD7B
:10531000056B00F13407394640782A460123FFF730
:10532000CAF890B9636AE269EB1A93422071EDD230
:10533000E678012EEAD9E36960781D4439462A46A9
:105340000123FFF7B8F8013EF3E70120F8BD0000A4
:10535000F8B50446FFF7D6FF05468DBB2378032B2F
:1053600026D16679012E23D104F134073846294627
:105370004FF40072FFF731FF4AF65523A4F832329A
:10538000104B226A636303F1FF5303F5005320338C
:10539000C4F8183263690132C4F81C3223692263ED
:1053A000C4F82032607839463346FFF784F86571D7
:1053B000002160780A46FFF79AF8003018BF0120F4
:1053C000F8BD00BF52526141036B70B5994205466A
:1053D0000E4610D0FFF796FF044608B101240BE0FB
:1053E000687805F1340132460123FFF748F80028B8
:1053F000F4D12E6300E00024204670BD002310B5D8
:1054000003714FF0FF3303630446FFF7DDFFA0B9DC
:105410004AF65523B4F832229A4210D1D4F86A30B1
:10542000084A23F07F4393420AD0D4F8860020F044
:105430007F40801A18BF012010BD032010BD02203C
:1054400010BD00BF46415400F0B50023036085B095
:10545000074608461546FFF7D6FE061EC0F2F28044
:105460007E4B53F82640002C00F0EE80E068FEF7FB
:10547000C9FF002800F0EA803C60237883B160789F
:10548000FEF7F5FFC1070BD4002D00F0D98000F026
:10549000040303F0FF00002B00F0DD800A20DAE0B7
:1054A0000023F0B223706070FEF7CEFFC20700F158
:1054B000CF800DB14307F1D420460021FFF79EFFB6
:1054C00001281CD12146002291F8F6310BB1D1F808
:1054D000FA314DF822300132042A01F11001F3D1E2
:1054E00000265DF826502DB120462946FFF786FF9D
:1054F00008B90BE002200136042EF2D100E00025AD
:10550000032800F0A78008B10D20A4E0B4F83F30D4
:10551000B3F5007FF8D1B4F84A0000B9A06D94F853
:1055200044E0E0610EF1FF33012B84F803E0EBD897
:1055300094F84130A370002BE6D05A1E1A42E3D1F2
:10554000B4F845C01CF00F0FA4F808C0DCD1B4F8C3
:10555000472002B9626DB4F842100029D4D00EFB86
:1055600000FE01EB1C177744BA42CDD3D21BB2FB2D
:10557000F3F3002BC8D040F6F572934206D94FF6EC
:10558000F576B3428CBF0326022600E001260233E3
:1055900029442F44032EA36125626162E76206D18C
:1055A000BCF1000FB0D1226E9B00A26210E0BCF1F2
:1055B000000FA9D0022E4FEA43020CBF1346D218A7
:1055C000714418BF03F00103A16218BF03EB52033B
:1055D00003F2FF13B0EB532F96D34FF0FF33636109
:1055E0002361032E4FF08003637122D1B4F864303D
:1055F000012B1ED12046691CFFF7E6FEC8B94AF60A
:105600005523B4F8322260719A4212D1626B144B66
:105610009A420ED103F1FF53D4F8182203F5005338
:1056200020339A4201BFD4F81C326361D4F820328F
:1056300023610C4A2670138801339BB21380E380E8
:10564000002008E00B2006E00C2004E00F2002E020
:10565000032000E0012005B0F0BD00BF0CC407200E
:105660005252614108C4072010B50446A8B103682E
:105670009BB11A788AB1D988828891420DD1D868B5
:10568000FEF7C0FE58B123685878FEF7F0FE10F020
:10569000010F14BF0320002010BD092010BD0F20F2
:1056A00010BD50B1A1F10B03012B06D9092904D07B
:1056B0000F2902D0C068FEF7B8BE7047836902396F
:1056C000023B99423DBF8278C36A02FB0130002051
:1056D00070470129F8B507460C464BD983699942B2
:1056E00048D20378022B29D0032B34D0012B41D18F
:1056F00001EB5106416A01EB5621FFF765FE10B13F
:105700004FF0FF30F8BD796AC6F3080301363B4419
:10571000384601EB562193F83450FFF755FE002828
:10572000EED1C6F308063E4496F83400E30745EA96
:1057300000204CBF0009C0F30B00F8BD416A01EB2B
:105740001421FFF741FE0028DAD1630003F4FF7350
:10575000FE18B08EF8BD416A01EBD411FFF734FE9C
:105760000028CDD1A40004F4FE743C44606B20F00A
:105770007040F8BD0120F8BDF8B5054684680E46B6
:10578000012CE98001D10220F8BD03689A69944296
:10579000F9D254B91A78032A01D19A6A22B91A891E
:1057A0009642F0D2986A17E0144621469F783F014E
:1057B000BE420DD32868FFF78CFF431C01461AD068
:1057C0000128E0D92B689B699842DCD2F61BEFE7F1
:1057D00028680C46FFF772FFEC600028D3D02B68D6
:1057E00000EB161006F00F0603EB46163436286160
:1057F0006E610020F8BD0120F8BD0129F8B505460D
:105800000C4616465FD9836999425CD20378022B15
:1058100038D0032B42D0012B51D101EB5107416A03
:1058200001EB5721FFF7D0FD002849D1C7F308034A
:1058300014F001042B4418BF93F83410F2B21EBFC9
:1058400001F00F0141EA0212D2B2696A83F83420F2
:10585000013701232B71284601EB5721FFF7B4FDD7
:1058600070BBC7F308072F4414B1C6F3071606E050
:1058700097F83430C6F3032623F00F031E4387F84E
:1058800034601DE0416A01EB1421FFF79DFDB8B9BA
:10589000640004F4FF742C44A68611E0416A01EB15
:1058A000D411FFF791FD58B9A40004F4FE7430340C
:1058B0002C44636803F070431E43666000E00220DE
:1058C00001232B71F8BD0220F8BDF8B505460F463F
:1058D00031B9066996B183699E4228BF01260EE060
:1058E000FFF7F7FE01283FD9441C02D14FF0FF30EB
:1058F000F8BDAB69984238D33E4600E001263446F5
:10590000AB6901349C4204D3012E01D80020F8BDBC
:10591000022428462146FFF7DCFE30B1411C24D08A
:10592000012822D0B442EBD1F0E7284621466FF09F
:105930007042FFF762FFA8B957B96B692C615A1C16
:105940000ED0013B6B616B7943F001036B7107E093
:10595000284639462246FFF750FF0028EDD001E0E7
:105960002046F8BD0128C1D00120F8BD2DE9F8433B
:10597000C68804460136B3B20F4613B90420BDE809
:10598000F8830369002BF9D016F00F0859D1C168CC
:1059900001330361006819B903899E42EED250E0D9
:1059A0008378013B13EA16134BD1FFF792FE0128CF
:1059B000054602D80220BDE8F883421C02D101202E
:1059C000BDE8F883206883699D4234D3002FD5D089
:1059D000E168FFF77AFF054600283BD00128E9D0AF
:1059E000431CECD02068FFF78DFC07460028E6D169
:1059F0002068394634304FF40072FFF7EEFBD4F8DC
:105A0000009029464846FFF759FEC9F83000236840
:105A10009A7897420CD201221A712068FFF772FC23
:105A20000028CCD122680137136B01331363EEE7F2
:105A30001A6BD71B1F63E56020682946FFF73EFEFF
:105A400020612368E68003EB481334336361002050
:105A5000BDE8F8830720BDE8F88300002DE9F74F83
:105A600000210646FFF788FE002840F087804FF6A9
:105A7000FF734FF0FF084446338430683169FFF705
:105A8000A3FC00287AD175692B78002B6DD0E52B0B
:105A9000E97A5FD00F0701F03F0202D50F2A59D1F2
:105AA00001E00F2A42D1D6F81C90B9F1000F55D071
:105AB000580606D503F0BF04F38895F80D803384AB
:105AC00001E0A34249D16B7B434546D12F784FF08B
:105AD000000A27F040077B1E0D275F430123294A58
