:020000021000EC
:10000000E03F082093010100FB000100E100010036
:10001000090101001901010029010100000000008F
:1000200000000000000000000000000091A8010096
:10003000390101000000000001A90100590101007F
:10004000EDAE0100EDAE0100EDAE0100EDAE010040
:10005000EDAE0100EDAE0100EDAE0100EDAE010030
:10006000EDAE0100EDAE0100EDAE0100EDAE010020
:10007000EDAE0100EDAE0100EDAE0100EDAE010010
:10008000EDAE0100EDAE0100EDAE0100EDAE010000
:10009000EDAE0100EDAE0100EDAE0100EDAE0100F0
:1000A000EDAE0100EDAE0100EDAE0100EDAE0100E0
:1000B000EDAE0100EDAE0100EDAE0100EDAE0100D0
:1000C000EDAE0100EDAE0100EDAE0100185F0200E3
:1000D00000C00720B8010000B8C107208404000058
:1000E00004207146084203D0EFF309800AF01CBFD8
:1000F000EFF308800AF018BF704708B5014807F011
:1001000061FCFEE7AE58020008B5024807F05AFC51
:10011000FEE700BFB958020008B5024807F052FCDC
:10012000FEE700BFC458020008B5024807F04AFCC9
:10013000FEE700BFCF58020008B5024807F042FCB6
:10014000FEE700BFDC58020008B5024807F03AFCA1
:10015000FEE700BFEA58020008B50AF04DFB0AF0BE
:10016000F7FBBDE808400AF05BBB0B4610B55C1A14
:10017000944204D2441AE45843F8044BF7E710BD04
:1001800003461A1A8A4203D2002243F8042BF8E7E6
:10019000704716480AF07EFC14480AF07EFC144CA6
:1001A000144B9C4207D294E803000C3454F8042CFE
:1001B000FFF7DBFFF4E7104B9C4206D254F8080B24
:1001C00054F8041CFFF7DCFFF5E70CF039FC0AF0EB
:1001D0007BFC01F0CBFD02F059FD4FF416400AF014
:1001E000C1FF064807F0EEFBFEE700BFE03F082036
:1001F000CC000100D8000100E0000100FE58020020
:10020000144A70B51368014613B94FF08053136058
:100210001068114B4518114E2B44B34298BF104B38
:100220000C4C96BFC81825602060126898BF18460D
:100230000C4B9A4281BF0C4A064B00201A6039B120
:100240000A4A136801331360094B1860094B19609F
:1002500070BD00BFBCC10720FF7FFFEFFE3F07104E
:100260003CC60720FF3F082000400820C4C10720EB
:10027000B8C10720C0C107200CF0FEBC0CF004BDC3
:100280000CF002BD10B504468AB068460CF0A0FF21
:10029000204A214B2260089A2049A260079A626096
:1002A00052B90A681E4882428ABF02F1604202F1D6
:1002B0007042A2F5E82262606268B2F5803F82BFB8
:1002C00002F17042A2F5E82262600022E2600A6850
:1002D00013498A4205D8C3F1405303F50C239B1AF6
:1002E00009E010498A4207D8C3F1804303F580131F
:1002F0009B1A002B00DDE36020460B4BE2611B687C
:10030000A3610A4B1B686361094B1B6823610AB038
:1003100010BD00BF3C0600003CC60720BCC1072042
:1003200000800010FF3F0820B8C10720C0C107208F
:10033000C4C10720FEE70000014B1860704700BFF2
:10034000CCC10720014B1860704700BFC8C107200F
:1003500008B502480DF0CEFEFEE700BFC02F020038
:1003600008B502480DF0C6FEFEE700BFDA2F020016
:100370000020704701207047F8B5084B16461A68F0
:100380000F461C4642B10D46EB1BB34204DA23680C
:1003900015F8010B9847F7E73046F8BDCCC10720A8
:1003A000F8B5094B0F46186816461C4658B10D465D
:1003B000EB1BB34205DA23680020984705F8010BD0
:1003C000F6E726EAE670F8BDC8C1072070470020AE
:1003D00070470000074B1B689A68824207D05A6832
:1003E000824204D0DB681B1A5842584170470120F2
:1003F000704700BF3CC107200020704700207047B5
:1004000030B504468DB0A8B3684608F0FDFA9DF8F3
:100410000030002503F03F0303939DF8013003A84B
:1004200003F03F0304939DF802300B9503F01F0384
:1004300005939DF8043003F01F0306939DF80530E3
:1004400003F00F03013B0793BDF80630C3F30B0322
:10045000A3F26C7308939DF8033003F0070309932C
:10046000BDF80830C3F30B03013B0A930CF036FDD3
:1004700084E8210000200DB030BD000070B50F4DA4
:100480000F4E2C6814F0010415D128460AF030FFF5
:1004900088B14FF40E70FFF7EFFE302380F835324D
:1004A0003A2380F8344280F8363280F837423060A0
:1004B00028460AF029FF306870BD00BFECC1072054
:1004C000D4C1072070B50F4D0F4E2B6813F00104F7
:1004D00016D128460AF00CFF90B14FF40E70FFF7CA
:1004E000CBFE012380F83432312380F835323A23B1
:1004F00080F8363280F83742306028460AF004FF30
:10050000306870BDE8C10720D0C107202DE9F04751
:10051000ADF51A7D0F4607F0B6FE041E04DD0AF0A5
:1005200033F9204609F076FE0DF1140844462B4DB0
:100530000FCD0FC42B68102123600DEB01020024A6
:100540000AA804940AF028F825498146254A384625
:1005500008F0CAFC26460AAD4FF0000ACA451ED074
:100560006B69A34217D1AA69049B164423B1642185
:10057000B3FBF1F3B2FBF3F395F80CE00094298C94
:100580000293890001910392384617496A6858F826
:100590002E3008F0A9FC0AF1010A2435DEE7013407
:1005A0000A2CD8D1049B64229E1BB3FBF2F30F49A3
:1005B0000F4AB6FBF3F30096384608F095FC09F0B5
:1005C0000FFD102804D938460A49102208F08CFC87
:1005D00001200DF51A7DBDE8F08700BFF42F020061
:1005E000133002003A3002003F3002005C3002005B
:1005F0007B3002008630020010B50C46ADF5007D60
:1006000068460AF0F9FB204669464FF0FF3208F0D1
:1006100035FC01200DF5007D10BD000030B50C4605
:1006200091B02C49054607F03AFD002847D008ABA9
:10063000009309AB01930AAB02930BAB03930CAB92
:1006400004932846244906AA07AB07F090FC072824
:1006500001D000203BE09DF83930069A0DA862F3E6
:1006600003038DF83930079A9DF8383062F304039C
:100670008DF83830089ABDF83A3062F30B03ADF8C4
:100680003A30099A9DF8363062F304038DF836301B
:100690000A9A9DF8353062F305038DF835300B9AD0
:1006A0009DF8343062F305038DF834300C9A9DF8D0
:1006B000373062F302038DF8373008F0CDF908F0D7
:1006C00067FA06490246204608F00EFC012011B0E8
:1006D00030BD00BFB0300200B4300200E250020072
:1006E000F7B50D464E49044607F0C9FD064640B130
:1006F00006F0FEFF28464B494FF0FF3208F0BEFBE4
:100700008BE02046484907F0BAFD60B307F014F8C3
:1007100046490246284608F0E7FB07F019F8444925
:100720000246284608F0E0FB07F00CF84149024673
:10073000284608F0D9FB304606F0F4FF06460120B3
:1007400006F0F0FF0446022006F0ECFF0746032007
:1007500006F0E8FF009701903749284632462346C5
:1007600008F0C2FB59E02046344907F098FC50B12C
:1007700001212022204607F030FD204607F081FDB0
:1007800007F000F949E020462D4907F088FC0646AD
:1007900020B920462B4907F082FC60B320462A4945
:1007A00007F06BFC60B92046284907F066FC28B9C1
:1007B0002046274907F061FC044602E0032400E0DC
:1007C00002242046314607F033F8224A224B002EFD
:1007D00018BF1A463CB1012C07D01C491A4B022CF9
:1007E00018BF0B4602E01D4B00E0194B28461C4980
:1007F00008F07AFB11E0204607F043FD19491A4A38
:100800000090F323012007F021F8204607F039FD7E
:1008100016490246284608F067FB012003B0F0BDE8
:10082000EF300200F53002000E31020015310200F7
:100830002A3102003F3102005E3102008E31020097
:10084000923102009A310200EA300200E4300200E4
:10085000EA420200D5300200CD300200DE30020054
:10086000A3310200BC31020008300200EF31020067
:1008700030B589B004AB002400930D46022219491B
:1008800003AB0394049407F080FB022827D107AB45
:10089000009305AA0398049906AB0594069407945F
:1008A00003F05CFC024638B1049B284600930E49D5
:1008B000039B08F019FB10E0059A069B002A079C91
:1008C00008BF0122002B08BF012328460749B4FBBB
:1008D000F2F2B4FBF3F308F007FB012000E020463E
:1008E00009B030BD82420200FD3102001C3202001C
:1008F0002DE9F0470D46ADF5856D3B49064607F0FD
:1009000058FC3A498146304607F07CFC374930466E
:1009100007F098FC304607F0B4FC0122014681A89C
:1009200005F03CFC044640B1304607F0AAFC3049D3
:100930000246284608F0D8FA50E00DF1040A214694
:100940004FF4007250460CF0EBF900940AF040FAB4
:10095000A04606460F4681A851464FF400726B46EA
:1009600005F0B5FC08B9009B33BB81A805F087FEF4
:10097000B9F1000F19D00AF02BFA4FF47A72002364
:100980000BF092FC002304464FF47A72304639464D
:100990000BF08AFC201A14BF034601232846154990
:1009A0004246B8FBF3F308F09FFA284612494FF08D
:1009B000FF3208F063FA11E09844B9F1000FCAD190
:1009C0004C46009B9C42C6D22B681AF804105B6808
:1009D00028464FF0FF3298470134F2E701200DF529
:1009E000856DBDE8F08700BF4A32020082420200F6
:1009F0005332020067320200F53702002DE9F0475A
:100A00000023BEB00C46554905460C9307F037FC51
:100A100020B9284607F035FC064600E0504E15A8E0
:100A2000314605F0E4FE054620462DB14D493246DB
:100A30002B4608F059FA8CE04B49324608F054FA3C
:100A4000A8461EAF802315A80DA91397149305F08F
:100A500012FF002865D19DF83D30002B61D09DF834
:100A60003C10DDF834C011F0100F09BF0C9B44227C
:100A700063440C930ABF2D22013508F1010811F0DF
:100A8000010F14BF52232D2311F0020F14BF4FF09A
:100A9000480A4FF02D0A11F0040F14BF4FF053090C
:100AA0004FF02D0911F0200FBDF8381014BF4FF092
:100AB000410E4FF02D0ECDF808E04FEA612EBDF843
:100AC0003A000EF2BC7ECDF80CE0C1F3431E01F0FB
:100AD0001F010591C1120691C0F345100DF13D01B2
:100AE000CDF810E0CDF820C007900991CDF800A016
:100AF000CDF8049020461D4908F0F6F920461C491F
:100B00004FF0FF3208F0A6F9394620464FF0FF3289
:100B100008F0A0F9204611494FF0FF3208F0AEF975
:100B20008FE700953EAD55F8C83D12494246204634
:100B300008F0DAF9304629460BAA05F0CBFE40B999
:100B40000B9B20469A780C9B0B495A43520808F09D
:100B5000CBF901203EB0BDE8F08700BFF5370200B9
:100B60008232020085320200A9320200C432020041
:100B7000F1320200F53202001F33020070B50D465B
:100B8000064607F07EFB0446304607F07AFB05F088
:100B900063FF064A064B0749002818BF134628463C
:100BA000224608F0A1F9012070BD00BFDF34020029
:100BB000D53402003333020070B50D46064607F007
:100BC00060FB0446304607F05CFB05F0E8FE064A91
:100BD000064B0749002818BF13462846224608F04E
:100BE00083F9012070BD00BFDF340200D53402005C
:100BF0004F3302007FB503AB002400930E46022260
:100C00000F4902AB0294039407F0BFF9022814D1F4
:100C1000029D039C2846214605F0C8FF094B0A495E
:100C20002A4600280CBF084618460849009023466B
:100C3000304608F059F9012000E0204604B070BDAC
:100C400082420200DF340200D53402006133020028
:100C500030B5ADF50D7D0C46054607F012FB0A22B6
:100C6000014603A805F09AFA40B1284607F009FBAF
:100C70001F490246204608F037F935E08DF8070095
:100C800002901C4920467E2242F2107308F02CF993
:100C90002046194908F028F9236820461B680DF101
:100CA000070142F21072984718B19DF807307E2B69
:100CB00003D103A805F0E3FC16E003A80DF107013A
:100CC000012202AB05F0C1FB10B9029B012B02D03F
:100CD00020460A49DEE7236820465B689DF8071036
:100CE0004FF0FF329847D7E701200DF50D7D30BD5D
:100CF00079330200A0330200D8330200F833020037
:100D00002DE9F047ADF5407D002304AC236003934B
:100D10000D4600944249022203AB07F036F902283F
:100D200006D028463F494FF0FF3208F0A7F871E09F
:100D300017A8216805F05BFD18B128463A492268DA
:100D400007E017A8039905F052FD28B12846374956
:100D5000039A08F0C9F85DE040A94FF4807205A835
:100D600007F0D4F80AA880A94FF4807207F0CEF8F3
:100D700020AB159317A880230FA9169305F07BFDD0
:100D8000002841D19DF84530002B3DD09DF84430DE
:100D900003F0100303F0FF06002BE9D1039A0DF1D5
:100DA000450305A8224907F0B6FA22680DF145036C
:100DB0001F490AA807F0AFFA05A807F062FA8046B3
:100DC0000AA807F05EFA074605A8DDF83C9007F090
:100DD00058FA82460AA807F054FA324601463346CA
:100DE0000096504603F0BAF9124A134BCDF8009022
:100DF00000280CBF1846104610490190424628466C
:100E00003B4608F071F8B3E70AA807F095F805A883
:100E100007F092F801200DF5407DBDE8F08700BF96
:100E2000824202001F34020064340200893402004E
:100E3000A9340200DF340200D5340200AF340200CE
:100E4000F8B50D462349064607F019FA0446074649
:100E500028B1FFF737FB002100F235200AE03046C9
:100E60001D4907F00CFA044650B1FFF707FB39465D
:100E700000F235200A4605F029FF1849184B1EE0FC
:100E80003046184907F0FBF9044648B1FFF71AFB52
:100E9000012200F2352105F043F91349134B0EE00E
:100EA0003046134907F0EBF9044680B1FFF7E6FA44
:100EB000012200F2352105F033F90E490E4B0028CE
:100EC00008BF19464FF0FF32284607F0D7FF2046EB
:100ED000F8BD00BF3635020040350200D8340200AC
:100EE000CE3402004D350200F5340200E534020034
:100EF000563502001A3502000C35020008B50846C6
:100F00004FF0FF32084907F0B9FF06F0F1FB4FF44C
:100F1000FA6009F07FF94FF08043AA221A7200228A
:100F20001A70012008BD00BF6235020010B5012013
:100F30000C4606F0DFFF38B100210A460B4608F0E8
:100F400097FC2046044901E0204604494FF0FF3257
:100F500007F094FF012010BD7335020089350200AF
:100F600038B5064C236833B91C20FFF785F90546D0
:100F700007F052FC2560206838BD00BFE0C10720A3
:100F80002DE9F04F0D46C7B05549814607F09EF850
:100F900054498246484607F099F8534983464846E3
:100FA00007F094F800270DF1100805AE04460297EB
:100FB0000397C8F800703760BAF1000F45D000966B
:100FC00048464A4902AA03AB06F0D1FF012807DCD4
:100FD000284647494FF0FF3207F050FF38467CE083
:100FE0000DF118084FF480744046394622460BF044
:100FF00097FE336813B90123336003E0B3F5807FB4
:1010000088BF3460FFF7ACFF33689DF808109DF887
:101010000C200093434608F02CF8364A364B3749EB
:10102000002808BF13462846029A07F05DFF0024F7
:1010300033689C424ED2039A18F804302244284662
:101040002F4907F051FF0134F2E7BBF1000F2CD01C
:10105000CDF8008048462B4902AA03AB06F087FF73
:10106000032807D0284628494FF0FF3207F006FF33
:10107000504632E0FFF774FF9DF808109DF80C20F1
:1010800098F8003008F00AF848B1039B284600930E
:101090001E49D8F80020029B07F026FF1AE02846D8
:1010A0001B49029A07F020FF14E0A8B10223029323
:1010B000029BFE2B10DCFFF753FF9DF8081007F092
:1010C000F8FF20B128461349029A07F00DFF029B52
:1010D0000233ECE7012000E0204647B0BDE8F08F86
:1010E000A5430200C2350200C8350200D135020016
:1010F000E0350200DF340200D53402000136020080
:101100002536020035360200453602006C360200F4
:1011100086360200A33602002DE9F04F5F4C91B0F5
:1011200023680E4633B92C20FFF7A6F8054607F0D2
:1011300007FE25602768FFF7A1F90DF1400B002499
:101140004BF80C4D00F2352059460CAA05F0C2FBB5
:1011500048B90C9A0D9C95699378023D5C435D43B8
:1011600064086D0800E025464D4B1A6898467AB928
:101170000C20FFF781F88146FFF7F2FE902389F8F3
:1011800004300023C9F80000C9F80830C8F80090FE
:10119000D8F8000002F0D0FF80460BF03FF88246FE
:1011A0000AF098FE014640460AF0DEFD3D490AF08D
:1011B000E5FE0BF033F88146584609F07BFC03F05E
:1011C00009FF50B307F05EFD03F0EEFE0023024678
:1011D00098469B4693420DD018460B920A9303F013
:1011E00047FF0A9B584588BF98460B9A88BF83469D
:1011F0000133EFE707F05EFD642303FB0BF32A4A9C
:101200003046B3FBF2F3C3F164038DE808092749C4
:1012100022462B4607F068FE05E030462449224668
:101220002B4607F061FE234C23681BB90120FFF712
:1012300023F82060206802F03BFF044607F0A8FC7A
:101240009DF83930019003F00F0302939DF8383078
:10125000009403F01F030393BDF83A303046C3F304
:101260000B0304939DF83630134903F01F030593D5
:101270009DF83530524603F03F0306939DF8343015
:1012800003F03F030793BB8C0893FB8C09934B46F9
:1012900007F02AFE012011B0BDE8F08FE4C107205D
:1012A000D8C1072000002041A0860100C9360200F5
:1012B000FD360200DCC107200B37020070B5ADF52A
:1012C0000A7D05460C4606F049FE0B2803DD204644
:1012D00023490C223DE0284606F0D3FF01220146B7
:1012E00001A804F05BFF064668BB01A805F0C7F93A
:1012F000284606F0C6FF1B490246049B204607F01D
:10130000F3FD236820469B6898470A2008F082FF77
:101310004FF0100383F31188BFF36F8FBFF34F8F2C
:10132000284606F0AEFF02460F4B0068516803C323
:1013300090680E4A186043F80C2C4FF08043AA22A4
:101340001A721E7007E0284606F09BFF02462046F0
:10135000074907F0C9FD01200DF50A7D70BD00BFEA
:1013600088370200AF370200484002400DD0ADDEA2
:10137000F6370200F0B5404CA5B023680646DB07FF
:101380000D460CD4204609F0B3FF40B14FF4806005
:101390000BF072FC394B1860204609F0B5FF30465F
:1013A000374906F093FE0746044610B30021802219
:1013B00004A80BF0B5FC00230293039303AB009346
:1013C000304904AA02AB304606F0D1FD2B4A029BFD
:1013D000116804A8039A13B902F060FF01E002F05B
:1013E00080FF0346284A29492846002B18BF11468A
:1013F00037E03046264906F069FE0746002838D017
:10140000304604AB234903AA039404948DF80840A2
:1014100006F0ADFD039E049B3344B3F5806F0DDDF4
:1014200028461D494FF4806221E0144B9DF80820A6
:101430001B689A559DF8083001361C44039B049A9A
:10144000F31A934210DAB6F5806F0DDA2B6828464E
:101450001B6802A94FF4FA6298470028E5D1284694
:101460000E4907F041FD04E0284622460C4907F0EA
:101470003BFD384625B0F0BDF4C10720F0C1072080
:1014800021380200283802000F3802000B38020011
:10149000383802003F380200493802006D38020037
:1014A0007D38020030B50C46054687B00A4907F082
:1014B0001BFDA17A62880091E17A23880191E1887D
:1014C0002846029121890391A1880491034907F0DC
:1014D0000BFD07B030BD00BF8E380200C4380200DB
:1014E0001FB501A80C4602F015F901F0FFFD01A996
:1014F00002462046FFF7D6FF012004B010BD0000D1
:101500002DE9F0418CB003AB002400930E46154644
:101510003A49022202AB0294039406F036FDA0423F
:1015200039DD02980BF09DF95FFA80F8039818B145
:101530000DF0BBF8C4B200E0044604A8002102F09C
:1015400071FC30B130462E494FF0FF3207F096FC67
:10155000F3E7003518BF01250223009340462946D2
:10156000039A234601F0F8FE074638B9304625496C
:101570004FF0FF3207F082FC01273BE0002D39D00D
:1015800004A84FF47A7102F057FC70B39DF8103044
:1015900043452AD101E027462CE09DF817300C2B5B
:1015A00004D1304606A94246FFF77CFF3046B4B965
:1015B000154907F099FC9DF817309C420ADA336808
:1015C00004AA2244117A5B6830464FF0FF329847F4
:1015D0000134F0E730460D4907F086FC0AE00C497B
:1015E0004FF0FF3207F04AFC04E030460949029A06
:1015F00007F07AFC38460CB0BDE8F0818242020068
:10160000E2380200043902002C390200773F020060
:10161000403902005D39020038B50D4606F033FE50
:101620000446C0B201F056FD054A064B06490028A3
:1016300008BF13462846224607F056FC012038BD55
:1016400083390200D53402008A39020037B50C46CE
:1016500001F0C4FE05461649204607F045FC154931
:1016600020462A4607F040FC2046114907F03CFC82
:10167000D5B11149204607F037FC20460C4907F048
:1016800033FC0025E8B201F093FE013540B18178CA
:101690000278437800912046084907F025FCF1E7DD
:1016A0002046034907F020FC012003B030BD00BFF5
:1016B000A1390200BC390200D6390200F13902001A
:1016C00030B58BB00AAA4FF47A730C4642F8243D29
:1016D000174906F04CFC002502A8019902F0A2FB74
:1016E000D8B1204613499DF8082007F0FDFB0025DE
:1016F0009DF80F309D420ADA236802AA2A44117A23
:101700005B6820464FF0FF3298470135F0E72046EE
:10171000094907F0E9FB0125DEE72DB92046074915
:101720004FF0FF3207F0AAFB01200BB030BD00BF25
:10173000463802000C3A0200F4370200233A020055
:101740002DE9F3473C4C074626688946002E62D1B6
:101750002420FEF791FD0423054680E848008660BA
:10176000C660202130460CF02FFDAE68E8604FEADD
:101770008608072E0ED81020FEF77EFD8246002137
:1017800010220BF0CDFAEB68013643F808A008F1FF
:101790000408EEE7002608234FF001086B6085F887
:1017A000208028462549264A264B0096256005F0CC
:1017B0001BFD20682449254A254B009605F014FDA1
:1017C00020682449244A254B009605F00DFD206829
:1017D0002349244A244B009605F006FD206823493E
:1017E000234A244B009605F0FFFC20682249234A37
:1017F000234BCDF8008005F0F7FC20681E49214AF4
:10180000214B009605F0F0FC009620681F49204A05
:10181000204B05F0E9FC38461F4906F030FD18B1B1
:1018200038461E4906F0E5FD39464A46206802B0B2
:10183000BDE8F04705F0BABDFCC10720ED1A010074
:10184000343A02003B3A0200C1180100753A020026
:101850007E3A0200C1160100D23A0200D53A0200D7
:101860001916010057400200F83A02004D16010017
:101870003E3B0200223B020001150100873B0200B3
:10188000453B0200863B02008B3B0200E114010055
:10189000CB3B0200B03B0200F5370200D13B020017
:1018A00038B5064C236833B95820FEF7E5FC0546E9
:1018B00007F08AF82560206838BD00BFF8C107200E
:1018C0002DE9F04F0446ADF2DC5D80220DF1B40944
:1018D00088460DA800210BF023FA002180224846FB
:1018E0000BF01EFA06AE00233360204600967549C1
:1018F0000DAA4B4606F03BFB032801D00020DDE09B
:10190000EDA80DA9012204F049FC05460028F5D1F7
:10191000FFF7C6FF33684DA980F853308022044694
:1019200008A88DF81750079506F0F0FACDF800904A
:10193000404665490DAA336807F0D6FA2F46EDA850
:101940006DA94FF4007207AB04F0C1FC38B1EDA8EB
:1019500004F095FE08A806F0EFFA0120AEE0079B20
:10196000002BF4D06E1C5949079A204607F0BCFAA8
:10197000236820469B6898476DAB9B46751E4FF0C9
:10198000000A0799C3EB0B028A4222680FD2039325
:10199000CDF808B0D2F804C020464FF0FF321BF853
:1019A000011BE047029B1A78039B9244E9E7936886
:1019B0002046984708A806F064FC834608A806F06D
:1019C000D0FA4FF47A7302465946204607F064FA7B
:1019D0000121202208A806F000FC08A806F053FC0C
:1019E000504520D008A806F04EFC3949034652461F
:1019F000404607F079FA2046364907F075FA236821
:101A000020469B689847236820461B680DF1170104
:101A10004FF47A7298470028F5D1022E06F101039F
:101A200095D81E469FE7079B2B494A4600932046C0
:101A30003B4607F059FA236820469B68984708A858
:101A400006F01FFC824608A806F08BFA51460246B3
:101A50004FF47A73204607F01FFA08A81F4906F0D2
:101A60000CFBD0B908A806F00CFC1D490246404604
:101A700007F03AFA2046174907F036FA236820465D
:101A80009B689847236820461B680DF117014FF4A7
:101A90007A7298470028F5D1BFE708A8114906F0E7
:101AA000A8FC079B40461F440F493A46F09B07F0AD
:101AB0001BFA002D3FF443AF013D40E70DF2DC5D22
:101AC000BDE8F08FD63B0200E53B0200FC3B020084
:101AD0000E3C0200F4370200353C02004B3C020091
:101AE0004E3C0200F5370200863C02002DE9F04131
:101AF000074686B006AA002442F80C4D0E463C4923
:101B000006F035FA38460121202206F066FB039BD9
:101B1000002B63D0384606F021FA00285ED0FFF78C
:101B2000BFFE05468DF80B402B6828461B680DF15B
:101B30000B010522984704460028F5D1039B38463F
:101B400085F8533006F09DFB274601464FF0FF32E3
:101B5000284607F093F92B6828469B689847254B41
:101B60000594186804902B6828461B680DF10B013A
:101B70004FF47A72984778B10DF11501032205A848
:101B80000BF0B3F89DF80B8005A804A904228DF88A
:101B900017800BF08FF838B91822B7FBF2F302FB6D
:101BA000137262B101330AE0336830465B68414624
:101BB0000122013798470028D5D10134D3E73046B8
:101BC0000D493A4607F090F974B16123009330460D
:101BD0000A4922460A4B07F087F905E030460949D1
:101BE0004FF0FF3207F04AF9012006B0BDE8F0815E
:101BF000463802008A380200923C0200B93C0200DA
:101C0000723D0200AE3D020001480CF073BA00BF05
:101C1000DA3D020038B504460D4609F051FA074B8B
:101C2000B0FBF3F00223B0FBF3F2954201D3236142
:101C300038BDB3F5807FFAD00233F4E740420F009D
:101C40007FB500F235260C460122314604F068FAD1
:101C5000054650BB04A941F8040D02AA304604F021
:101C600039FE00BB029A039B9078926903FB00F156
:101C7000023A42435208B2F5004F104834BF0125E2
:101C80004FF480654FEA51010D4BB1FBF5F128BFD0
:101C90000346B2FBF5F28DE80A000A4821460CF033
:101CA000B3F9012008E0084B00E0084B0848214642
:101CB0002A460CF0A9F9002004B070BD183E0200BD
:101CC000153E0200223E02001B3E02001F3E0200A3
:101CD000503E020038B5074C23684BB90820FEF788
:101CE000CBFA0546FFF73CF9402328602B712560AD
:101CF000206838BD08C2072038B5054C256825B9CD
:101D00000120FEF7B9FA05702060206838BD00BFD9
:101D100004C2072038B5084C23685BB90C20FEF7D5
:101D2000ABFA0546FFF71CF990232B7100232860BE
:101D3000AB602560206838BDD8C1072010B5044CC1
:101D400023681BB90120FEF797FA2060206810BDB8
:101D5000DCC1072010B5044C23681BB90120FEF735
:101D60008BFA2060206810BD00C20720AD49AE4A42
:101D70004023F0B58B614FF0007393614FF48033D3
:101D80008B61AA4BADF5057D1868072520F0F000A2
:101D900018601868022440F050001860186820F499
:101DA00040501860086840F040000860186820F44F
:101DB0007C201860186840F428201860186820F407
:101DC00070001860186840F420001860186820F04F
:101DD00040401860186840F000401860586820F0D3
:101DE0003C005860586840F028005860586820F05F
:101DF00003005860086840F480300860586820F498
:101E000040505860086820F480000860D96821F4C8
:101E10004031D960116841F080711160596821F436
:101E200040215960596841F480215960986880497F
:101E300001409960116841F4897141F0010111601C
:101E4000996821F470119960996821F07041996046
:101E5000116821F446411160D96821F03001D96040
:101E6000D96841F03001D960D96821F47011D96086
:101E7000136843F000731360136823F080631360EA
:101E800006F014FB0A20012108F03AFF0A20012184
:101E900008F04EFF6748012105604460FFF7BAFE75
:101EA00006F080FE1520012108F02AFF15200121EF
:101EB00008F03EFF6048012105604460FFF7AAFE7C
:101EC000FFF74EF8642106F071FC10B95B480CF086
:101ED00011F908F053FF01F07FFF10B958480CF0DA
:101EE00009F94FF4FA6006F09BFAFFF78DFE09F04E
:101EF000E7F809F0EBFF53490AF0F4F809F06CFE3B
:101F000002460B4650480CF07FF808F0CDFD05283E
:101F100004AC14D1002363604C4B1B682360FFF7B3
:101F200073FE4B4B4B48D96C1A6D5B6D00940CF0F3
:101F30006BF8FFF769FE41F2883006F071FAFEF7A0
:101F40009DFA4549FFF77CFE054668BB43480CF007
:101F50005BF803F0B7F8FEF791FA29462A4600F23B
:101F6000352004F0B3FE3E4B3E4A00280CBF10461D
:101F700018460CF0BFF8FEF781FA3749FFF760FE0C
:101F800090B939480CF0B6F803F01EF8014637480E
:101F90000CF03AF803F008F8054603F015F805FBD5
:101FA00000F133480CF030F8324E334F336813F001
:101FB000010516D1304609F09BF990B14FF40E702F
:101FC000FEF75AF9012380F83432312380F8353294
:101FD0003A2380F8363280F837523860304609F0BC
:101FE00093F926493868264DFFF72AFE1148182133
:101FF000FFF710FEFFF708FE2B684BB90820FEF72D
:102000003BF90646FEF7ACFF3823306033712E6093
:10201000286801F060FF0546B0BB1A480CF06AF86A
:1020200033E000BF00C0092020C0092000C00240EA
:10203000F0FCFCFF0000034000800840943E0200DA
:10204000C53E020000247449EA3E020044400240BA
:1020500000400240023F02007A3F0200823F02003D
:10206000883E0200833E0200BF3F0200DE3F0200C6
:10207000ED3F0200E8C10720D0C10720043502006F
:1020800010C20720084002000125FFF743FE02F0BE
:1020900029F8064618B972480CF02CF83546FFF7B7
:1020A00019FE01F099FF064618B96E480CF022F8A7
:1020B00035466D4E33681BB90120FEF7DDF8306000
:1020C000306801F057FFFFF739FE01F0EFFFFFF72F
:1020D00013FE01F0BBFFFFF73DFE01F0F5FFFFF738
:1020E0000BFE002101F0B4FF8DB9FFF78DFDFFF766
:1020F000F1FD2D2101F058FFFFF7ECFD2D2101F03E
:102100005FFFFFF7F9FDFF2101F0A2FF0CE0FFF7F1
:10211000E1FD0546FFF7FEFD02F00EF80AF0A4F817
:10212000C1B2284601F074FF0021102220460AF0B7
:10213000F7FD4E4821460F22002302F08CF880B9AB
:1021400020460AF08EFBC5B2284600F0C3FF484A7D
:10215000484B2946002808BF13464748434A0BF01E
:1021600053FFFFF7EBFD01F0A3FF054600200DF044
:1021700043FA28440BF0C6FF4FF4007200212046BA
:102180000AF0CEFD204608F037FE21463B480BF012
:102190003BFFFFF739FD8022002120460AF0C0FDF9
:1021A000204602F0EDFE2278FF2A04D02146344872
:1021B0000BF02AFF29E0FFF7CDFD01F087FF09288A
:1021C0001DD130480BF096FF21462F480CF0CEF879
:1021D00021462E480BF018FF2D480BF08BFF0023F3
:1021E0002C4803A903930CF0C1F89DF80C30592B2F
:1021F00003D1204602F0A2FE07E0274803E027486B
:102200000BF078FF26480BF075FF4FF208031C68AF
:102210004FF20C031D684FF210031E684FF20403C7
:1022200019684FF470431A68A40AAD0A1D480BF0F0
:10223000EBFE224629461C480BF0E6FE31461B48C1
:102240000BF0E2FEFFF7E0FC012005F087FA1848EA
:102250000BF050FFFFF7D8FC0DF5057DF0BD00BF7A
:10226000234002003D4002000CC2072056400200FD
:10227000833902008E3E02005C400200E250020000
:1022800090400200AC400200CE400200D340020069
:10229000EE40020031410200354102004D41020092
:1022A0007B410200AD410200D9410200064202001A
:1022B000234202000120704701207047012070472F
:1022C00010B5044C23681BB90120FDF7D5FF206031
:1022D000206810BD0CC2072001207047F8B50446E5
:1022E0000E46C06889000BF06FFFA568E060AF0084
:1022F000B5420BD20C20FDF7BFFF00230360436003
:102300000372E3680135D8510437F1E76660F8BD20
:1023100038B504460F4B00250360636DE06D9D42A8
:1023200005D250F82500FDF7A9FF0135F5E708B102
:10233000FDF7A6FF0025A36B206C9D4205D250F847
:102340002500FDF79BFF0135F5E708B1FDF798FF84
:10235000204638BD6042020010B50446FFF7D8FFA2
:102360002046FDF78BFF204610BD0000F7B5044660
:1023700000250B464FF480520095254905F0A0FD3D
:10238000244B042623606663A563E563256404F19A
:1023900034000221FFF7A2FF26656565A565E565A6
:1023A000284660210BF010FFA56DE065AE00172DEB
:1023B0000CD81020FDF760FF0746002110220AF01C
:1023C000AFFCE36D01359F510436F0E718236365D8
:1023D000012384F87030104E0023A4F87430A4F860
:1023E0007630A367002200230027C4E92023C4E934
:1023F000226708F0EDFC4FF47A72002309F054FFD5
:1024000080197941C4E92001204603B0F0BD00BF26
:102410007842020060420200C0D401002DE9F04180
:1024200091E860000F7A14468FB1082A23D1304614
:1024300005F094FD00281CDD284614494FF0FF32BA
:1024400006F008FD3046012105F087FE08E00A2A63
:1024500019D00D2A12D03046214605F09FFF97B1C2
:102460002B6828462146BDE8F0415B684FF0FF32FB
:1024700018470724F4E70A2A02D1F1E7BDE8F08102
:102480000D2AE8D1ECE7BDE8F08100BF81420200EF
:10249000F8B50446142015460F46FDF7EDFE8021E1
:1024A000064605F02BFFA36BE26B9A4206D3616BE5
:1024B000591803D204F13400FFF710FFE36B226CCC
:1024C000591C52F82330E1631F605E601D72F8BD35
:1024D0002DE9F043CF6B85B006460D4601AC4FB9F0
:1024E0004FF47A7007F096FE204639460C220AF027
:1024F00017FC47E00B6C1B6893E8070084E80700B3
:1025000000238DF8033007F05FFD80460027EB6B5A
:102510009F4263D22B6C4FEA870953F82730186823
:10252000037C33B103680DF103011B680022984757
:1025300008B90137EBE7EB6B9F422BD22B6C53F8BA
:10254000093093E8070084E807009DF80320284637
:102550002146FFF763FF08F03BFC4FF47A7200233B
:1025600009F0A2FED5E9222380185941C5E92001CE
:10257000029805F0F3FC0746029805F0F2FC0138DA
:1025800087420ADB94E8070086E80700304605B07A
:10259000BDE8F08305F14403D3E7D5E922231343D3
:1025A00024D008F015FC4FF47A72002309F07CFE69
:1025B000D5E92023994208BF904217D308F008FCC0
:1025C0004FF47A72002309F06FFED5E922238018B8
:1025D00059410023C5E920010193D3E707F0F4FC3A
:1025E0004045C5D1022007F015FEC1E79DF8033034
:1025F0000A2B88D1C6E70000F0B5064685B0204812
:102600000BF002FD01A83146FFF762FF019C1CB9E7
:102610001C480BF06FFD30E0029F384605F09EFC31
:1026200000282ADD08F0D4FB0546F8B1B6F874306E
:1026300006F150000133A6F874303946224604F002
:10264000B5FE114B00261868009023681DF806108F
:102650005B6820464FF0FF3201369847042EF4D1D4
:1026600008F0B6FB411B09480BF0CEFC384605F0DC
:102670007AFC236820469B689847012005B0F0BD8E
:1026800084420200F5370200514202008A420200F1
:1026900038B5064C236833B92C20FDF7EDFD05460F
:1026A00006F04EFB2560206838BD00BFE4C107205E
:1026B00010B50446FFF7ECFF03682146BDE8104063
:1026C0005B684FF0FF32184713B5002302AC04F8E3
:1026D000013DFFF7DDFF036821461B684FF0FF3225
:1026E00098479DF8070002B010BD00002DE9F041A9
:1026F00000F150048AB000250746009520465B494A
:102700005B4A5C4B04F070FD009520465A495B4AD9
:102710005B4B04F069FD009520465A495A4A5B4BD1
:1027200004F062FD0095204659495A4A5A4B04F07C
:102730005BFD009520465949594A5A4B04F054FD17
:10274000009520465849594A594B04F04DFD0095D3
:1027500020465849584A594B04F046FD00952046FA
:102760005749584A584B04F03FFD009520465749B9
:10277000574A584B04F038FD009520465649574AB1
:10278000574B04F031FD009520465649564A574BA9
:1027900004F02AFD009520465549564A564B04F050
:1027A00023FD009520465549554A564B04F01CFD23
:1027B000009520465449554A554B04F015FD0095A7
:1027C00020465449544A554B04F00EFD00952046CE
:1027D0005349544A544B04F007FD00952046534991
:1027E000534A544B04F000FD009520465249534A89
:1027F000534B04F0F9FC009520465249524A534B82
:1028000004F0F2FC009520465149524A524B04F024
:10281000EBFCFFF73DFF4FF480734FF4164120228D
:10282000054606F06DFA804601262E744B48FDF7EA
:1028300089FD4B48FDF780FD384629463246FFF7B3
:1028400027FE03A9082205A805F060FB05A8454955
:1028500005F0CFFD05A92A46204604F0A7FD05A8EE
:1028600005F06AFB40460AB0BDE8F0810D050100A5
:10287000EA420200A0420200F9050100D74202002C
:10288000DF42020019110100FD420200EF42020086
:102890001D0601004543020004430200F108010047
:1028A0004A4302004E43020071080100ED4302005A
:1028B000AA430200010D0100EC430200F0430200B4
:1028C000FD0901003B4402003E4402007D0B010073
:1028D0006C44020072440200F50B010097440200B0
:1028E0009A440200510C0100D15C0200C74402006E
:1028F000B90B0100EC440200EF440200810F01001B
:102900001245020016450200410E0100E945020091
:10291000F1450200FD0E0100344602003B46020074
:10292000E10601004E460200524602002D0F010052
:10293000514702005747020041170100E13E0200E3
:102940007F470200751301009D480200A94702005D
:10295000BD1201004735020066480200C926010089
:10296000B1260100D13B020010B5094C23681BB908
:102970000120FDF781FC2060206801F09CFB054AE6
:10298000138818441080044A13780133137010BD63
:10299000DCC1072016C2072014C207207FB5114CE6
:1029A000114E22783388114993FBF2F30B701049D2
:1029B000DBB28DE8060002930025372301200D4984
:1029C0000D4A04F043FF25700C4C35802378013309
:1029D000DBB2092B237002D904F08AFE257004B003
:1029E00070BD00BF14C2072016C2072019C20720FD
:1029F000FE480200C44802002C49020018C2072009
:102A000008B5012004F0AAFE012008BD012070478E
:102A1000FFF7C4BFFFF7A8BF7047704770470000BB
:102A200008B5064B002118684FF0FF320B4607F03F
:102A300023F810B1FFF7ECFFF3E708BD20C2072031
:102A400008B5064B002158684FF0FF320B4607F0DF
:102A500013F810B1FFF7DEFFF3E708BD20C207202F
:102A600008B5064B002198684FF0FF320B4607F07F
:102A700003F810B1FFF7D0FFF3E708BD20C207202D
:102A800008B5064B0021D8684FF0FF320B4606F020
:102A9000F3FF10B1FFF7C1FFF3E708BD20C2072025
:102AA000FFF7AEBFFFF7B2BF10B50446FDF7E6FB78
:102AB000204610BD73B50E4605462E4B00241A68FD
:102AC0002D490D23009405F0FBF92C4BA6422B60F9
:102AD00014BF01230A23EB6185F8316021460322EC
:102AE0002C62012006F09EFE254E21463060032216
:102AF000012006F097FE214670600322012006F0B7
:102B000091FE95F83130B0602BB1012021460322AF
:102B100006F088FEF0601B4B00241E680523C6F3F8
:102B20008F068DE81800184932462346174807F0EB
:102B300005F906238DE81800154932462346154845
:102B400007F0FCF807238DE81800134823461349C3
:102B5000324607F0F3F895F8313043B108238DE899
:102B600018000F480F493246234607F0E7F8284679
:102B700002B070BD2849020048490200F049020035
:102B800020C20720C048020053490200212A010048
:102B900057490200412A0100612A01005C490200F4
:102BA000812A01006249020070B50D461A4B0024CB
:102BB00053F8216019494B5D0133DBB2934202D0D7
:102BC0004B55204670BD4C55304621462246234683
:102BD00006F052FF0146B8B1114B53F82550284674
:102BE0000BF088FA28460BF060FD23460246294682
:102BF0000C4801F076FB0C4A0C4B9A644FF0804372
:102C0000AA221A721C7004E030460A460B4606F0EF
:102C10002FFE012070BD00BF20C207201AC207206E
:102C20003849020069490200EFBEADDE00400240B3
:102C300010B590F831300446B3B103210122FFF7FB
:102C4000B3FFA0B1204602210A22FFF7ADFF70B109
:102C5000204601210A22FFF7A7FF40B120460021AC
:102C60000A22FFF7A1FF02E002210122EDE7012085
:102C700010BD704708B501F0E9F8012008BD10B596
:102C80000446FDF7FBFA204610BD000037B5902042
:102C9000FDF7F2FA04460321FFF768FB204605F032
:102CA000E1F83420FDF7E8FA054600244FF40072FD
:102CB0000D490094042305F003F90C4B28462B60C2
:102CC00005F0D0F83420FDF7D7FA05460121FFF7CB
:102CD000F1FE284605F0C6F82046214605F0D0F85A
:102CE0004FF0FF3003B030BDE13E0200304A020039
:102CF000242310B503FB010188420BD043783BB17C
:102D0000038CD4184FF6FF73A34228BF23460384D5
:102D10002430F1E710BD000037B5002302A840F8C9
:102D2000043D0C4B04215B6898470B4B019A1C68CF
:102D30000546141B1A60094822460421FFF7D8FFF4
:102D4000074802212246FFF7D3FF281C18BF0120A5
:102D500003B030BD30C20720FCC2072044C20720A8
:102D60001FC3072008B50B4B197803788B420A4B19
:102D70000BBF1A889A880132013214BF9A801A80D8
:102D8000064B8170DB6820219847003018BF012076
:102D900008BD00BF05C00720ECC2072030C20720D5
:102DA0000A4B02781B789A42094B0BBFDA881A89C2
:102DB000013201320CBFDA801A810379C3F3C202F7
:102DC000073262F3C5030371FFF7CCBF05C00720CC
:102DD000ECC2072010B5002306499A0011F82340E1
:102DE000844201D1881810BD0133042BF4D1002096
:102DF00010BD00BF0DC3072070B1C3780133DBB233
:102E0000FF2BC37008D10023044A1A44D17804333D
:102E10004908102BD170F7D1704700BF0DC30720B0
:102E2000242202FB01010346024630B58A4206D045
:102E30001446243212F8235C002DF7D10FE004462B
:102E400000258B420BD01A79C2F3C2001A8C42EAD9
:102E5000004295423CBF1C4615462433F1E720460C
:102E600030BD000038B50546C90001F10804FFF780
:102E700053FF1C4B1A782B789A4204D102211A482E
:102E8000FFF7CEFF0CE019480421FFF7C9FFEB78EC
:102E900033B990F82330042443F0800380F82330C2
:102EA000002380F8203080F8213002462B4690F82D
:102EB000231080F8224021F07F01C4F306240C4344
:102EC00080F8234005F1200153F8044B8B4242F86F
:102ED000044BF9D1064A0379127862F3C5030371F2
:102EE00038BD00BF05C007201FC3072044C207200C
:102EF00004C0072010B5FFF76DFF0446F8B9FFF7CF
:102F000069FF0446D8B90F4BDA79D9788A4228BFCD
:102F10000A46D97A34BF1C1D1C4691422CBF11466B
:102F2000094CDA7B094B8A4238BF1C4604222046F2
:102F3000002109F0F5FE064AD37A0133D372204608
:102F400010BD00BF0DC3072015C3072019C30720FC
:102F5000ECC207202DE9F04105460C464FF024084D
:102F600008FB02188E1D444500F09E8094F8233023
:102F70001A0625D5BDB12A7861788A4205D16F78C5
:102F800016F8060C874200F09180E87858B168780E
:102F9000884208D116F8061C914204D1A979A27979
:102FA000914200F0838094F82220218C03F07F036B
:102FB00042EA0323994274DB2046FFF7D3FE75E013
:102FC0006278002A6DD06DB3297901F0C001C02963
:102FD00017D116F8060C6978884202D128789042F9
:102FE00064D0E778A87887420CD191420AD116F8CC
:102FF000060C2978884205D1A079A979884201D1A7
:1030000054E079B1A878E17888420BD1697891428F
:1030100008D116F8060C2978884203D1A079A9793D
:10302000884249D094F82210208C03F07F0341EAB3
:103030000323984235DB002384F8203084F82130C4
:103040002379C3F3C201CFB21FB12046FFF7A8FE18
:1030500027E003F0C003C02B19D01C4B16F8060C58
:103060001B78984213D1E378934210D07BB16379F7
:10307000032262F307136371E1702046FFF790FEAD
:10308000134A2379127862F3C503237100E0012704
:103090006078FFF79FFE18B10021042209F040FE7E
:1030A00027B9243424365EE7BDE8F08120460021AC
:1030B000242209F035FEF4E72279002363F3C502E8
:1030C00084F8203084F821302271EAE705C0072017
:1030D00004C00720431EDBB2FD2B9DBF024B1870BE
:1030E00001200020704700BF05C00720014B187861
:1030F000704700BF05C0072007289CBF014B187010
:10310000704700BF04C007202DE9F74304469146ED
:103110001E469DF828500F46002963D0354B93F882
:103120000080414560D00F2E5ED800285ED020225E
:10313000002109F0F5FDFF2F237914BF09F00302E8
:10314000002262F38713032262F302032A4A6770A4
:10315000127884F8008062F3C503284A237113783B
:1031600084F802800133DBB21370A3710BAB0193BF
:1031700015B94FF0010818E0019AE079134652683A
:1031800053F8081B00EB02085FFA88F8013DB8F11C
:10319000180F0193EDB206D80830204409F09AFDCB
:1031A00084F80780E4E74FF00008DFF8549001232B
:1031B000384689F80030FFF70DFE0546FFF71CFE84
:1031C000002389F80030637925B966F3071363712A
:1031D000E57005E0AA7862F3071363716B78E3701A
:1031E000404603E0084601E00020FFE703B0BDE8E9
:1031F000F08300BF05C0072004C007201DC30720BF
:10320000F8C20720124B012270B51A7004461E4600
:1032100008B9002518E0FFF7A5FD05460028F8D0FD
:10322000237903F0C003402B06D0C02B0AD1E378EA
:1032300053B162789A4207D0617920460909FFF7B5
:1032400011FE01E0802BF7D000233370284670BDBB
:10325000F8C2072082B0F0B51746421ED2B28DB038
:10326000FD2A04460D46139301D900205AE0002B95
:10327000FBD0159B002BF8D0179B002BF5D0169B8D
:10328000002BF2D0149B002BEFD0002148222848BD
:1032900009F046FD00219022264809F041FD002159
:1032A0001022254809F03CFD00210C22234809F09A
:1032B00037FD00210C22224809F032FD214E224B1D
:1032C0001C703446214B1D7013AD0FCD0FC42B68FD
:1032D000002118221E48236009F022FD39461C48AF
:1032E00017220BF026FA0020B36801469847002801
:1032F000BBD09DF8603013B9FFF70EFD12E0154A00
:103300000123019206220292009304A8FF210022C9
:10331000FFF7FAFE0028A8D004A8FFF773FF0028E3
:10332000A3D0E9E70DB0BDE8F04002B0704700BFA0
:103330001FC3072044C207200DC3072001C3072075
:10334000ECC2072030C2072005C0072000C30720B9
:10335000D4C20720484A020030B5182B8DB005466C
:103360000C4615D8B2FA82F1181C18BF0120490981
:1033700081420DD08DE80D00294604A822469DF813
:103380004030FFF7C1FE18B104A8FFF73BFF00E093
:1033900000200DB030BD13B50446107852790B46AD
:1033A0001209009203212246FFF7D6FF02B010BD9A
:1033B00000231A4630B5084C990014F823502DB15B
:1033C000904201D1601830BD0132D2B20133042BDA
:1033D000F1D1002030BD00BF0DC3072000231846E7
:1033E000044A12F823200AB10130C0B20133042B81
:1033F000F6D170470DC307202DE9F04188B068462B
:103400000021202209F08CFCA14B1B7803F0FF0463
:10341000002B40F03A819F4E68463369202198473F
:10342000002800F083809C4D6B8801336B80FFF790
:10343000D5FF9DF80420A87202F00703032B04D0E7
:10344000964A137843F0010309E0954B1D789DF8E7
:103450000230AB4205D1914A137843F00203137056
:10346000E3E0C2F3C2029DF800E09DF80600D7B287
:103470008C4904EB440313F801C0F4450AD10B4412
:103480005978814206D199780124CF1B18BF0127B2
:103490009A7018E00134042CEAD183490B689A70C1
:1034A000804A587002F10900834283F800E040F03E
:1034B000C9800A609DF800009DF80230834240F008
:1034C000C480002427469DF80200FFF713FD9DF8F5
:1034D000022002709DF80220427000228270FFF7E5
:1034E0008BFC04B117B39DF80030AB4200F09C8018
:1034F0009DF80170FF2F1BD1336868462021984743
:1035000020B9664A137843F0040313709DF8053020
:1035100003F00F02511C61F303038DF80530C3F370
:1035200003139A4202DA6846FFF71CFC00247CE091
:10353000BD422BD164B99DF807304BB13368684662
:103540002021984720B9554A137843F0040313709B
:103550009DF8043003F0C003402B12D19DF80730D2
:1035600013B95248182108E04B480C216A46FFF76E
:1035700012FF002858D1002001466A46FFF70BFFD2
:1035800052E09DF80330002B4ED1F4E7484B1B78F6
:10359000002BCBD09DF8054004F00F064FEA14181D
:1035A0004645C3DA013666F303043846FFF712FCDA
:1035B0008DF805409DF80340A5421ED19DF80410EA
:1035C00001F0C001402906D0A1F180035A425A41BE
:1035D000144618B91BE00122002854D0C0294378B2
:1035E00005D19F4203D0003318BF012300E0002320
:1035F000134303F0010428B90BE0ACB910B96846D5
:1036000041460FE043788DF80330857804E0C02907
:1036100039D000258DF803506846FFF7A3FB1CB195
:1036200068462946FFF71EFC6C46FFF775FB2046EF
:1036300020490422FFF78EFC20461F490222FFF793
:1036400089FC22E003330B6034E785423FF439AF55
:10365000FFF750FC0446FFF7CFFB23783BB19DF802
:103660000530A27803F00F0393423FF72AAF9DF88D
:10367000003023709DF8023063709DF80530C3F36D
:103680000303A3701DE70346B2E708B0BDE8F0816D
:10369000F8C2072030C20720ECC207201EC3072053
:1036A00005C0072001C3072000C00720D4C207209F
:1036B00000C3072044C207201FC307200023184669
:1036C000094A1A4452780AB10130C0B22433902B0F
:1036D000F6D1064B5A780AB10130C0B293F82530C2
:1036E0000BB10130C0B2704744C207201FC307208E
:1036F00008B5FFF76FFB064B28B18278187802FBFC
:103700000000C00008BD18781823584308BD00BF4A
:1037100004C0072003490B6803604B6843608B6853
:1037200083607047ECC2072030B5414C4FF48035C0
:10373000E561404CA060E068C506FCD43D48806867
:10374000C0B20BB90C4665E00B46002A6AD0072AC6
:10375000384C0D782FDDA5604D78083AA5608D783E
:10376000A560CD78A5600D79A5604D79A5608D79AE
:10377000A56001F10805C979A1602E498C6964072B
:10378000FBD58C681C708C685C708C689C70896838
:10379000D9702849CC68E406FBD48C68083303F858
:1037A000044C8C6803F8034C8C6803F8024C89685D
:1037B00003F8011C1BE0032A1BDDA5604D78043AC9
:1037C000A5608D78A5600D1DC978A1601949CC68E8
:1037D000E406FBD48C68043303F8044C8C6803F8CB
:1037E000034C8C6803F8024C896803F8011C2946D5
:1037F000ABE70131A560013AE568ED06FCD40D4C5C
:103800000133A46803F8014C9FE7DD68ED06FCD4A2
:10381000084B9B68631A934204DA14F8015B054B6A
:103820009D60F2E7024B4FF480329A6130BD00BFD9
:1038300000C009200080084007B5002302A901222A
:1038400001F8013D00F01F001346FFF76DFF9DF8E2
:10385000070003B05DF804FB07B502AB03F8011DD8
:1038600000F01F0019460122002340F02000FFF75E
:103870005BFF03B05DF804FB08B51720FFF7DCFF22
:10388000C0F3001008BD07207021FFF7E5BF034615
:103890000A46A02019460023FFF746BF08B50020BE
:1038A000FFF7CAFFBDE8084000F0FE010020FFF767
:1038B000D3BF0000024B4FF08072DA61704700BF47
:1038C00020C0092008B50020FFF7B6FF40F0010135
:1038D000C9B20020FFF7C0FF024B4FF080729A611F
:1038E00008BD00BF20C0092007202021FFF7B4BF7A
:1038F0000021E1200A460B46FFF716BF37B50C46FC
:103900000546FFF7F5FF21462846FFF7C0FF0D4BA0
:103910004FF080721C469A610022ADF80620BDF877
:10392000063001339BB2ADF8063033B94FF08073E7
:10393000E361FFF7DDFF03B030BDFFF79DFF002817
:10394000EDD0F3E720C0092008B51720FFF774FF7A
:1039500000F0010080F0010008BD07204021FFF7C2
:103960007BBF08B503460A46612019460123FFF7CD
:10397000DBFEC0F3420008BD0021E2200A460B46F0
:10398000FFF7D2BE70B5064600200D461446FFF77D
:1039900053FF16B100F0BF0002E040F04000C0B29B
:1039A00015B100F0DF0101E040F0200114B101F099
:1039B000EF0101E041F010010020BDE87040FFF789
:1039C0004BBF10B504460020FFF736FF14B900F0D6
:1039D000F7010DE0012C04D100F0FB0141F00801DA
:1039E00006E0022C14BF40F0080140F00C01C9B2FF
:1039F0000020BDE81040FFF72FBF08B50020FFF7FB
:103A00001BFFBDE8084040F00201C9B20020FFF7EB
:103A100023BF08B50020FFF70FFFBDE8084000F006
:103A2000FD010020FFF718BF40F6DD13984206D8CD
:103A300040F66213B0F5166F38BF184600E018461E
:103A4000A0F51661C9B20520FFF706BF10B5044600
:103A50000620FFF7F1FEFA2C00F0D70102D141F069
:103A6000200104E0B4F5FA6F08BF41F00801062018
:103A7000BDE81040FFF7F0BE10B504460620FFF782
:103A8000DBFE032C20F0060028BF032440EA44019B
:103A9000C9B20620BDE81040FFF7DEBEF9284FF09E
:103AA000FA0305D9B0F57A6F88BF4FF47A6000E069
:103AB0001846B0FBF3F00F2900F1FF30C0B228BF69
:103AC0000F2141EA0011C9B20420FFF7C5BE113031
:103AD000C0B2162804D8202928BF2021FFF7BCBE79
:103AE0007047032804D0042814BF0321022100E0FA
:103AF00001210320FFF7B0BE03460A4630201946D5
:103B00000023FFF711BE03460A462A201946002368
:103B1000FFF70ABE73B50E4615460446FFF72CFFA5
:103B2000FFF7E6FE2B4B4FF08072DA61FFF771FF73
:103B300000210A460120FFF725FFFFF7A4FE02201F
:103B4000FFF73FFF3046FFF76FFF2846FFF77EFF86
:103B50000320FFF791FF02200321FFF77DFE0120E4
:103B60000021FFF779FE4FF4FA700321FFF796FF6B
:103B700021460020FFF7ABFF12200021FFF76CFE6B
:103B800013200021FFF768FE14200021FFF764FED8
:103B900015200021FFF760FE00211620FFF75CFED4
:103BA0000D4B18681B79009005208DF80430FFF745
:103BB00098FF68460521FFF79FFF68460521FFF73C
:103BC000A2FFFFF71AFF4FF4FA6004F014FC02B0F2
:103BD00070BD00BF20C009204F4A020070B5174ECB
:103BE000326822B90320202105F01CFE3060144DFC
:103BF0002A6822B90120202105F014FE2860114C0A
:103C0000216821B90120032205F00CFE206020204C
:103C100040F6C3114FF4FA62FFF77CFFFFF752FE44
:103C200016200121084A04F0A9FD306828B128684F
:103C300018B12068003018BF012070BD6CC3072088
:103C400068C3072070C30720F53C010070B5064625
:103C50000379002203F0C003C02B0CBF0D4B0E4BA9
:103C600088B01D6831462846134605F001FE04461B
:103C700060B9224623466946284605F0FDFE2246E5
:103C800023462846314605F0F3FD0446204608B099
:103C900070BD00BF68C307206CC3072038B5044659
:103CA0000D46FFF723FA237883420AD0E37843B91D
:103CB0000AF050FABD2300F0030000FB033004F0CB
:103CC0009AFBFFF7F7FDFFF7E9FD2046A9B2FFF7E2
:103CD00015FEFFF709FEFFF7F5FD06F0B7FC022819
:103CE00004D1034B0021186805F094FE012038BD73
:103CF00070C3072007B5002302A941F8043D084B13
:103D0000186805F087FE019B3BB1064B4FF08052CF
:103D10001A60BFF34F8FBFF36F8F03B05DF804FBE2
:103D200070C3072004ED00E038B505460C46FFF7E8
:103D30000BFE48B1A1B22846FFF713FEFFF704FEC1
:103D400008B9FFF70AFE012038BD2DE97043064689
:103D50000D46144606F07AFC022807D1224630466A
:103D60002946002305F088FEC4B21DE007F030F8B4
:103D70004FF47A72002308F097FA10EB040841F12F
:103D80000009002230462946134605F075FEC4B2EC
:103D900054B907F01DF84FF47A72002308F084FA42
:103DA000894508BF8045ECD22046BDE870830429D0
:103DB00038B5054603D1041C18BF012400E00024D7
:103DC00007F006F82CB14FF47A72002308F06CFA71
:103DD0002860204638BD000000B50C4B8DB009931B
:103DE0000B4B0C4A0B930C4B0A930CAB43F8102D66
:103DF000002204920FCB8DE80F00084B0121084AE6
:103E00006A20FFF727FA0DB05DF804FBDD3B0100E7
:103E1000293D0100AF3D01009D3C01004D3C0100EA
:103E2000544A020003460A46024908681946FFF749
:103E30008CBF00BF6CC3072003460A4602490868CE
:103E40001946FFF782BF00BF68C3072008B506F018
:103E5000FDFB0F4B02285B6913D15A020DD5FFF70A
:103E60002DFC0C4B00284FF00001186814BF0122F4
:103E70004FF0FF320B4605F0FFFDBDE80840FFF7AD
:103E8000BBBA5B02F9D5FFF719FC0028F5D108BDD4
:103E900000C0092070C3072030B504460D46134604
:103EA00021792A46BDE83040006805F0F7B81FB513
:103EB0000A4604AB0021022423F8041D0179009472
:103EC000006805F0D6F89DF80C009DF80D3043EA27
:103ED000002004B010BD10B504462A211922FFF7B6
:103EE000DBFF206821790D2205F0C7F8A0F12A0335
:103EF0005842584110BD0000044A13881F2B9FBF31
:103F0000581C1080024A42F82310704778C30720DB
:103F10007CC30720144AF0B51488012C20D9134B18
:103F200000211F46661EB14206DA58681D6801313D
:103F3000401B43F8040BF5E77B6803EB53010023B8
:103F400018469CB2B44209DA57F8245001338D4226
:103F500082BF012505FA04F42043F2E7044B186000
:103F600000231380F0BD00BF78C307207CC3072067
:103F700074C3072008B50220012106F0C1FE084BDA
:103F800001209A6A22F007029A629A6A42F00602B7
:103F90009A62044AD36843F03003D36008BD00BF7F
:103FA0000080004000C0024008B5044A01F07F03D1
:103FB0004171D25C0321FFF76FFF08BD594A02002F
:103FC00008B5044A01F07F038171D25C0221FFF73A
:103FD00063FF08BD594A020038B5044600682179DC
:103FE00005F067F8054688B1204606210022FFF754
:103FF00053FF204607210022FFF74EFF20462E21C7
:10400000FFF7D2FF20462E21FFF7DAFF284638BD02
:10401000642370B5B1FBF3F404FB1311CCB20A2195
:10402000B4FBF1F501FB15413031C9B20646FFF78B
:10403000C7FF092C8ABF05F1300130463046BDE884
:10404000704094BF2021C9B2FFF7AEBF0120704776
:1040500038B50D46044606F035FC05F00F03237015
:10406000114B15F0010F4FF0010214BFDA619A6194
:10407000227812F0020F4FF0020214BFDA619A6147
:10408000227812F0040F4FF0100214BFDA619A6127
:10409000227812F0080F4FF4807214BFDA619A612F
:1040A000BDE8384006F01EBC20C009200120704742
:1040B000022004F035BA08B5022004F031FA642376
:1040C0005843C0F3073008BD01207047044B5B69BB
:1040D000C3F38130C3F3412343EA8000704700BF3C
:1040E00020C0092010B5044601218122FFF7D4FE2B
:1040F00020682179012204F0C0FF10F0600F14BF86
:104100000120002010BD38B500210546FFF7CFFE85
:104110008122012184B22846FFF7BEFE24B210207E
:1041200094FBF0F007F0D6FE4FF0765107F026FF33
:10413000A96807F01BFE38BD08B5FFF7E4FF054985
:1041400007F01CFF044907F0CDFF4FF0844107F052
:104150000DFE08BD000010410000A0402DE9F04F09
:104160000546ADF2546D0C46904682A829460122C0
:104170009946DDF878A602F011F8002867D12146AB
:104180000DF22C400A2202F009F8044620B182A860
:1041900002F075FA20465AE08346064600900190E8
:1041A00006F016FE4FF47A72002308F07DF802A99B
:1041B00007464FF4007282A86B4602F088F8054665
:1041C000D8B9009BCBB106F003FE4FF47A720023FE
:1041D000F61B08F069F8064406F0FAFD4FF47A720F
:1041E000002308F061F802A90746009A0DF22C405E
:1041F00001AB02F02AF90546B8B1B8F1000F01D0C1
:10420000C8F80060B9F1000F01D0C9F800B0BAF1E8
:10421000000F01D0CAF8004082A802F030FA0DF277
:104220002C4002F02CFA284611E0019A009B9A4299
:10423000E3D106F0CDFD4FF47A72002308F034F894
:10424000009BBBEB070200EB020B1C44A8E70DF23E
:10425000546DBDE8F08FF0B50446ADF50B7D0F460B
:10426000164621461D4601A800230122009301F0B5
:1042700095FF044670B91DB101A8294602F011FA54
:1042800001A8394632466B4602F021F8044601A8DF
:1042900002F0F5F920460DF50B7DF0BDF0B50446B2
:1042A000ADF50B7D0F46164621461D4601A800239D
:1042B0000A22009301F072FF044670B91DB101A8F3
:1042C000294602F0EEF901A8394632466B4602F063
:1042D000BCF8044601A802F0D2F920460DF50B7D8A
:1042E000F0BDF0B50446ADF50B7D0F4616462146F0
:1042F0001D4601A800231222009301F04FFF04463F
:1043000080B901A80DB1294600E0049902F0C9F96D
:1043100001A8394632466B4602F097F8044601A8D8
:1043200002F0ADF920460DF50B7DF0BD7F2816D9C2
:1043300031B1FF2812D80A4B803833F8100070478B
:10434000074A8BB232F81120824203D00131802912
:10435000F6D10B4603F18000C0B2704700207047D1
:10436000DA4A02000023064A32F8132032B19042A2
:1043700001D00133F7E7034A32F81300704700BF5A
:10438000BA4D0200DA4B020010B501200C4605F0D0
:10439000F1FA2060003018BF012010BD01207047E5
:1043A00010B5044606F052F902280AD100210B4646
:1043B00020464FF0FF3205F05FFB431E5842584144
:1043C00010BD012010BD10B5044606F03FF90228CB
:1043D00007D100212046BDE810400A460B4605F0F3
:1043E00047BA10BD10B5044604F04CFC24B1012CB2
:1043F00006D100F07BF901E000F0EEFC044600E09D
:10440000042404F057FC204610BD28B1012801D037
:104410000420704700F018BA7047F8B507460E46FA
:1044200015461C4604F02EFC3FB1012F0CD130463E
:104430002946224600F010FA04E03046294622467A
:1044400000F016FD044600E0042404F033FC20468E
:10445000F8BDF8B507460E4615461C4604F012FC9A
:104460003FB1012F0CD130462946224600F042FAD6
:1044700004E030462946224600F020FD044600E0D4
:10448000042404F017FC2046F8BD70B506460D461E
:10449000144604F0F7FB36B1012E0AD12846214616
:1044A00000F082FA03E02846214600F02BFD044686
:1044B00000E0042404F0FEFB204670BD08B506F0C1
:1044C00087FC4FF47A72002307F0EEFE08BD00006F
:1044D00010B5044606F0F4FD074BB0FBF3F00223E1
:1044E000B0FBF3F2944202D3044A136110BDB3F55A
:1044F000807FF9D00233F3E740420F000000034011
:10450000044B9860DA68D206FCD4024B9868C0B2BB
:10451000704700BF0000034038B5FFF7CFFF00F53C
:10452000FA75FF20FFF7ECFFFF20FFF7E9FFFF28F8
:10453000044606D0FFF7C2FF0023994208BFA842F5
:10454000F2D3204638BD000038B5064C4FF0007558
:10455000E561FFF7E1FF044AA561137843F0010329
:10456000137038BD20C0092006C0072070B505466D
:104570000E46FFF7A3FF00F16404FF20FFF7C0FF22
:10458000FF2808D1FFF79AFF0023994208BFA042F5
:10459000F3D3002070BDFE28FBD1102E06D928468B
:1045A0004FF40071002204F00BFB19E02C1DFF20DA
:1045B000FFF7A6FF04F8040CFF20FFF7A1FF04F8A3
:1045C000030CFF20FFF79CFF04F8020CFF20FFF70D
:1045D00097FF043404F8050C331D1B1BDD42E6D1A4
:1045E000FF20FFF78DFFFF20FFF78AFF012070BD3E
:1045F00070B506460D46FFF78FFFFF28044619D118
:104600002846FFF77DFFFD2D16D04FF4007122469E
:10461000304604F0D5FA2046FFF772FF2046FFF738
:104620006FFF2046FFF76CFF00F01F00431F58424A
:10463000584170BD002070BD012070BD020638B524
:1046400004460D4607D577200021FFF7F7FF012824
:1046500036D804F07F041B4B4FF000729A61DA6188
:10466000FFF75AFFFF282AD12046FFF749FF280EFF
:10467000FFF746FFC5F30740FFF742FFC5F30720EA
:10468000FFF73EFFE8B2FFF73BFF402C04D0482C79
:104690000CBF8720012000E09520FFF731FF4C2C54
:1046A00002D1FF20FFF72CFF0A24FF20FFF728FF8D
:1046B000030605D5013C14F0FF04F6D138BDFF20F8
:1046C00038BD00BF20C00920064A07491378496950
:1046D000DBB2490154BF03F0FD0343F00303137041
:1046E000704700BF06C0072020C009202DE9F3470E
:1046F000FFF7EAFF514B1A781E4612F0020F01D065
:10470000187896E00120FFF7E3FE0A24FF20013C21
:10471000FFF7F6FE14F0FF04F8D1494D4FF0007397
:10472000EB6140202146FFF789FF012801D00024DA
:104730006EE0FFF7C3FE4FF4D57100F57A7A48209A
:10474000FFF77CFF01283DD1FF20FFF7D9FE01AF25
:1047500038550134042CF7D19DF80630012BE6D1F1
:104760009DF80730AA2BE2D1FFF7A8FE4FF0000911
:10477000494508BF5045D04606D3FFF79FFE49453F
:1047800008BF4045D3D207E0E9204FF08041FFF752
:1047900055FF0028E8D1F0E77A200021FFF74EFF0F
:1047A0000028C4D10446FF20FFF7AAFE3855013483
:1047B000042CF8D19DF8043013F0400F14BF0C24E2
:1047C000042425E02146E920FFF738FF022835BF01
:1047D00002240124E9274127FFF770FE4FF000096A
:1047E000494508BF5045D0460BD3FFF767FE494502
:1047F00008BF40450CD34FF400715020FFF71EFF57
:1048000006E038460021FFF719FF0028E4D1ECE765
:104810000C4B1C704FF00073AB613CB13378182027
:1048200003F0FE033370FFF753FE01E0FFF78CFE49
:104830003078C0B202B0BDE8F08700BF06C00720E4
:1048400020C00920FCC3072008B5FFF73DFF014B3E
:10485000187808BD06C00720F8B5144607460E466E
:10486000FFF732FF002C3AD01F4B1B78DB0738D400
:104870001E4B4FF00072DA611D4A1D46127812F08D
:10488000080F08BF7602012C0DD151203146FFF7E9
:10489000D5FEE8B938464FF40071FFF767FEB0FA6D
:1048A00080F4640914E052203146FFF7C7FE78B95E
:1048B00038464FF40071FFF759FE28B1013C14F05F
:1048C000FF0407F50077F3D14C200021FFF7B6FE77
:1048D0004FF00073201CAB6118BF0120F8BD04200D
:1048E000F8BD0320F8BD00BF06C0072020C0092086
:1048F000FCC30720F8B5144607460E46FFF7E4FE52
:10490000002C45D0254B1A78D20743D41B785B077F
:1049100042D4234B4FF00072DA61224A1D461278CE
:1049200012F0080F08BF7602012C0CD15820314636
:10493000FFF784FE28BB3846FE21FFF759FEB0FA88
:1049400080F464091DE012F0060F03D0D720214641
:10495000FFF774FE59203146FFF770FE88B93846DC
:10496000FC21FFF745FE28B1013C14F0FF0407F5D8
:104970000077F4D10020FD21FFF73AFE002808BFA0
:1049800001244FF00073201CAB6118BF0120F8BD5B
:104990000420F8BD0320F8BD0220F8BD06C00720A2
:1049A00020C00920FCC307207FB504460D46FFF751
:1049B0008BFE052C1AD12B78012B00F0FD8003D340
:1049C000022B0BD00420FAE07E4B586910F0806473
:1049D00040F0F280FFF7B8FD2046F0E0794B5B69CC
:1049E00083F08063C3F380636B70E5E0764B1B78E4
:1049F000DB0700F1E3800E2C00F2D880DFE804F042
:104A000008124F53D6D6D6D6D6D6A3A8AAB4C40079
:104A10006C4B4FF00072DA61FFF77EFDFF3818BF74
:104A20000120C4E049200021FFF708FE044608B138
:104A30000120BCE068461021FFF798FD0028F7D060
:104A40009DF800309DF809009B09012B9DF8083066
:104A500005D1013000EB03239BB29B021CE09DF8C3
:104A60000710890001EB93135A1C9DF806309DF83E
:104A7000051003F0030302EB83239DF80A2001F0E5
:104A80000F0101EBD212911C00F0030201EB420274
:104A9000D2B29BB2093A93402B60204687E04FF494
:104AA00000732B8052E0494E337803F0040303F087
:104AB000FF01DBB1CD200021FFF7C0FD0028B7D1F9
:104AC000FF20FFF71DFD68461021FFF74FFD00286E
:104AD000AED03024FF20FFF713FD601E10F0FF045E
:104AE000F8D19DF80A2010231209D4E74920FFF7D6
:104AF000A5FD044600289BD168461021FFF736FD2E
:104B0000002895D031789DF80A2001F0020101F0CB
:104B1000FF009DF80B3051B102F03F02DB0903EBBF
:104B200042039DF80D2001339209013AB3E7C2F325
:104B3000840103F003045A0902EBC402531C01FB75
:104B400003332B6033E0214B1B782B7000202EE0C9
:104B5000492000E04A200021FFF770FD00287FF483
:104B600067AF284610211BE07A200021FFF766FD81
:104B700000287FF45DAF2C1DFF20FFF7C1FC05F876
:104B8000010BA542F8D1E1E7CD200021FFF756FD4A
:104B900000287FF44DAFFF20FFF7B2FC28464021EC
:104BA000FFF7E4FCB0FA80F0400900E00420054B78
:104BB0004FF000729A6102E0002000E0032004B090
:104BC00070BD00BF20C0092006C00720FCC307201D
:104BD000054B1B78253BDBB2032B9ABF034A52F8E7
:104BE00023000020704700BF00C40720A44F02002C
:104BF0001B4B2DE9F0411D880646B5F5007F0F4699
:104C0000144602D1084611460AE0B5F5807F09D165
:104C1000084611462A46B04707F5807004F58071B2
:104C20002A4617E0B5F5047F05D1510A38468902B6
:104C30004FF400720EE0B5F5847F0FD1140A0846D8
:104C40004FF480726102B047611C07F58070490221
:104C50004FF480723346BDE8F0411847BDE8F0815B
:104C6000FEC30720034610B500295DDD07291A7829
:104C70002E4C2FDDA2605A780839A2609A78A26083
:104C8000DA78A2601A79A2605A79A2609A79A26051
:104C900003F10802DB79A360244B9C696407FBD510
:104CA0009C6804709C6844709C6884709B68C370A6
:104CB0001E4BDC68E406FBD49C68083000F8044C0A
:104CC0009C6800F8034C9C6800F8024C9B6800F854
:104CD000013C1BE003291BDDA2605A780439A26065
:104CE0009A78A2601A1DDB78A360104BDC68E4069A
:104CF000FBD49C68043000F8044C9C6800F8034C1A
:104D00009C6800F8024C9B6800F8013C1346ABE736
:104D10000133A2600139E268D206FCD4034A0130B3
:104D2000926800F8012C9FE710BD00BF000003400F
:104D300007B50B0C8DF804008DF805308DF80710C1
:104D40000B0A01A804218DF80630FFF78BFF03B092
:104D50005DF804FBF7B5164607460E4C40250323C5
:104D6000E5618DF804300B0C8DF805308DF80710D7
:104D70000B0A01A804218DF80630FFF773FF3846AF
:104D80003146002203F01CFFA561A561A56103B0B7
:104D9000F0BD00BF00C009200D4B4022DA610D4B71
:104DA000D7229A60DA68D106FCD40A4B9B68094B7B
:104DB000FF229A60DA68D206FCD4064B9868030694
:104DC000F5D5034B40229A61C0B29A619A6170474F
:104DD00000C0092000000340F7B5FFF7DDFF1F4CBE
:104DE000002323801E4B1F4E40271A889B78F761B3
:104DF0000546032101A8ADF804208DF80630FFF721
:104E000031FF9DF805209DF806301F2AB761B76174
:104E1000B7611CD1A3F12502032A18D8124A252B09
:104E2000137005F0010006D1002814BF4FF4807301
:104E30004FF4847305E0002814BF4FF400734FF45F
:104E400004732380FFF7C4FE084B400A18602088D3
:104E5000B0FA80F0400903B0F0BD00BFFEC30720E8
:104E60009A4F020000C0092000C4072004C4072094
:104E70002DE9F0418B1817460E4A013B1268804617
:104E8000934214D84D024446FFF786FF0026C8EB34
:104E90000502BE42224407DA21460748FFF7A8FE72
:104EA00004F500740136F2E70020BDE8F08101202E
:104EB000BDE8F08104C40720554D01002DE9F04103
:104EC0008B1817460D4A013B12688046934212D850
:104ED00004464D020026C8EB0502BE42224407DA12
:104EE00021460748FFF784FE04F500740136F2E717
:104EF0000020BDE8F0810120BDE8F08104C4072056
:104F0000E54F010010B50C46072805D8DFE800F092
:104F100006090E1214141414042010BDFFF73CFFF0
:104F20000AE0FFF755FE400A206005E04FF40073E9
:104F30000B8001E001230B60002010BD70B590B024
:104F400003466A466E4600F14005144618685968E3
:104F5000083303C4AB422246F7D1084D4024EC612C
:104F60009B200021FFF7E4FE30462146FFF77AFE42
:104F7000AC61AC61AC6110B070BD00BF00C0092075
:104F800070B50646074D402477200021EC61FFF7FD
:104F9000CFFE30462146FFF765FEAC61AC61AC61E7
:104FA00070BD00BF00C00920064B10B51C8834F04E
:104FB0001F0404D0FFF70CFEB0FBF4F010BD204638
:104FC00010BD00BFFEC30720014B1888704700BF0B
:104FD000FEC30720024B1878003018BF012070472D
:104FE000FEC307202DE9F7434FF0FF330F469046ED
:104FF00001938146FFF7D0FEFFF7ECFF0646B0B104
:10500000194C4025194BE5611B880320B3F5847FBB
:105010000CBF4FF480714FF400713943FFF788FEE5
:1050200001A80421FFF71EFEA561A561A5610E4C34
:10503000402382203946E361FFF77AFE4846414625
:10504000012203F0BDFD3EB1019B02A8013340F8EF
:10505000043D0421FFF706FE4023A361A361A36181
:1050600003B0BDE8F08300BF00C00920FEC30720E5
:10507000F7B5124B07461B88B3F5847F4FF0FF331B
:105080000CBF4FF480764FF400760193FFF7A2FF38
:1050900070B10B4C4025032046EA4721E561FFF73C
:1050A00047FE01A80421FFF7DDFDA561A561A5610B
:1050B0000198431C08BF002003B0F0BDFEC30720C9
:1050C00000C0092037B5074B074C186840250190F0
:1050D0000421E56101A8FFF7C5FDA561A561A561F2
:1050E00003B030BD9D4F020000C009201FB501A8CC
:1050F00003F08AFC9DF809309DF8082003F00F03A7
:1051000002F01F025B0543EA02419DF806309DF85C
:10511000040003F01F0341EAC3229DF80530C0F3E9
:10512000440003F03F0342EA4313BDF80A2018434A
:10513000520602F10842104305B05DF804FB30B599
:1051400004460D1F131B0344032B04D955F8043FD9
:1051500044F8043BF6E722F00303194402F003028B
:10516000013B18440A44914204D011F8013B00F875
:10517000013FF8E730BD0244904202D000F8011B25
:10518000FAE7704700F10B010023DA0142EA53030A
:1051900010F8012B1344884203F0FF03F5D11846A1
:1051A0007047026810B50446BAB11346184613F8A2
:1051B000011B1F2902D93A29F8D101E0002010BDB6
:1051C000114611F8013B884207D1303BD9B2012981
:1051D00003D802321846226010BD4FF0FF3010BDD8
:1051E00003692DE9F04101F109020D4653B341690C
:1051F00000244E1E16F8013F0134202B18D0052B39
:1052000047D0092C02D12E2717700132A3F1410794
:10521000192F0BD8082C0F7B8CBF4FF0100E4FF0BE
:10522000080E1EEA070F1CBF2033DBB213700132D9
:105230000B2CDFD1CB7A2B72CB692B600B8BAB8025
:10524000CB8AEB8000241470AE693EB303690BB9BE
:1052500000241AE0EB69002BFAD04FF6FF73028CA2
:105260009A42F5D0D0F81C80771E38F8140060B14F
:105270000021FFF75BF80028EAD0EB69013B9C4274
:10528000E6D2013407F8010FEFE700233355BDE8FC
:10529000F081092C4FF0E503C8D1B4E7BDE8F081F7
:1052A000F8B5037904460BB90020F8BD056B00F191
:1052B0003407394640782A460123FFF7CAF890B9E7
:1052C000636AE269EB1A93422071EDD2E678012E0F
:1052D000EAD9E36960781D4439462A460123FFF77D
:1052E000B8F8013EF3E70120F8BD0000F8B5044628
:1052F000FFF7D6FF05468DBB2378032B26D16679B1
:10530000012E23D104F13407384629464FF40072A8
:10531000FFF731FF4AF65523A4F83232104B226AC8
:10532000636303F1FF5303F500532033C4F81832CD
:1053300063690132C4F81C3223692263C4F8203245
:10534000607839463346FFF784F86571002160784C
:105350000A46FFF79AF8003018BF0120F8BD00BFD9
:1053600052526141036B70B5994205460E4610D00A
:10537000FFF796FF044608B101240BE0687805F1B9
:10538000340132460123FFF748F80028F4D12E6398
:1053900000E00024204670BD002310B503714FF0DB
:1053A000FF3303630446FFF7DDFFA0B94AF6552338
:1053B000B4F832229A4210D1D4F86A30084A23F065
:1053C0007F4393420AD0D4F8860020F07F40801AB1
:1053D00018BF012010BD032010BD022010BD00BF6A
:1053E00046415400F0B50023036085B007460846E7
:1053F0001546FFF7D6FE061EC0F2F2807E4B53F82C
:105400002640002C00F0EE80E068FEF7C9FF00287F
:1054100000F0EA803C60237883B16078FEF7F5FF06
:10542000C1070BD4002D00F0D98000F0040303F075
:10543000FF00002B00F0DD800A20DAE00023F0B24C
:1054400023706070FEF7CEFFC20700F1CF800DB170
:105450004307F1D420460021FFF79EFF01281CD10D
:105460002146002291F8F6310BB1D1F8FA314DF80E
:1054700022300132042A01F11001F3D100265DF837
:1054800026502DB120462946FFF786FF08B90BE0CC
:1054900002200136042EF2D100E00025032800F09E
:1054A000A78008B10D20A4E0B4F83F30B3F5007F29
:1054B000F8D1B4F84A0000B9A06D94F844E0E06176
:1054C0000EF1FF33012B84F803E0EBD894F8413060
:1054D000A370002BE6D05A1E1A42E3D1B4F845C09F
:1054E0001CF00F0FA4F808C0DCD1B4F8472002B9B3
:1054F000626DB4F842100029D4D00EFB00FE01EB1F
:105500001C177744BA42CDD3D21BB2FBF3F3002B66
:10551000C8D040F6F572934206D94FF6F576B342FD
:105520008CBF0326022600E00126023329442F44C3
:10553000032EA36125626162E76206D1BCF1000F10
:10554000B0D1226E9B00A26210E0BCF1000FA9D086
:10555000022E4FEA43020CBF1346D218714418BF03
:1055600003F00103A16218BF03EB520303F2FF1320
:10557000B0EB532F96D34FF0FF3363612361032EBB
:105580004FF08003637122D1B4F86430012B1ED137
:105590002046691CFFF7E6FEC8B94AF65523B4F861
:1055A000322260719A4212D1626B144B9A420ED130
:1055B00003F1FF53D4F8182203F5005320339A4225
:1055C00001BFD4F81C326361D4F8203223610C4A45
:1055D0002670138801339BB21380E380002008E01B
:1055E0000B2006E00C2004E00F2002E0032000E086
:1055F000012005B0F0BD00BF0CC40720525261412C
:1056000008C4072010B50446A8B103689BB11A78F6
:105610008AB1D988828891420DD1D868FEF7C0FE40
:1056200058B123685878FEF7F0FE10F0010F14BF50
:105630000320002010BD092010BD0F2010BD50B167
:10564000A1F10B03012B06D9092904D00F2902D09F
:10565000C068FEF7B8BE704783690239023B9942C1
:105660003DBF8278C36A02FB0130002070470129E8
:10567000F8B507460C464BD98369994248D203785E
:10568000022B29D0032B34D0012B41D101EB510641
:10569000416A01EB5621FFF765FE10B14FF0FF3074
:1056A000F8BD796AC6F3080301363B44384601EB7E
:1056B000562193F83450FFF755FE0028EED1C6F37B
:1056C00008063E4496F83400E30745EA00204CBF44
:1056D0000009C0F30B00F8BD416A01EB1421FFF78C
:1056E00041FE0028DAD1630003F4FF73FE18B08E88
:1056F000F8BD416A01EBD411FFF734FE0028CDD18B
:10570000A40004F4FE743C44606B20F07040F8BDCB
:105710000120F8BDF8B5054684680E46012CE980E5
:1057200001D10220F8BD03689A699442F9D254B9B4
:105730001A78032A01D19A6A22B91A899642F0D2BC
:10574000986A17E0144621469F783F01BE420DD368
:105750002868FFF78CFF431C01461AD00128E0D9C6
:105760002B689B699842DCD2F61BEFE728680C4651
:10577000FFF772FFEC600028D3D02B6800EB161007
:1057800006F00F0603EB4616343628616E610020E2
:10579000F8BD0120F8BD0129F8B505460C461646AE
:1057A0005FD9836999425CD20378022B38D0032BEE
:1057B00042D0012B51D101EB5107416A01EB572136
:1057C000FFF7D0FD002849D1C7F3080314F0010406
:1057D0002B4418BF93F83410F2B21EBF01F00F0132
:1057E00041EA0212D2B2696A83F8342001370123F8
:1057F0002B71284601EB5721FFF7B4FD70BBC7F3AF
:1058000008072F4414B1C6F3071606E097F83430A2
:10581000C6F3032623F00F031E4387F834601DE010
:10582000416A01EB1421FFF79DFDB8B9640004F44F
:10583000FF742C44A68611E0416A01EBD411FFF7F6
:1058400091FD58B9A40004F4FE7430342C4463680C
:1058500003F070431E43666000E0022001232B71B9
:10586000F8BD0220F8BDF8B505460F4631B9066906
:1058700096B183699E4228BF01260EE0FFF7F7FE2E
:1058800001283FD9441C02D14FF0FF30F8BDAB696D
:10589000984238D33E4600E001263446AB690134D5
:1058A0009C4204D3012E01D80020F8BD02242846D2
:1058B0002146FFF7DCFE30B1411C24D0012822D064
:1058C000B442EBD1F0E7284621466FF07042FFF773
:1058D00062FFA8B957B96B692C615A1C0ED0013B05
:1058E0006B616B7943F001036B7107E02846394621
:1058F0002246FFF750FF0028EDD001E02046F8BD1A
:105900000128C1D00120F8BD2DE9F843C68804461E
:105910000136B3B20F4613B90420BDE8F88303691A
:10592000002BF9D016F00F0859D1C168013303617B
:10593000006819B903899E42EED250E08378013B9A
:1059400013EA16134BD1FFF792FE0128054602D841
:105950000220BDE8F883421C02D10120BDE8F88393
:10596000206883699D4234D3002FD5D0E168FFF7CA
:105970007AFF054600283BD00128E9D0431CECD033
:105980002068FFF78DFC07460028E6D120683946DD
:1059900034304FF40072FFF7EEFBD4F80090294644
:1059A0004846FFF759FEC9F8300023689A789742B5
:1059B0000CD201221A712068FFF772FC0028CCD1AA
:1059C00022680137136B01331363EEE71A6BD71BA1
:1059D0001F63E56020682946FFF73EFE20612368CB
:1059E000E68003EB4813343363610020BDE8F8839D
:1059F0000720BDE8F88300002DE9F74F0021064697
:105A0000FFF788FE002840F087804FF6FF734FF0C5
:105A1000FF084446338430683169FFF7A3FC00284F
:105A20007AD175692B78002B6DD0E52BE97A5FD0A0
:105A30000F0701F03F0202D50F2A59D101E00F2ACA
:105A400042D1D6F81C90B9F1000F55D0580606D5B2
:105A500003F0BF04F38895F80D80338401E0A3427E
:105A600049D16B7B434546D12F784FF0000A27F090
:105A700040077B1E0D275F430123294A1AF80220A5
:105A8000A85A83B1FEF76EFC7F2F019033D839F806
:105A90001700FEF767FC019A07F1010B82420346EB
:105AA00029D15F4603E04FF6FF72904223D10AF1FD
:105AB000010ABAF10D0FE0D12A78510629D543B376
:105AC00039F817302BB316E024B92846FFF75AFBF4
:105AD00080451AD0B369DA7AD20709D405F10B00F0
